:020000040800F2
:10000000681000204501000899400008013A0008E6
:100010006D400008950D000803690008000000000D
:10002000000000000000000000000000FD4B000880
:1000300049120008000000007F4900084D4D0008EB
:100040005F0100085F0100085F0100085F01000810
:100050005F0100085F0100085F0100085F01000800
:100060005F0100085F0100085F0100085F010008F0
:100070005F0100085F0100085F0100085F010008E0
:100080005F0100085F0100085F0100085F010008D0
:10009000716800085F0100085F0100085F01000847
:1000A0005F0100085F0100085F0100085F010008B0
:1000B000714E0008814E0008914E00085F01000853
:1000C0005F0100085F0100085F0100085F01000890
:1000D0005F0100084D5400085D5400082D550008CC
:1000E0005F0100085F0100085F0100085F01000870
:1000F0005F0100085F0100085F0100085F01000860
:100100005F0100085F0100085F0100085F0100084F
:100110005F0100085F0100085F0100085F0100083F
:100120005F0100085F0100085F0100085F0100082F
:10013000DFF80CD000F0C6FB00480047956A0008C5
:10014000681000200648804706480047FEE7FEE7A3
:10015000FEE7FEE7FEE7FEE7FEE7FEE7FEE7FEE777
:10016000194E000831010008202A04DB203A21FA48
:1001700002F00021704721FA02F3D040C2F12002C0
:100180009140084319467047F0B480EA0102D40F49
:100190004200B2EB410F02D20246084611464A0025
:1001A00042D0C30DDDB2C1F3C752AD1A202D35DAEE
:1001B000C1F3160141F4000204B15242C5F1200618
:1001C00002FA06F12A411044B3EBD05F23D0C4B148
:1001D000012DA0EBC35009DCF0BC4FF0004202EA55
:1001E000C352DBB200F5000000F0E2BA400000F1BB
:1001F000807000EBC350A0F1807040EAD1704900DC
:1002000009E0490841EAC071A0EBC35000F50000C5
:10021000400800EBC350F0BC00F0C1BA61420122BB
:1002200002EB4101001BF6E7F0BC704781F0004192
:10023000AAE780F00040A7E780EA010210B502F0CB
:100240000043400022D04A001FD0010E01EB126192
:10025000C0F35600C2F3560240F4000042F400021C
:10026000A0FB022000047F39140400D0401C50EA97
:10027000124001D44000491EC2B20C0604EBD0105B
:10028000401C4008802A02D003E0002010BD20F06E
:100290000100002900DA0020184310BD30B480EAC4
:1002A000010202F0004530F0004221F0004013D07E
:1002B00090B1C30DD40DC2F31601C0F31600E41AB9
:1002C00041F4000140F400027D34914201D3641CEA
:1002D00000E04900002C02DA30BC002070474FF4E7
:1002E00000000023914201D3891A034340084FEADA
:1002F0004101F7D151B1914202D14FF0004105E0E7
:1003000002D24FF0010101E06FF0010103EBC45094
:10031000284430BC00F043BA2DE9FE4F804681EA04
:100320000300C00F0C46009021F0004123F000456F
:10033000B8EB0200A94105D24046214690461C4632
:100340000B46024623F00040104347D0270DC7F369
:100350000A00C3F30A510290401A019040286BDA58
:10036000C3F3130040F4801B0098924620B1002391
:10037000D2EB030A63EB0B0B01985946C0F1400224
:10038000504600F0EBF906460D4650465946019A94
:1003900000F0F3F910EB08006141002487EA1152E4
:1003A00084EAE7731A4340D0009A62B3019A012AA3
:1003B0004FEA075215DC001B61EB02014FF00042CF
:1003C00002EA0752CDE90042001C41F58011324695
:1003D0002B4600F028FA03B0BDE8F08F40462146D6
:1003E000F9E7001B61EB0201001C41F580130018C6
:1003F0005B412018A2F5001747EB030140EAD570D6
:10040000B6196D4111E06D084FEA360645EAC07530
:100410004FEA0752001B61EB0201001C41F58011FD
:1004200049084FEA30000019514132462B4603B0CB
:10043000BDE8F04F00F0EAB9009801224000002327
:10044000D0EB020263EBE073009821464FEAE074C0
:10045000B8EB000061EB0401E9E783F000435BE7E0
:1004600081F0004158E72DE9FE4F81EA030404F0D2
:10047000004421F0004100944FF0000B23F00043B2
:1004800050EA01045ED052EA03045BD0C3F30A547D
:10049000C1F30A552C44A4F2F3340194A0FB025496
:1004A000C1F3130141F48011C3F3130343F4801328
:1004B00001FB024400FB034E840A970A44EA81547C
:1004C00047EA8357A4FB076802958D0A05FB078559
:1004D0004FEA932C04FB0C542705029D4FEA065863
:1004E00047EA1637B5EB08056EEB070C870E920E40
:1004F00047EA811742EA8312A7FB0201B6EB0B0120
:1005000064EB00042B0D43EA0C335E1844EB1C50E3
:10051000DA465146E7FB0201C5F313044FEA0B33F9
:1005200043EA14534FEA0432019C43EA0603A4F160
:100530000C040294009CCDE900B400F074F903B0FF
:10054000BDE8F08F00200146F9E72DE9F04D81EA82
:10055000030404F0004B21F0004514464FF0000A5C
:1005600023F0004150EA050220D054EA01021DD0D8
:10057000C5F30A570246C5F31303C1F31300C1F3D1
:100580000A5640F4801543F48013A7EB0608101BAD
:10059000D64608F2FD3873EB050002D308F10108D6
:1005A00001E092185B41B8F1000F03DA0020014628
:1005B000BDE8F08D00204FF48011064684460EE021
:1005C000171B73EB050705D3121B63EB05030643EB
:1005D0004CEA010C49084FEA300092185B4150EA9E
:1005E0000107EDD152EA030012D082EA040083EA47
:1005F0000501084305D0101BAB4106D201220023A0
:1006000006E000224FF0004302E06FF001025310B9
:100610001AEB06004CEB085110EB0A0041EB0B0102
:10062000BDE8F04D00F0F2B8C10F80EAE070084478
:10063000CA079623002100F0BBB89623002211467A
:1006400000F0B6B80EB540F2334102910021CDE979
:1006500000110A460B4600F0E6F803B000BD00F0BA
:10066000004220F00040C10DC0F3160040F400002D
:100670007F2901DA00207047962903DCC1F1960139
:10068000C84001E096398840002AF4D040427047C3
:1006900020F00040C10DC0F3160040F400007F2997
:1006A00001DA00207047962903DCC1F19601C840A9
:1006B0007047963988407047C1F30A5210B5C1F3AC
:1006C000130140F2FF3341F480119A4201DA002015
:1006D00010BD40F233439A42A2F2334203DC52424D
:1006E000FFF742FD10BD904010BD00F0004230F019
:1006F00000400AD0C10D01F56071C0F3160042EA56
:100700000151C2084007114370470020014670475D
:1007100001F0004330B421F0004150EA010206D05C
:100720000A0DA2F56072C1F31301002A02DC30BC8D
:1007300000207047440F44EAC104C100E01830BCF7
:1007400000EBC25000F02BB8002801DBC0F10040E4
:10075000002901DBC1F1004181427047202A04DBFE
:10076000203A00FA02F1002070479140C2F12003C4
:1007700020FA03F3194390407047202A06DBCB1779
:10078000203A41FA02F043EAE07306E041FA02F34C
:10079000D040C2F120029140084319467047002919
:1007A000A8BF7047401C490008BF20F001007047F7
:1007B00010B4B0FA80FC00FA0CF050EA010404BF57
:1007C00010BC704749B1CCF1200421FA04F411FAAD
:1007D0000CF118BF012121430843A3EB0C01CB1DF1
:1007E0004FEA00614FEA102042BF002010BC704762
:1007F00000EBC35010440029A4BF10BC7047401C3C
:10080000490008BF20F0010010BC704710B5002B54
:1008100008DA401C41F1000192185B411A4301D1F2
:1008200020F0010010BD2DE9F04D92469B4611B11C
:10083000B1FA81F202E0B0FA80F220329046FFF77E
:100840008DFF04460F4640EA0A0041EA0B01534679
:100850005A46084313D0114653EA010019D0C8F193
:1008600040025046FFF780FC05460E46504659466A
:100870004246FFF773FF084305D0012004E02046FD
:100880003946BDE8F08D0020054346EAE0762C436A
:1008900037430A986305E40AA0EB08000022FD0A2A
:1008A00044EA47540A3002D500200146E9E7010531
:1008B00010196941DDE9084500196941BDE8F04DAD
:1008C000A4E70000064C074D06E0E06840F0010395
:1008D00094E8070098471034AC42F6D3FFF72CFC9D
:1008E000D06D0008F06D000870B5044680260A201F
:1008F00006F0ACF8A18B0022A06901F08DFB0A2064
:1009000006F0A4F80421204600F0BFF8002511E00D
:100910000A2006F09BF8A1890122A06801F07CFB67
:100920000A2006F093F8A1890022A06801F074FB68
:10093000681CC5B2102DEBDB002520E00A2006F074
:1009400085F8A1890122A06801F066FB06F03C0051
:1009500028B1A18A0122206901F05EFB04E0A18A8E
:100960000022206901F058FB76100A2006F06EF88C
:10097000A1890022A06801F04FFB681CC5B2082DB8
:10098000DCDB642006F062F8A18B0122A06901F093
:1009900043FB70BD7CB504460D4601221D496846E7
:1009A00000F03CF8DDE90001C4E900014FF4807279
:1009B0001849684600F032F8DDE90001C4E9060193
:1009C0004FF400721449684600F028F8DDE9000190
:1009D000C4E9020102220F49684600F01FF8DDE970
:1009E0000001C4E90401A1890122A06801F014FBFF
:1009F000A18B0122A06901F00FFBA18801222068D0
:100A000001F00AFB642006F021F82046FFF76CFF96
:100A10007CBD000000080140001001401CB50091A1
:100A2000ADF80420DDE90034C0E900341CBD2DE937
:100A3000F04104460D46082705B90825002620E0A8
:100A40000A2006F003F8A1890122A06801F0E4FA67
:100A500007EA050028B1A18A0122206901F0DCFA29
:100A600004E0A18A0022206901F0D6FA7F100A2052
:100A700005F0ECFFA1890022A06801F0CDFA701CFE
:100A8000C6B2042EDCDBBDE8F0812DE9F04104465E
:100A90000D460827002620E00A2005F0D7FFA1898F
:100AA0000122A06801F0B8FA07EA050028B1A18A7E
:100AB0000122206901F0B0FA04E0A18A0022206935
:100AC00001F0AAFA7F100A2005F0C0FFA1890022D8
:100AD000A06801F0A1FA701CC6B2042EDCDBBDE8F0
:100AE000F0812DE9F0410446884615464FF4004751
:100AF0000A2005F0ABFFA18B0022A06901F08CFA5F
:100B00000A2005F0A3FF01212046FFF7BEFF414662
:100B10002046FFF78CFF002620E00A2005F096FF14
:100B2000A1890122A06801F077FA07EA050028B13F
:100B3000A18A0122206901F06FFA04E0A18A002253
:100B4000206901F069FA7F100A2005F07FFFA18972
:100B50000022A06801F060FA701CC6B2102EDCDB27
:100B60000A2005F073FFA18B0122A06901F054FA5D
:100B7000BDE8F0817CB504460D469DBB4FF4804234
:100B80003249684600F068F8DDE90001C4E9000177
:100B900040222F49684600F05FF8DDE90001C4E912
:100BA00004014FF400422949684600F055F8DDE998
:100BB0000001C4E9020180222549684600F04CF892
:100BC000DDE90001C4E90601642005F03FFF0022D1
:100BD00080211F4801F020FA012291031B4801F0F7
:100BE0001BFA31E0FFE710221A49684600F034F89A
:100BF000DDE90001C4E9000140221649684600F021
:100C00002BF8DDE90001C4E90401202211496846FE
:100C100000F022F8DDE90001C4E9020180220D495B
:100C2000684600F019F8DDE90001C4E90601642016
:100C300005F00CFF00228021064801F0EDF90122A9
:100C40001021044801F0E8F97CBD0000000C0140CF
:100C500000100140000801401CB50091ADF80420CF
:100C6000DDE90034C0E900341CBD70B50446002540
:100C7000A18B0122A06901F0CFF9022005F0E6FE68
:100C8000A18B0022A06901F0C7F9012005F0DEFE6A
:100C9000002616E0A1890122A06801F0BDF9A18A11
:100CA000206901F0ADF90543A1890022A06801F097
:100CB000B3F90F2E03DA4FF6FF7000EA4505701CFA
:100CC000C6B2102EE6DB284670BD000010B5044603
:100CD000012C0AD101220102134801F09DF90022E2
:100CE000A102124801F098F90CE05CB900224FF41F
:100CF00080710D4801F090F900224FF480610B489B
:100D000001F08AF90A2005F0A1FE002280210648A0
:100D100001F082F90A2005F099FE012280210248A3
:100D200001F07AF910BD0000000C014000100140F4
:100D300010B50446012C0AD10122C103134801F069
:100D40006BF90022E102124801F066F90CE05CB98F
:100D500000224FF400410D4801F05EF900224FF4EB
:100D600000610B4801F058F90A2005F06FFE0022DF
:100D70004FF40051064801F04FF90A2005F066FED5
:100D800001225103024801F047F910BD000801405B
:100D90000010014000BFFEE72DE9F04705460E4672
:100DA00014461F463846FFF73FFC81460A49304645
:100DB000FFF742FA8246601E084A52F82010504659
:100DC000FFF734FA80464946FFF768FA05EB8401DD
:100DD00041F8040CBDE8F08700007A443409002093
:100DE0002DE9F04705460E4614461F463846FFF7E4
:100DF0001BFC8046601E084A52F820103046FFF760
:100E000015FA81464146FFF749FA05EB840141F89E
:100E1000040CBDE8F08700003409002070B50546D9
:100E20000C46012C06D1084802F0CCF8074802F025
:100E3000C9F808E0064802F0D4F8044802F0D1F8F6
:100E4000014802F0CEF870BD7C0A0020FC090020A9
:100E50003C0A002010B500220121194801F0DCF8FD
:100E600000220221164801F0D7F80022042114487C
:100E700001F0D2F800220821114801F0CDF800223B
:100E800010210F4801F0C8F8002220210C4801F081
:100E9000C3F8002201210B4801F0BEF80022022114
:100EA000084801F0B9F800220421064801F0B4F81E
:100EB00000224FF48051034801F0AEF810BD00004D
:100EC00000100140000C014010B504460B2C44D228
:100ED000DFE804F043060C12181E242A30363C00CA
:100EE000002201211E4801F097F837E0002202217C
:100EF0001B4801F091F831E000220421184801F06C
:100F00008BF82BE000220821154801F085F825E038
:100F100000221021124801F07FF81FE0002220215A
:100F20000F4801F079F819E0002201210D4801F085
:100F300073F813E0002202210A4801F06DF80DE079
:100F400000220421074801F067F807E000224FF46F
:100F50008051044801F060F800E000BF00BF10BD00
:100F600000100140000C014010B501222021024870
:100F700001F052F810BD0000000C01402DE9F04FC7
:100F800087B00020059004909848407815287DD1BE
:100F9000964880780228FAD103F0FAFDFFF7E4FFC3
:100FA000C82000F0ADFD9149C87803F035FEC82097
:100FB00000F0A6FD00224FF47A71022003F0FEF942
:100FC000C82000F09DFD4FF0000A28E08848FFF798
:100FD0004CFE0190FFF731FB8346FFF786FB0022B2
:100FE000844BCDE90201FFF73EFA80460022824B96
:100FF000FFF7ABFA06460022804BFFF72EFA0446B5
:10100000FFF786FB0590DDE90401FFF7BDF80490CA
:10101000022000F075FD0AF1010000F0FF0ABAF1AC
:101020000A0FD3DB76490498FFF738F906906F482A
:10103000C278012373480699FFF7D2FE0022724955
:10104000022003F0BBF9C82000F05AFD00200590F3
:10105000049082462AE06648FFF707FE0190FFF7FA
:10106000ECFA8346FFF741FB06460022614BFFF78F
:10107000FAF904460022604BFFF767FA00225F4B43
:10108000CDE90201FFF7E9F9804600E0A8E0FFF7AB
:101090003FFB0590DDE90401FFF776F8049002209C
:1010A00000F02EFD0AF1010000F0FF0ABAF10A0F6C
:1010B000D1DB53490498FFF7F1F806904B48C2780A
:1010C0004FF0FF3351480699FFF766FE002240F6C5
:1010D000B831022003F072F9C82000F011FD4FF082
:1010E000000A28E04248FFF7C0FD0190FFF7A5FA8B
:1010F0008346FFF7FAFA064600223E4BFFF7B3F9A4
:1011000000223D4BCDE90201FFF71FFA0446002201
:101110003A4BFFF7A2F98046FFF7FAFA0590DDE9AE
:101120000401FFF731F80490022000F0E9FC0AF115
:10113000010000F0FF0ABAF10A0FD3DB304904982E
:10114000FFF7ACF806902948C27803233048069987
:10115000FFF746FE00222F49022003F02FF9C82096
:1011600000F0CEFC002005900490824628E0204844
:10117000FFF77BFD0190FFF760FA8346FFF7B5FAB2
:10118000064600221B4BFFF76EF900221A4BCDE9F1
:101190000201FFF7DAF980460022184BFFF75DF9EC
:1011A0000446FFF7B5FA0590DDE90401FEF7ECFF10
:1011B0000490022000F0A4FC0AF1010000F0FF0AF4
:1011C000BAF10A0FD3DB0E490498FFF767F80690CF
:1011D0000648C2786FF002030F480699FFF7DCFD5E
:1011E00000F03EF807B0BDE8F08F00008800002056
:1011F000240C002000000440E0FFEF400000F43F1A
:1012000000002041AC09002018FCFFFFD409002099
:101210005C09002048F4FFFF8409002030B590F8F5
:1012200040500124AC40C56B6C6004686360446846
:10123000102C04D10468A2600468E16003E0046833
:10124000A1600468E26030BD7047000010B504463C
:10125000042001F0DDFD0148047010BD14000020E1
:1012600010B500222021024800F0D6FE10BD00007B
:10127000000C01402DE9F04788B081460C469246AB
:10128000A069401CA0612188606808446060A18951
:10129000206908442061B9F81A10A069884266D311
:1012A000344801F09EFEA069FFF7C7F90546606863
:1012B000FFF7C3F906462946FEF7F0FFA060A069D4
:1012C000FFF7BBF905462069FFF7B7F9064629463F
:1012D000FEF7E4FF60619AF80500401EC1B226489F
:1012E00002F0C6FE0546FFF700FA07468846A068EA
:1012F000FFF7FBF905460022204BFFF7B4F8002268
:101300001F4BCDE90001FFF720F900221D4BCDE96D
:101310000201FFF7A2F83A464346CDE90401FFF780
:1013200014F9CDE90601FFF7F3F9A0606069FFF752
:10133000DCF90022114BCDE90401FFF794F80022FB
:101340000F4BCDE90601FFF700F9074600220D4BD0
:10135000FFF783F80546FFF7DBF960610A4960692A
:10136000FEF76AFF6061002008B0BDE8F087012049
:10137000FAE70000FC0900200000204100000440C2
:10138000E0FFEF400000F43F00007A4410B5084849
:1013900001F027FE074801F024FE012006490870ED
:1013A000064908700022114603F008F810BD00003D
:1013B0003C0A0020FC090020070000204400002017
:1013C0000021074AD1610749096941F00401054A32
:1013D00011611146096941F0400111617047000037
:1013E00008090020002002400021074AD161074976
:1013F000096941F00201054A116111464861096914
:1014000041F04001116170470809002000200240AE
:101410000022054BDA61054A126942F00102034BD2
:101420001A61018070470000080900200020024076
:1014300000201E49C96801F0100139B11C49C96971
:1014400041F002011A4AD16140F010001749C96801
:1014500001F0040139B11649C96941F00101144A8A
:10146000D16140F004001149C96901F0010169B17D
:101470000F49C96941F004010D4AD16100BF0B4910
:10148000C96921F00101094AD16100BF00BF40F2E2
:101490000111884206D10549C96921F00101034AB9
:1014A000D16101E00149C86000BF704700200240DF
:1014B0000809002070B5044600F0B4FD054609E0B7
:1014C000601C38B124B100F0ADFD401BA04201D931
:1014D000032070BD1248C06800F001000028EFD161
:1014E0000F48C06800F0200020B100BF20200C4948
:1014F000C86000BF0A48C06800F0100048B908483A
:10150000C06900F0010020B90548C06800F004007F
:1015100018B1FFF78DFF0120DBE70020D9E70000BD
:101520000020024030B585B004460D4600200090F2
:1015300001900394281B401CC00A049000BF694618
:1015400001A800F0EDFA0028F9D105B030BD000087
:101550002DE9F04106460F46002400F09BFB39467A
:101560003046FFF7DFFF002517E0002009E02402E6
:10157000474901EB8501C0F10302895C0C43411C22
:10158000C8B20428F3DB434800EB85012246002360
:10159000022000F027FB681CC5B2092DE5DB002501
:1015A00018E0002009E024023B4901EB8501C0F16D
:1015B0000302895C0C43411CC8B20428F3DB3548A4
:1015C000403000EB850122460023022000F00AFB98
:1015D000681CC5B2092DE4DB002518E0002009E0F5
:1015E00024022E4901EB8501C0F10302895C0C4302
:1015F000411CC8B20428F3DB2648903000EB85017B
:1016000022460023022000F0EDFA681CC5B2092D25
:10161000E4DB002518E0002009E02402204901EB6A
:101620008501C0F10302895C0C43411CC8B2042847
:10163000F3DB1848683000EB8501224600230220C6
:1016400000F0D0FA681CC5B2092DE4DB002518E0D3
:10165000002009E02402134901EB8501C0F10302D7
:10166000895C0C43411CC8B20428F3DB0948B8303C
:1016700000EB850122460023022000F0B3FA681C2B
:10168000C5B2092DE4DB00F0A3FABDE8F08100004B
:1016900034090020201007085C090020840900207C
:1016A000AC090020D409002001460878012801D0A7
:1016B000087878B90022002003E00B5C5A40431CF4
:1016C000D8B21D28F9DB487F904201D14878704795
:1016D0000020FCE70020FAE770B505460C462078AC
:1016E00010B90A20607101E0207860716078E070C4
:1016F000A0782071002060722072687803F048FAA8
:10170000FFF7A8FB607903F087FAA07910B1FFF723
:101710002BFC01E0FFF7A4FD70BD10B50378012B91
:1017200063D193784370D37C947C43EA0423838011
:10173000D37D947D43EA0423C380537E147E43EA21
:1017400004234383537C147C43EA04238383838BE5
:10175000642493FBF4F38383D37A947A43EA0423D7
:101760001BB2C381537B147B43EA04231BB2038265
:101770005379147943EA04231BB20381D379947912
:1017800043EA04231BB24381537A147A43EA0423C5
:101790001BB28382D37B947B43EA04231BB2C382B4
:1017A000438B4FF47A746343C48893FBF4F38488C7
:1017B000E31A0A3B1BB2C383B0F91E30002B01DAD7
:1017C0000023C383C389438203898381937E1B11D2
:1017D0000376937E03F00F030B70D37E4B70137F61
:1017E0008B70D37803F001038B7110BD014600208C
:1017F0000A68126822F00E020B681A600A68126802
:1018000022F001020B681A6091F8403001229A40E0
:10181000CB6B5A60012281F8212000BF002281F8A1
:10182000202000BF7047000070B50446002594F8E2
:101830002100022803D00420A0630125C1E0206814
:10184000006820F00E00216808602068006820F021
:101850000100216808605C492068884252D95A49D1
:1018600078392068884201D1012047E0564964391F
:101870002068884201D1102040E053495039206847
:10188000884201D1801539E04F493C3920688842AF
:1018900001D1801432E04C4928392068884202D1B5
:1018A0004FF480302AE0484914392068884202D138
:1018B0004FF4801022E044492068884201D140045E
:1018C0001CE042492068884201D1012016E03F49CE
:1018D00014312068884201D110200FE03B492831A3
:1018E0002068884201D1801508E038493C312068E1
:1018F000884201D1801401E04FF480303349091F40
:10190000086051E0304978392068884201D10120CF
:1019100047E02D4964392068884201D1102040E019
:10192000294950392068884201D1801539E026497B
:101930003C392068884201D1801432E0224928399C
:101940002068884202D14FF480302AE01E491439C1
:101950002068884202D14FF4801022E01A492068A2
:10196000884201D140041CE018492068884201D116
:10197000012016E0154914312068884201D1102059
:101980000FE0124928312068884201D1801508E013
:101990000E493C312068884201D1801401E04FF4A7
:1019A0008030094980394860012084F8210000BF57
:1019B000002084F8200000BF606B10B12046616BEE
:1019C0008847284670BD000080000240080402409D
:1019D0000146002209B901207047204B086898424F
:1019E0000BD21F4B0868C01A1423B0FBF3F0800021
:1019F00008641B480838C8630AE0184B0868C01A16
:101A00001423B0FBF3F08000086414480838C8635E
:101A1000022081F821000868026843F6F0708243D2
:101A2000D1E901031843CB6818430B6918434B698C
:101A300018438B691843CB69184302430868026056
:101A400000208862C862086348638863012081F8C7
:101A50002100002081F8200000BFBDE708040240FB
:101A6000080002402DE9F04104460D4616461F4687
:101A70004FF0000800BF94F82000012802D1022096
:101A8000BDE8F081012084F8200000BF94F8210017
:101A900001282CD1022084F821000020A0632068B6
:101AA000006820F00100216808603B463246294664
:101AB0002046FFF7B3FBE06A30B12068006840F0D1
:101AC0000E00216808600BE02068006820F0040028
:101AD000216808602068006840F00A0021680860FA
:101AE0002068006840F001002168086006E000BF3F
:101AF000002084F8200000BF4FF002084046BFE7F6
:101B000031B500F08FFA0546009C601C00B1641CE2
:101B100000BF00F087FA401BA042FAD338BD000096
:101B20002DE9F04104460E460127002500BF264856
:101B3000007E012802D10220BDE8F0810120224967
:101B4000087600BF2068022813D14CF25030FFF70E
:101B5000B1FC90BB0120FFF733FC4CF25030FFF793
:101B6000A9FC07461948006920F0040017490861DC
:101B700023E04CF25030FFF79DFCF0B94FF0FF30FE
:101B80003060A56812E02846FFF72EFC4CF250307A
:101B9000FFF790FC07460D48006920F002000B4952
:101BA00008610FB1356007E005F50065D4E9021062
:101BB00001EBC020A842E6D800BF00BF00200249C8
:101BC000087600BF3846B7E7080900200020024029
:101BD0000348006940F08000014908610020704717
:101BE000002002402DE9FE4F05468B4617469846D9
:101BF000012600240020029000BF2448007E012816
:101C000002D10220BDE8FE8F01202049087600BFE6
:101C10004CF25030FFF74EFC064686BB012D02D138
:101C20000120029006E0022D02D10220029001E084
:101C30000420029000241EE02201B946C246484614
:101C40005146FEF791FA80B20190022000FB04B0E9
:101C500000900199FFF7DCFB4CF25030FFF72AFCB3
:101C600006460B48006920F001000949086106B1E9
:101C700004E0601CC4B202988442DDDB00BF00BFF8
:101C800000200249087600BF3046BBE70809002063
:101C9000002002400748006900F0800028B1064893
:101CA000044948600548486001E001207047002071
:101CB000FCE700000020024023016745AB89EFCD1F
:101CC0002DE9F8470246002400200025844600271D
:101CD00000237BE14FF0010808FA03F4D1F80080FB
:101CE00008EA0400A0427DD1DFF8ECA2D1F804801C
:101CF000A8EB0A09D0453AD014DCB8F1030F50D054
:101D000009DCB8F1000F31D0B8F1010F1CD0B8F1E7
:101D1000020F49D120E0B8F1110F18D0B8F1120F1D
:101D200042D11EE0B9F5881F25D006DCB9F5803F09
:101D300020D0B9F5801F37D11AE0B9F5001F18D0AF
:101D4000B9F5041F30D117E0D1F80CC02DE0D1F85F
:101D50000C8008F1040C28E0D1F80C8008F1080C84
:101D600023E0D1F80C8008F10C0C1EE000BF00BF8E
:101D700000BF00BF00BF00BFD1F80880B8F1000F5E
:101D800002D14FF0040C0BE0D1F80880B8F1010F3C
:101D900003D14FF0080C146102E04FF0080C5461BD
:101DA00003E04FF0000C00E000BF00BFFF2801D8A7
:101DB000904601E002F104084646FF2802D84FEAA7
:101DC000830803E0A3F108084FEA88084746D6F8DD
:101DD00000804FF00F0909FA07F928EA09080CFA00
:101DE00007F900E07AE048EA0908C6F80080D1F86F
:101DF000048008F08058B8F1805F6FD100BFDFF831
:101E0000DC81D8F8188048F00108DFF8D091C9F8D3
:101E10001880C846D8F8188008F00108CDF800806E
:101E200000BF00BF4FEAB9384FEA930958F829506C
:101E30004FEA83784FEA18794FF00F0808FA09F84B
:101E400025EA0805DFF89881424502D14FF00008E5
:101E500024E0DFF89081424502D14FF001081DE0F7
:101E6000DFF88481424502D14FF0020816E0DFF826
:101E70007C81424502D14FF003080FE0DFF870810A
:101E8000424502D14FF0040808E0DFF8688142457E
:101E900002D14FF0050801E04FF006084FEA8379C0
:101EA0004FEA197908FA09F848EA0505DFF8488188
:101EB0004FEA930948F82950D1F8048008F4803893
:101EC000B8F5803F0BD1DFF83481D8F8008048EABC
:101ED0000008DFF82891C9F800800AE075E0DFF813
:101EE0001C81D8F8008028EA0008DFF81091C9F8B2
:101EF0000080D1F8048008F40038B8F5003F0ED116
:101F0000DFF8F88008F10408D8F8008048EA0008F3
:101F1000DFF8E89009F10409C9F800800DE0DFF866
:101F2000DC8008F10408D8F8008028EA0008DFF80F
:101F3000CC9009F10409C9F80080D1F8048008F4B4
:101F40008018B8F5801F0ED1DFF8B08008F10808BE
:101F5000D8F8008048EA0008DFF8A09009F10809E5
:101F6000C9F800800DE0DFF8948008F10808D8F87F
:101F7000008028EA0008DFF8849009F10809C9F810
:101F80000080D1F8048008F40018B8F5001F0ED1C5
:101F9000DFF8688008F10C08D8F8008048EA0008EB
:101FA000DFF8589009F10C09C9F800800DE0DFF85E
:101FB0004C8008F10C08D8F8008028EA0008DFF807
:101FC0003C9009F10C09C9F800805B1C102BFFF450
:101FD00081AEBDE8F887000000001110001002403B
:101FE00000080140000C01400010014000140140B5
:101FF00000180140001C014008000140000401409D
:10200000024693680B400BB1012000E000207047AE
:10201000C2684A40C26070470AB1016101E00B0426
:1020200003617047014800687047000010000020FD
:1020300002480068401C01490860704710000020F9
:1020400010B50848006840F01000064908600320F9
:1020500000F0B4F8002000F007F800F019F80020B4
:1020600010BD00000020024070B50446074800681B
:102070004FF47A71B0FBF1F5284600F0DEFE002245
:102080002146501E00F05BF8002070BD00000020CB
:1020900008B500BF2148806940F001001F498861F0
:1020A0000846806900F00100009000BF00BF0320D7
:1020B00000F084F8002211466FF00B0000F03FF8AA
:1020C000002211466FF00A0000F039F80022114694
:1020D0006FF0090000F033F800221146501F00F0A5
:1020E0002EF800221146101F00F029F80022114698
:1020F000901E00F024F800221146501E00F01FF838
:1021000000BF0748406820F0E06005494860084685
:10211000406840F00070486000BF08BD00100240F9
:102120000000014000BF00F01F0201219140420960
:10213000920002F1E022C2F8001100BF70472DE9C1
:10214000F05F80460D461646002701F0A7FF0746C0
:1021500039462A46334601F00700C0F1070ABAF1B2
:10216000040F02D94FF0040A01E0C0F1070AD1467A
:1021700000F1040ABAF1070F02D24FF0000A01E0A1
:10218000A0F1030AD4464FF0010A0AFA09FAAAF1AB
:10219000010A0AEA020A0AFA0CFA4FF0010B0BFADA
:1021A0000CFBABF1010B0BEA030B4AEA0B042146D3
:1021B000404601F07BFFBDE8F09F000000BF00F04B
:1021C0000702064B19684FF6FF031940044B0B43F7
:1021D00043EA0221014B196000BF70470CED00E09B
:1021E0000000FA0570B504460D4604F1280101EB24
:1021F00045114A692946D4F85C0403F02FFB70BDF1
:1022000070B504460D4604F50A7101EB45114A69A3
:102210002946D4F85C0403F08EFB70BD70B504460B
:102220000D46002605F08000802806D105F07F01CC
:1022300004F1280000EB411603E004F50A7000EBFE
:1022400045160020B07005F07F003070C5F3C01057
:10225000707000BF94F82804012801D1022070BDDD
:10226000012084F8280400BF3146206804F0C9F832
:1022700000BF002084F8280400BF00BFEFE72DE96D
:10228000F04704460D46174698464FF000090026D1
:1022900005F08000802806D105F07F0104F12800B8
:1022A00000EB411605E005F07F0104F50A7000EB34
:1022B000411605F07F00307005F08000C009707095
:1022C000376186F8038000BF94F82804012802D102
:1022D0000220BDE8F087012084F8280400BF3146C1
:1022E000206803F0B6FE00BF002084F8280400BF79
:1022F0004846EEE72DE9F04105460E46174698465A
:10230000002406F07F0105F50A7000EB41146761B7
:10231000C4F818800020E061607006F07F00207033
:1023200006F07F0020B92146286804F007F903E091
:102330002146286804F002F90020BDE8F08170B55C
:1023400004460D46002605F08000802806D105F0E1
:102350007F0104F1280000EB411603E004F50A7048
:1023600000EB45160120B07005F07F003070C5F31A
:10237000C010707000BF94F82804012801D1022019
:1023800070BD012084F8280400BF3146206804F0A5
:1023900092F805F07F0020B904F22C41206804F087
:1023A0002DF800BF002084F8280400BF00BFE7E735
:1023B0002DE9F04105460E4617469846002406F0E2
:1023C0007F0105F1280000EB41146761C4F8188013
:1023D0000020E0610120607006F07F00207006F0B0
:1023E0007F0020B92146286804F0A8F803E02146C0
:1023F000286804F0A3F80020BDE8F08110B5044679
:10240000206804F03DFA00F40040B0F5004F02D11E
:10241000204602F092F8206804F032FA00F480605E
:10242000B0F5806F0ED12068B0F8440020F48060D1
:102430002168A1F84400204600F094F800212046CD
:1024400000F0B3F8206804F01BFA00F48040B0F507
:10245000804F07D12068B0F8440020F48040216804
:10246000A1F84400206804F00BFA00F40050B0F525
:10247000005F07D12068B0F8440020F400502168C4
:10248000A1F84400206804F0FBF900F48050B0F596
:10249000805F1AD12068B0F8400020F00400216865
:1024A000A1F840002068B0F8400020F00800216842
:1024B000A1F84000204600F06AF82068B0F8440017
:1024C00020F480502168A1F84400206804F0D8F975
:1024D00000F40060B0F5006F20D12068B0F8400033
:1024E00040F008002168A1F840002068B0F84400DE
:1024F00020F400602168A1F844002068B0F8400092
:1025000040F004002168A1F84000206804F0B8F908
:10251000C0F3003010B9204600F06CF8206804F0D9
:10252000AFF900F40070B0F5007F0AD12068B0F870
:10253000440020F400702168A1F84400204600F017
:102540002DF8206804F09CF900F48070B0F5807FCD
:1025500007D12068B0F8440020F480702168A1F809
:10256000440010BD70B504460125A068022801D1C1
:1025700000BF01E0012500BF00BF2946D4F85C047C
:1025800003F0D0FAD4F85C0403F092FA70BD10B5F1
:102590000446D4F85C0403F0ADFA10BD10B504464F
:1025A000D4F85C0403F0ADFA10BD70B504460D46D6
:1025B00000BF94F82804012801D1022070BD012039
:1025C00084F8280400BF84F824502946206804F0C9
:1025D00070F900BF002084F8280400BF00BFEDE7B9
:1025E00010B5044604F22C41D4F85C0403F0C0FAA0
:1025F00010BD000010B50446D4F85C0403F011FBD4
:10260000A06928B10348006840F00600014908604D
:1026100010BD000010ED00E0F8B5044600260025CE
:10262000207800F0010000286BD000274348C069E3
:1026300000F0805070B900BF4048C06940F0805041
:102640003E49C8610846C06900F08050009000BF54
:1026500000BF01273A48006800F48070B0B93848DC
:10266000006840F4807036490860FFF7DBFC0646DE
:1026700006E0FFF7D7FC801B642801D90320F8BDD2
:102680002F48006800F480700028F2D02B48006AC0
:1026900000F440752DB3A08800F44070A84220D00B
:1026A0002648006A20F44075012026490860002071
:1026B00008602248056205F0010090B1FFF7B2FC06
:1026C000064608E0FFF7AEFC801B41F288318842E5
:1026D00001D90320D3E71948006A00F0020000285E
:1026E000F0D01648006A20F440706168084313492E
:1026F0000862012F04D10846C06920F08050C861EB
:1027000000BF207800F00200022807D10B48406883
:1027100020F44040A168084308494860207800F050
:102720001000102807D10548406820F48000616936
:102730000843024948600020A1E700000010024061
:10274000007000404004424270B504460D46002629
:102750006248006800F00700A8420ED25F48006897
:1027600020F0070028435D4908600846006800F033
:102770000700A84201D0012070BD207800F00200BF
:10278000022807D15648406820F0F000A1680843AD
:1027900053494860207800F0010000285DD060684F
:1027A000012806D14E48006800F4003090B901209D
:1027B000E2E76068022806D14948006800F000702E
:1027C00040B90120D8E74648006800F0020008B987
:1027D0000120D1E74248406820F0030061680843C7
:1027E0003F494860FFF71EFC06466068012810D18B
:1027F00008E0FFF717FC801B41F28831884201D9BD
:102800000320B9E73648406800F00C000428F0D1F6
:1028100023E06068022810D108E0FFF703FC801B6A
:1028200041F28831884201D90320A5E72C4840684D
:1028300000F00C000828F0D10FE008E0FFF7F2FBF1
:10284000801B41F28831884201D9032094E7244853
:10285000406800F00C000028F0D12048006800F02B
:102860000700A8420ED91D48006820F00700284341
:102870001A4908600846006800F00700A84201D025
:10288000012079E7207800F00400042807D11448DB
:10289000406820F4E060E16808431149486020780E
:1028A00000F00800082808D10D48406820F4605066
:1028B000216940EAC1000A49486000F03DF8084932
:1028C0004968C1F30311074A515CC84006490860D2
:1028D0000020FFF7C9FB00204EE700000020024067
:1028E00000100240B66D000800000020014800689A
:1028F000704700000000002000B5FFF7F7FF044913
:102900004968C1F30221034A515CC84000BD000080
:1029100000100240C66D000800B5FFF7E7FF04494C
:102920004968C1F3C221034A515CC84000BD0000A0
:1029300000100240C66D0008F0B585B00FF2700CB3
:102940009CE8E01001A8A0E8E0101DA52D68009506
:10295000002100240022002300201A4D696801F0A4
:102960000C05FDB1042D02D0082D1AD101E0164846
:102970001AE001ADC1F38346AB5D01F480355DB172
:10298000104D6D68C5F340451DF805400E4DB5FB73
:10299000F4F505FB03F202E00C4D03FB05F21046D3
:1029A00002E000BF084800BF00BF05B0F0BD000056
:1029B00002030405060708090A0B0C0D0E0F101080
:1029C000010200000010024000127A0000093D00E0
:1029D000F8B504460025207800F00100002878D0E2
:1029E000F848406800F00C0004280CD0F548406816
:1029F00000F00C00082811D1F248406800F4803043
:102A0000B0F5803F0AD1EF48006800F4003000289C
:102A10005FD0606800285CD10120F8BD00BF60680D
:102A2000B0F5803F06D1E748006840F48030E549C2
:102A3000086028E0606858B9E248006820F48030F7
:102A4000E04908600846006820F4802008601AE029
:102A50006068B0F5A02F0BD1DA48006840F4802000
:102A6000D84908600846006840F4803008600AE0F1
:102A7000D448006820F48030D249086008460068D5
:102A800020F48020086000BF606888B1FFF7CAFAB0
:102A9000054606E0FFF7C6FA401B642801D903206B
:102AA000BBE7C848006800F400300028F2D010E00E
:102AB000FFF7B8FA054606E0FFF7B4FA401B6428B2
:102AC00001D90320A9E7BF48006800F400300028BE
:102AD000F2D1207800F00200022857D1B9484068AE
:102AE00000F00C0050B1B748406800F00C00082816
:102AF00018D1B448406800F4803098B9B1480068F3
:102B000000F0020020B12069012801D0012084E7F3
:102B1000AC48006820F0F800616940EAC100A949AA
:102B2000086033E02069E8B10120A7490860FFF799
:102B300079FA054606E0FFF775FA401B022801D92D
:102B400003206AE79F48006800F002000028F2D0E6
:102B50009C48006820F0F800616940EAC10099498A
:102B6000086013E0002098490860FFF75BFA05460B
:102B700006E0FFF757FA401B022801D903204CE773
:102B80009048006800F002000028F2D1207800F0A0
:102B9000080008282DD1A069B8B101208B49086030
:102BA000FFF740FA054606E0FFF73CFA401B022813
:102BB00001D9032031E78348406A00F00200002871
:102BC000F2D0012001F0DCFE13E000207F49086014
:102BD000FFF728FA054606E0FFF724FA401B022813
:102BE00001D9032019E77748406A00F00200002865
:102BF000F2D1207800F00400042873D10026714837
:102C0000C06900F0805070B900BF6E48C06940F0E4
:102C100080506C49C8610846C06900F0805000903F
:102C200000BF00BF01266A48006800F48070B0B998
:102C30006748006840F4807065490860FFF7F2F962
:102C4000054606E0FFF7EEF9401B642801D9032092
:102C5000E3E65F48006800F480700028F2D000BF0F
:102C6000E068012806D15748006A40F00100554944
:102C7000086227E0E06858B95248006A20F0010075
:102C8000504908620846006A20F00400086219E012
:102C9000E06805280BD14B48006A40F00400494920
:102CA00008620846006A40F0010008620AE04548F0
:102CB000006A20F00100434908620846006A20F0DB
:102CC0000400086200BFE068A0B1FFF7ABF9054659
:102CD00009E0FFF7A7F9401B41F28831884202D989
:102CE00003209AE622E03748006A00F0020000283C
:102CF000EFD012E0FFF796F9054608E0FFF792F9EA
:102D0000401B41F28831884201D9032085E62D48D5
:102D1000006A00F002000028F0D1012E05D12948F8
:102D2000C06920F080502749C86100BFE069C8B37E
:102D30002448406800F00C00082860D0E0690228B0
:102D400048D1002020490866FFF76CF9054606E0E7
:102D5000FFF768F9401B022801D903205DE61948F6
:102D6000006800F000700028F2D1206AB0F5803FC2
:102D700007D11448406820F40030A1680843114985
:102D80004860D4E9080108430E49496821F47411E8
:102D900008430C49486001200B490866FFF742F9D7
:102DA000054607E02DE0FFF73DF9401B022801D959
:102DB000032032E60348006800F000700028F2D0DB
:102DC0001FE0000000100240000042428004424226
:102DD0000070004000200C490866FFF723F9054603
:102DE00006E0FFF71FF9401B022801D9032014E673
:102DF0000648006800F000700028F2D101E00120D0
:102E00000BE6002009E600000000424200100240EC
:102E1000042808D14FF0E021096941F004014FF086
:102E2000E022116107E04FF0E021096921F004017F
:102E30004FF0E02211617047704770B50446254697
:102E4000681EB0F1807F01D301200FE0681E4FF0B3
:102E5000E02148610F214FF0FF3001F027F90020F9
:102E60004FF0E021886107200861002070BD10B597
:102E7000FFF7E2FF10BD70477047024600BF92F8AF
:102E80003C00012801D102207047012082F83C005B
:102E900000BF022082F83D001068406820F07000FA
:102EA00013685860106840680B68184313685860CE
:102EB0001068806820F0800013689860106880684F
:102EC0004B68184313689860012082F83D0000BFEA
:102ED000002082F83C0000BF00BFD5E710B50446D3
:102EE0000CB9012010BD94F83D0028B9002084F8E9
:102EF0003C00204600F00CF8022084F83D00211D23
:102F0000206801F0CDFF012084F83D000020E9E7B2
:102F100038B504462068B0F1804F16D100BF26486E
:102F2000C06940F001002449C8610846C06900F04A
:102F30000100009000BF00BF002211461C20FFF7D7
:102F4000FEF81C20FFF7EEF834E01C4920688842A8
:102F500016D100BF1848C06940F002001649C86188
:102F60000846C06900F00200009000BF00BF0022C8
:102F700001211D20FFF7E3F81D20FFF7D3F819E02A
:102F80000F492068884215D100BF0B48C06940F046
:102F900004000949C8610846C06900F004000090B7
:102FA00000BF00BF002205211E20FFF7C8F81E2029
:102FB000FFF7B8F838BD00000010024000040040E0
:102FC0000008004001460868C06840F001000A6837
:102FD000D0600868006840F001000A6810600020B6
:102FE000704701460868C06820F001000A68D06098
:102FF00000BF0868006A41F21112104050B9086819
:10300000006A9210104028B90868006820F001009A
:103010000A68106000BF002070472DE9F0410446A7
:103020000D46002600BF94F83C00012802D1022082
:10303000BDE8F081012084F83C0000BF022084F844
:103040003D002068866826F0770626F47F462068D3
:103050008660286850283BD00CDC202860D004DC37
:10306000002853D0102865D155E030285DD0402885
:1030700060D141E0602835D070280DD0B0F5805F78
:1030800003D0B0F5005F55D115E02068806820F0CE
:103090000700216888604EE0D5E902136A6820685D
:1030A00001F04AFF2068866826F0770646F077062A
:1030B000206886603FE0D5E902136A68206801F065
:1030C0003BFF2068806840F480402168886032E0DF
:1030D000EA686968206801F045FF5021206801F026
:1030E00037FF28E0EA686968206801F050FF602136
:1030F000206801F02DFF1EE0EA686968206801F091
:1031000031FF4021206801F023FF14E000212068F6
:1031100001F01EFF0FE01021206801F019FF0AE006
:103120002021206801F014FF05E03021206801F023
:103130000FFF00E000BF00BF012084F83D0000BF8A
:10314000002084F83C0000BF00BF71E7704710B555
:10315000044620680069C0F34000D8B12068C06808
:10316000C0F34000B0B16FF0020021680861012097
:1031700020772068806900F0030018B12046FFF72F
:10318000E5FF05E0204600F0ADF8204600F0ABF882
:103190000020207720680069C0F38000D8B1206843
:1031A000C068C0F38000B0B16FF00400216808610E
:1031B000022020772068806900F4407018B1204612
:1031C000FFF7C4FF05E0204600F08CF8204600F031
:1031D0008AF80020207720680069C0F3C000D8B1C9
:1031E0002068C068C0F3C000B0B16FF0080021686B
:1031F0000861042020772068C06900F0030018B13E
:103200002046FFF7A3FF05E0204600F06BF82046BC
:1032100000F069F80020207720680069C0F30010F2
:10322000D8B12068C068C0F30010B0B16FF01000D2
:1032300021680861082020772068C06900F4407088
:1032400018B12046FFF782FF05E0204600F04AF85B
:10325000204600F048F8002020772068006900F040
:10326000010058B12068C06800F0010030B16FF073
:10327000010021680861204600F036F820680069E6
:10328000C0F3C01058B12068C068C0F3C01030B19E
:103290006FF08000216808612046FFF7ECFD206890
:1032A0000069C0F3801058B12068C068C0F3801076
:1032B00030B16FF0400021680861204600F06EF8E0
:1032C00020680069C0F3401058B12068C068C0F39E
:1032D000401030B16FF02000216808612046FFF7F0
:1032E000CBFD10BD7047704710B5044622492068D9
:1032F0000968884211D12148007801283BD1204833
:10330000FDF7B3FC1F4988811F48FDF7AEFC1D493E
:1033100008800020194908702DE01C4920680968C0
:10332000884202D101F006FD25E0194920680968AC
:10333000884220D117480088401C00B215490880F7
:103340001548808BB1F90010884214DC1048FFF753
:1033500048FE0948FFF745FE012008490870094862
:1033600000F08AFC4FF0FF300A4908800748FFF759
:1033700029FE01F0DFFC10BDFC0900200700002041
:10338000440C002068000020240C00203C0A00208F
:103390007C0A00200A00002044000020704770B51D
:1033A0000446002520684069C0F3C01594F8390030
:1033B00021280ED16DB12068406920F0800021687D
:1033C0004861206B10B1206BFEF710FA204601F027
:1033D00092FE20684069C0F3801594F83A002228D4
:1033E0000ED16DB12068406920F04000216848612D
:1033F000606B10B1606BFEF7F9F9204601F05BFEDF
:10340000002070BD704700002DE9F0470446206899
:1034100005682068C668206847694FF00008C14603
:1034200005F00F08B8F1000F0AD105F0200038B1FF
:1034300006F0200020B1204601F067FEBDE8F087CD
:10344000B8F1000F6DD007F0010018B906F49070C4
:10345000002866D005F0010030B106F4807018B184
:10346000E06B40F00100E06305F0040030B107F0CC
:10347000010018B1E06B40F00200E06305F00200CB
:1034800030B107F0010018B1E06B40F00400E063D8
:1034900005F0080030B107F0010018B1E06B40F012
:1034A0000800E063E06B68B305F0200028B106F087
:1034B000200010B1204601F028FE20684069C0F3CA
:1034C0008019E06B00F0080010B9B9F1000F22D0AC
:1034D000204601F0F0FD2068406900F04000B0B1E6
:1034E0002068406920F0400021684861606B50B15D
:1034F0001748616B4863606BFEF796F910B1606B1B
:10350000416B88470CE02046FFF77CFF08E020462F
:10351000FFF778FF04E02046FFF774FF0020E06328
:103520008CE705F0800030B106F0800018B120462D
:1035300001F022FF82E705F0400030B106F04000C4
:1035400018B1204601F0C7FD78E700BF76E700001C
:10355000BB4F000810B504460CB9012010BDA0698E
:1035600000B100E000BF94F8390028B9002084F8C9
:103570003800204600F028F8242084F8390020681C
:10358000C06820F400502168C860204601F010FE99
:103590002068006920F49040216808612068406933
:1035A00020F02A00216848612068C06840F400507B
:1035B0002168C8600020E063202084F8390084F886
:1035C0003A000020CAE7000010B586B004466C49F6
:1035D000206888422AD100BF6A48806940F4804050
:1035E000684988610846806900F48040019000BF06
:1035F00000BF48150290022003900320059002A905
:103600006148FEF75DFB4FF480600290002003905C
:10361000049002A95C48FEF753FB002205212520F7
:10362000FEF78DFD2520FEF77DFDA6E057492068B9
:10363000884274D100BF5348C06940F400305149FA
:10364000C8610846C06900F40030019000BF00BFA7
:1036500004200290022003900320059002A94A480A
:10366000FEF72EFB0820029000200390049002A990
:103670004548FEF725FB464846490860102048604B
:103680000021444881608021C160002101614161C5
:1036900081614FF44051C1610068006820F004006E
:1036A0003C49096808603B48FEF792F918B1F521DA
:1036B00039A003F091F900BF36482063446200BF8F
:1036C000334814383B4908600020486000213948DD
:1036D00081608021C1600021016141618161C1611E
:1036E0000068006820F00400324909680860314829
:1036F000FEF76EF920B14FF4837127A003F06CF947
:1037000000BF2C486063446200BF002204212620D1
:10371000FEF715FD2620FEF705FD2EE0FFE7264902
:103720002068884229D100BF1648C06940F4802033
:103730001449C8610846C06900F48020019000BFA8
:1037400000BF08150290022003900320059002A9F3
:103750001A48FEF7B5FA4FF400600290002003907B
:10376000049002A91548FEF7ABFA00220421272095
:10377000FEF7E5FC2720FEF7D5FC06B010BD0000E3
:1037800000380140001002400008014000440040A1
:1037900080000240C00B00202E2E2F5372632F7327
:1037A000746D3332663178785F68616C5F6D737009
:1037B0002E6300007C0B002000480040000C0140FC
:1037C00077B581B00446154694F83A00202850D1C8
:1037D000029800B115B9012004B070BD00BF94F883
:1037E0003800012801D10220F6E7012084F83800D2
:1037F00000BF0298A062A5850020E063222084F823
:103800003A001D48616B88621C48616BC8621C48A5
:10381000616B08630020616B486302AE3268236805
:10382000191D2B46606BFEF71DF900BF00200090AC
:1038300020680068009020684068009000BF00BFCA
:1038400000BF002084F8380000BF2068C06840F442
:1038500080702168C8602068406940F001002168DC
:1038600048612068406940F04000216848610020BC
:10387000B2E70220B0E700001F50000865500008C2
:10388000CF4F0008704770472DE9F84304460D46B6
:1038900016461F464FF0000994F8390020285CD1E5
:1038A00005B116B90120BDE8F88300BF94F83800CF
:1038B000012801D10220F6E7012084F8380000BF7A
:1038C0000020E063212084F83900FEF7ABFB81463D
:1038D000A684E6842BE0E08C401EE084A068B0F56E
:1038E000805F16D14B46002280212046009701F0D0
:1038F00077FD08B10320D6E7A846B8F80000C0F36A
:10390000080021684860206908B9AD1C0FE06D1CF3
:103910000DE04B46002280212046009701F060FD1B
:1039200008B10320BFE715F8010B21684860E08C5F
:103930000028D0D14B46002240212046009701F0BC
:103940004FFD08B10320AEE7202084F8390000BF06
:10395000002084F8380000BFA5E70220A3E700009C
:10396000F7B50446154694F8390020283DD1019852
:1039700000B10DB90120FEBD00BF94F83800012848
:1039800001D10220F7E7012084F8380000BF019838
:103990002062A584E5840020E063212084F83900BA
:1039A0001348216B88621348216BC8621248216B4F
:1039B00008630020216B486301AE23681A1D31683B
:1039C0002B46206BFEF74EF86FF040002168086030
:1039D00000BF002084F8380000BF2068406940F034
:1039E0008000216848610020C5E70220C3E700008D
:1039F00073500008A9500008CF4F00087047704767
:103A000000BFFEE710B5FEF71BFB01F0A5F900F0C3
:103A10004FF900F03BF900F0F7FA00224021254869
:103A2000FEF7FAFA00224FF480712348FEF7F4FA09
:103A300022480068C06840F0400020490968C8601A
:103A40001E480068C06820F080001C490968C860F2
:103A50001A480068C06840F0100018490968C8603A
:103A60006FF040001549096808606FF08000134945
:103A7000096808604820FDF7E9FB00211048FCF7C1
:103A800089FF00210F48FDF775F801210E48FDF769
:103A900071F80020FDF74CF90020FDF717F901221D
:103AA00011030548FEF7B8FA012204210748FEF782
:103AB000B3FA10BD000C014000100140FC0A0020C8
:103AC000040C0020240C0020440C002000140140B1
:103AD000012101700021474A11604FF07E51464A92
:103AE00011600021454A11604FF07E51444A116037
:103AF0004449454A11604549454A11604549464A8D
:103B000011604649464A11604649474A1160474993
:103B10005160474991604749D16047491161474920
:103B20005161474991614749D1610021116246497C
:103B300051624649464A1160464951604649916082
:103B40004649D1604449A8311161454951614FF05E
:103B50007E5191614349D1614FF07E5111624249DA
:103B600051623A49414A11603A4951603A4991607B
:103B70003A49D1603849A8311161394951614FF052
:103B80007E5191613749D1614FF07E5111623649C2
:103B900051622E49364A11602E4951602E4991607A
:103BA0002E49D1602C49A83111612D4951614FF046
:103BB0007E5191612B49D1614FF07E5111622A49AA
:103BC000516222492B4A1160224951602249916079
:103BD0002249D1602049A8311161214951614FF03A
:103BE0007E5191611F49D1614FF07E5111621E4992
:103BF0005162704724000020280000202C00002083
:103C000030000020DD088BBB3400002040FC7F3FEB
:103C100038000020F25858BA3C000020E5F27F3FFF
:103C2000400000209B0022BA34090020950070B8A3
:103C3000F05CCFB6F3E325B55CB684B3FA56D4B1E5
:103C400059DB93B07FEE19B00F300CB0AC3A6B3F3C
:103C50005C0900202DC87D3F992A803FB537803F01
:103C6000EE7C7F3FEB1E813FF54A813F84090020B7
:103C7000AC090020D409002000210180816041604E
:103C800081814161016181617047000008B500BF19
:103C90000648406940F0010004494861084640690F
:103CA00000F00100009000BF00BF08BD00100240FE
:103CB00000B585B000BF5348806940F020005149ED
:103CC00088610846806900F02000009000BF00BFB6
:103CD00000BF0846806940F010008861084680698E
:103CE00000F01000009000BF00BF00BF08468069D0
:103CF00040F0040088610846806900F004000090EC
:103D000000BF00BF00BF0846806940F0080088611E
:103D10000846806900F00800009000BF00BF002244
:103D200042F6BF513848FEF777F9012240F20111FF
:103D30003648FEF771F9002248F2B2013348FEF727
:103D40006BF900224FF2FF113148FEF765F90122AD
:103D500051022D48FEF760F9012211032A48FEF7AF
:103D60005BF9012204212B48FEF756F943F6BF7098
:103D70000190012002900320049001A92248FDF740
:103D80009FFF48F2B310019001200290032004909D
:103D900001A91E48FDF794FF4020019000200290E9
:103DA0000120039001A91948FDF78AFF4FF2FF1087
:103DB0000190012002900320049001A91448FDF70E
:103DC0007FFF40200190002002900120039001A974
:103DD0000D48FDF775FF4FF48050019001200290CF
:103DE0000220049001A90848FDF76AFF0420019011
:103DF000012002900220049001A90648FDF760FF0F
:103E000005B000BD00100240001001400008014054
:103E1000000C01400014014010B586B004464FF07C
:103E200080401749086041F61F404860002114484F
:103E30008160601E1249C860002111480161FFF7CE
:103E40004DF818B1CF210FA002F0C6FD4FF48050FD
:103E5000029002A90A48FFF7E0F818B1D52109A09D
:103E600002F0BAFD00200090019069460448FFF777
:103E700004F818B1DC2103A002F0AEFD06B010BDBD
:103E8000FC0900202E2E5C447269766572735C55C5
:103E90007365725F4472697665725C5372635C68C5
:103EA000617264776172652E630000002DE9F0474E
:103EB00086B082461F482049086047F27F0048606C
:103EC00000211D4881605046FCF7BCFB8046002263
:103ED0001A4BFCF7C8FA06460022194BFCF7BDFA4C
:103EE0000446FCF7E9FB1449C8600021124801614F
:103EF000FEF7F4FF18B1EF2112A002F06DFD4FF4B0
:103F00008050029002A90C48FFF787F818B1F521FC
:103F10000CA002F061FD0020009001906946064867
:103F2000FEF7ABFF18B1FC2106A002F055FD06B06C
:103F3000BDE8F087000400403C0A00200000044077
:103F40000000F03F2E2E5C447269766572735C55FA
:103F50007365725F4472697665725C5372635C6804
:103F6000617264776172652E6300000010B586B0DF
:103F7000044619481949086041F61F40486000216D
:103F800016488160601E1549C86000211348016110
:103F9000FEF7A4FF20B140F20D1111A002F01CFDAC
:103FA0004FF48050029002A90C48FFF736F820B178
:103FB00040F213110AA002F00FFD002000900190C2
:103FC00069460648FEF759FF20B14FF48D7104A0F1
:103FD00002F002FD06B010BD000800407C0A00207F
:103FE0002E2E5C447269766572735C557365725FE0
:103FF0004472697665725C5372635C68617264775F
:104000006172652E6300000010B50C480C49086011
:104010004FF4E1304860002109488160C1600161CE
:104020000C21416100218161C161FFF793FA20B148
:1040300040F24D1103A002F0CFFC10BD004400403F
:10404000FC0A00202E2E5C447269766572735C5502
:104050007365725F4472697665725C5372635C6803
:10406000617264776172652E6300000000BFFEE735
:104070002DE9F04107460C464FF07E56002506E03C
:1040800031463846FCF7D8F80646681CC5B2A5424A
:10409000F6DB3046BDE8F08170470000024800685A
:1040A000C0F30220704700000CED00E010B50028BE
:1040B00007DA0A07140E054A00F00F031B1FD45439
:1040C00003E00A07130E024A135410BD18ED00E076
:1040D00000E400E02DE9FF4F83B00C4615461E4674
:1040E000002E3BD105EB4500C01CC1B22B48FFF7A9
:1040F000BFFF0290B4F1000B01DB594601E0CBF1A8
:1041000000010846FCF790FA01900299FCF794F838
:104110008146DFF88CA0092706E022495046FCF7CB
:104120008BF88246781EC7B249465046FCF70CFB16
:10413000F3D3032000FB1570401EC1B21948FFF7EE
:1041400097FF83462046FCF76FFA59460290FCF72A
:1041500073F88046384600F05FFD13E0032000FB53
:104160001560401EC1B20F48FFF782FF0746204688
:10417000FCF75AFA81463946FCF75EF8804630462D
:1041800000F04AFD4046FCF76AFA0746012239462C
:10419000039800F013F907B0BDE8F08FCDCCCC3D0B
:1041A00077CCAB300000204110B53F48B0F90E008D
:1041B0003D49B1F9101088423ADC3C4800780128AA
:1041C0000DD13949B1F91600002801DB014600E0A4
:1041D0004142354A528A114409B2334A5182324827
:1041E000B0F912003049B1F91010884202DDFDF734
:1041F000CDF808E02E4C23782B4C227EB4F9121017
:104200006078FFF767FF2849B1F91600002801DB45
:10421000014600E04142244AB2F912201144224AE8
:10422000B2F9102091423DDD01202249087739E0A2
:104230001E48007801280DD11B49B1F9160000284D
:1042400001DB014600E04142174A528A511A09B285
:10425000154A51821448B0F912001349B1F91010EF
:10426000884202DAFDF792F808E0114C23780E4CF0
:10427000227EB4F912106078FFF72CFF0A49B1F9D9
:104280001600002801DB014600E04142064AB2F96F
:104290001220511A044AB2F91020914202DA012088
:1042A0000449087710BD0000440000200C000020E5
:1042B000280900206800002010B53D48B0F908002A
:1042C0003B49B1F90A10884238DC3A4800780128A5
:1042D0000DD13749B1F91400002801DB014600E097
:1042E0004142334A9289114409B2314A918130489E
:1042F000B0F90C002E49B1F90A10884202DDFDF731
:1043000045F806E02A48B0F90C100122104600F0EA
:1043100055F82749B1F91400002801DB014600E0F7
:104320004142234AB2F90C201144214AB2F90A2031
:1043300091423BDD01202049087737E01D48007895
:1043400001280DD11A49B1F91400002801DB0146FA
:1043500000E04142164A9289511A09B2144A9181E9
:104360001348B0F90C001249B1F90A10884202DA78
:10437000FDF70CF806E00E48B0F90C1001221046CB
:1043800000F01CF80A49B1F91400002801DB0146CD
:1043900000E04142064AB2F90C20511A044AB2F92F
:1043A0000A20914202DA01200349087710BD00007B
:1043B000440000200C000020680000202DE9F04F90
:1043C0008BB005460C4691464C48007A0A9014F58D
:1043D000166F36DDB4F5166F33DA002047490872E0
:1043E0000021284600F0AAFB2046FCF71DF94449AD
:1043F0000290FBF753FF8346424801685846FBF79B
:104400001BFF8246404801685046FBF7BDFE039003
:10441000FCF76BF900223D4BCDE90401FCF720F8D5
:10442000074600223A4BFCF790F80022394BCDE9C1
:104430000601FCF718F8CDE90801FCF769F9064612
:1044400035E001202D4908720121284600F076FB55
:104450002046FCF7E9F82A490190FBF71FFF02907C
:10446000284801680298FBF7E7FE03902648016898
:104470000398FBF789FE28490490FBF70FFF05908E
:10448000FCF733F907460022204BFBF7E9FF824691
:1044900000221F4BFCF759F800221E4BCDE9060104
:1044A000FBF7E1FFCDE90801FCF732F9064630469B
:1044B000FCF7EEF887B23A4601211848FCF711FBE9
:1044C0000E48017A0A98814215D0B9F1010F12D134
:1044D000012D01D0022D0ED11148FEF782FD1148A9
:1044E000FEF77FFD4FF47A70FDF70AFB0D48FEF7EB
:1044F00069FD00F01FFC0BB0BDE8F08F280900201B
:1045000000007A442800002024000020000004401D
:1045100000001440E0FFEF4000003041040C002098
:10452000FC0900203C0A002010B5FCF71DFD00220C
:1045300011460120FFF742FF10BD2DE9FC41054661
:104540000024002700260020019000900CE2BDF816
:10455000040000F00F06002E7DD1BDF8040000F02D
:10456000100088BB2868008848F60F710840296849
:10457000088005F128042868B0F85010207801EB75
:10458000C000801C296801F5806131F81000C0F37B
:104590000900E061E1696069084460610021284622
:1045A000FDF720FE95F824000028CFD0A069002850
:1045B000CCD195F8240040F080002968A1F84C0087
:1045C000002085F82400CFE1FFE705F50A7428688C
:1045D00000880090BDF8000000F4006018B328685F
:1045E000B0F85010207801EBC000801D296801F55B
:1045F000806131F81000C0F30900E061A18B8BB23B
:10460000A28805F22C41286802F03FF9286800884A
:10461000C0F30E0048F68F710840296808802846CC
:10462000FDF7DEFFA0E1BDF8000000F40040002827
:104630008CD028680088C0F30E0048F68F710840BF
:10464000296808802868B0F85010207801EBC00075
:10465000801D296800E055E001F5806131F8100007
:10466000C0F30900E061E06960B1B4F81CC01FFA52
:104670008CF3A2886169286802F007F9E169606932
:104680000844606100212846FDF7BAFD2A6802F55A
:1046900080622868B0F85000801D02EB400122695A
:1046A0003E2A10D92269C2F34F10227C02F01F0269
:1046B0000AB9421E90B24FF6FF7202EA802242F41B
:1046C00000420A600DE02269C2F34F00227C02F032
:1046D00001020AB1421C90B24FF6FF7202EA802238
:1046E0000A60296809884BF68F7201EA020080F49B
:1046F000805080F4005040F4004141F080012A686D
:10470000118031E17100286830F811000090BDF887
:10471000000000F4004000287CD07100286830F8C8
:104720001100C0F30E0048F68F710840720029682E
:1047300021F8120005F50A7000EB4614A07AA8B91A
:104740002868B0F85010207801EBC000801D29685F
:1047500001F5806131F81000C0F30907EFB3A288BA
:1047600061693B46286802F090F844E021784900EE
:10477000286830F8110000F48040A8B12868B0F82B
:104780005010207801EBC000801C296801F5806181
:1047900031F81000C0F30907DFB1E28861693B46D8
:1047A000286802F072F814E02868B0F850102078F9
:1047B00001EBC000801D296801F5806131F810000F
:1047C000C0F309072FB1228961693B46286802F0CE
:1047D0005CF821784900286800E00CE030F811000E
:1047E00048F68F71084048F2C00108432278520011
:1047F000296821F81200E0693844E06160693844B2
:104800006061A06910B12069B84204D921782846B6
:10481000FDF7F6FC05E021782846D4E90523FDF7ED
:1048200069FDBDF8000000F0800000287CD005F193
:10483000280000EB46147100286830F8110048F693
:104840000F7108407200296821F81200A07AD0B9CF
:104850002868B0F85010207801EBC000801C29684F
:1048600001F5806131F81000C0F30900E061E069F2
:10487000E8B3B4F81CC01FFA8CF3A28861692868F9
:1048800002F01EF84EE021784900286830F8110047
:1048900000F04000D0B12868B0F85010207801EB4B
:1048A000C000801C296801F5806131F81000C0F358
:1048B0000900E061E06928B3B4F81CC01FFA8CF36A
:1048C000E2886169286801F0FBFF1BE02868B0F806
:1048D0005010207801EBC000801D296801F580612F
:1048E00031F81000C0F30900E061E06900E019E070
:1048F00040B1B4F81CC01FFA8CF3228961692868A2
:1049000001F0DEFF21784900286830F8110048F6F0
:104910008F7108404CF280010843227852002968C8
:1049200021F81200286800E01EE0B0F8501020784E
:1049300001EBC000801C296801F5806131F810008E
:10494000C0F30900E061E169606908446061A06941
:1049500020B921782846FDF745FC05E02178284656
:10496000D4E90523FDF724FD2868B0F84400019040
:1049700000F4004000287FF4EAADBDE8FC817047F8
:1049800008B508490968C9084FF47A72B1FBF2F119
:104990004143009100BF00BF00994A1E00920029C8
:1049A000F9D108BD0000002070B505460E4614463A
:1049B0005F48007808B1002070BD032D01D0012DA3
:1049C00074D1E0790A281CDDE0782179884218DD6D
:1049D0005848FEF706FB012D02D15748FEF701FBB0
:1049E000E078401EE0706179E07800F008F9E07846
:1049F00060716179962201FB02F0FDF781F80120D8
:104A0000DAE73088B0F57D4F03DC3088B0F5407FC1
:104A100020DA6079217988421ADD4648FEF7E1FA0A
:104A2000012D02D14448FEF7DCFA61794A1ED0B26A
:104A300000F0E5F86079401E6071E079401CE0719B
:104A40006179962201FB02F0FDF75AF80120B3E7E5
:104A50000020B1E73088B0F5044F25DA3088B0F592
:104A6000F84F21DD6079E17888421BDA3148FEF7A2
:104A7000B8FA012D02D13048FEF7B3FA61794A1C29
:104A8000D0B200F0BCF86079401C6071E079401C45
:104A9000E0716179962201FB02F0FDF731F8012007
:104AA0008AE703E0002087E7002085E7042D03D094
:104AB000022D01D0052D39D1B089B0F57D4F03DC31
:104AC000B089B0F5407F13DA022D02D11A48FEF703
:104AD00088FA1848FEF785FA0121284600F02EF8DA
:104AE0006179962201FB02F0FDF70AF8012063E7E5
:104AF000B089B0F5064F17DAB089B0F5F64F13DD7F
:104B0000022D02D10C48FEF76CFA0A48FEF769FA4A
:104B10000021284600F012F86179962201FB02F08C
:104B2000FCF7EEFF012047E7002045E7002043E7C0
:104B300028090020FC0900203C0A002070B504462A
:104B40000D46012C03D0032C01D0052C0BD12DB91F
:104B5000002208210D48FDF75FFA04E00122082138
:104B60000A48FDF759FA022C01D0042C0CD135B9B2
:104B700000224FF400510548FDF74EFA04E00122EF
:104B800051030248FDF748FA70BD0000000C0140D7
:104B900010B50446012C01D0032C05D100221021B0
:104BA0000648FDF739FA08E0022C01D0042C04D1A4
:104BB000012210210148FDF72FFA10BD000C014021
:104BC00010B50446A07830B1012805D0022806D0DF
:104BD000FF280CD106E00AE001F096FE07E0FCF7A2
:104BE000CDF904E003490448FCF7B2FC00BF00BF64
:104BF00010BD0000FF17070800100708704770B5C8
:104C000005460C46284600F007F89620FCF778FF8A
:104C10002046FCF759F970BD10B504460B2C43D261
:104C2000DFE804F042060C12181E242A30363C003D
:104C3000012211461E48FDF7EFF936E0012202215C
:104C40001B48FDF7E9F930E0012204211848FDF77F
:104C5000E3F92AE0012208211548FDF7DDF924E0F7
:104C6000012210211248FDF7D7F91EE00122202170
:104C70000F48FDF7D1F918E0012211460D48FDF764
:104C8000CBF912E0012202210A48FDF7C5F90CE038
:104C9000012204210748FDF7BFF906E001221103B4
:104CA0000448FDF7B9F900E000BF00BF10BD0000E7
:104CB00000100140000C014010B50446A0781128F6
:104CC00009D12078012811D100202070012120462F
:104CD000FCF7A4F80AE0A078132807D1207828B9B7
:104CE0000120207000212046FCF798F810BD00003C
:104CF00070B50446A088FFF7D9F80B48FEF771F9A4
:104D0000E08842F2107191FBF0F085B22846FFF77F
:104D100083F80648FEF765F94FF47A70FFF726F935
:104D20000348FEF75EF970BD3C0A0020FC09002034
:104D30007C0A002010B50020034909684862024837
:104D4000FEF740F910BD0000FC09002010B5FDF78A
:104D50006FF9FEF78CF810BD10B596B001200C90DD
:104D600000040D9000200E9001201090022013905E
:104D7000C10314914FF4E01115910CA8FDF728FE22
:104D800018B145211AA001F027FE0F20079002203C
:104D90000890002009904FF480600A9000200B904A
:104DA000022107A8FDF7D0FC18B1532110A001F093
:104DB00013FE102001900020069001A8FDF72CFCA6
:104DC00018B15A210AA001F007FEFDF78FFD4FF43C
:104DD0007A71B0FBF1F42046FEF72FF80420FEF7BD
:104DE00017F800221146501EFDF7A9F916B010BDA4
:104DF0002E2E5C447269766572735C557365725FC2
:104E00004472697665725C5372635C686172647740
:104E10006172652E630000001148006840F00100D7
:104E20000F490860084640680E4908400C49486030
:104E3000084600680C4908400949086008460068AF
:104E400020F4802008600846406820F4FE00486096
:104E50004FF41F008860C8030449086070470000D1
:104E6000001002400000FFF8FFFFF6FE08ED00E032
:104E700010B50248FEF76BF910BD0000FC090020D8
:104E800010B50248FEF763F910BD00003C0A00208F
:104E900010B50248FEF75BF910BD00007C0A002047
:104EA000002202681F4B98420ED01F4B98420BD035
:104EB000B0F1804F08D01D4B984205D01C4B984252
:104EC00002D01C4B984203D122F070024B681A4367
:104ED000144B98420ED0144B98420BD0B0F1804F37
:104EE00008D0124B984205D0114B984202D0114B7A
:104EF000984203D122F44072CB681A4322F0800218
:104F00004B691A4302608B68C3620B688362054B6E
:104F1000984202D0044B984201D10B6903630123EC
:104F200043617047002C0140003401400004004000
:104F300000080040000C004030B50C46002181689C
:104F400021F47F4142EA032525432943816030BD96
:104F50000A460021816821F0700142F007031943DD
:104F60008160704730B50B46144600210022026A6A
:104F7000056A25F001050562816921F0F00141EA29
:104F8000041122F00A021A438161026230BD30B579
:104F90000B46144600210022056A25F01005056223
:104FA0008169026A21F4704141EA043122F0A002D1
:104FB00042EA03128161026230BD70B505466C6A37
:104FC0000020E085E0842046FEF71CFA70BD70B535
:104FD00006460025746A20684069C0F3C01594F83D
:104FE0003900212805D125B10020E084204600F0B9
:104FF00082F820684069C0F3801594F83A002228AE
:1050000005D125B10020E085204600F054F8E06B82
:1050100040F01000E0632046FEF7F4F970BD70B573
:1050200005466C6A2868006800F02000B0B90020CE
:10503000E0852068C06820F480702168C86020681E
:10504000406920F00100216848612068406920F033
:10505000400021684861202084F83A002046FEF78D
:1050600011FC70BD70B50446656A2846FEF70BFC5E
:1050700070BD70B505466C6A2868006800F02000B5
:1050800070B90020E0842068406920F08000216829
:1050900048612068C06840F040002168C86002E0B4
:1050A0002046FEF7ABFC70BD70B50446656A284625
:1050B000FEF7A5FC70BD0168C96821F49071026813
:1050C000D1600168496921F0010102685161202124
:1050D00080F83A10704710B504462068C06820F088
:1050E00040002168C860202084F839002046FEF77F
:1050F00085FC002010BD0168C96821F0C00102686C
:10510000D160202180F83910704770B5044694F8BA
:105110003A0022284AD1A068B0F5805F13D1A56A71
:10512000206940B920684068C0F308002880A06A60
:10513000801CA06219E020684068C0B22880A06A84
:10514000401CA06211E0206938B920684068C1B2F3
:10515000A26A501CA062117007E02068406800F04D
:105160007F01A26A501CA0621170E08D401E80B2C7
:10517000E085C8B92068C06820F020002168C860B8
:105180002068C06820F480702168C8602068406989
:1051900020F0010021684861202084F83A00204670
:1051A000FEF770FB002070BD0020FCE70220FAE74C
:1051B0002DE9F041044600252068006920F44050A4
:1051C000E1680843216808612169A06808436169B2
:1051D000084305432068C06841F20C6188432843B6
:1051E0002168C8602068406920F44070A1690843C4
:1051F000216848615F49206888425CD1FDF78CFBDB
:1052000000EBC00101EB001061688900B0FBF1F612
:10521000FDF782FB00EBC00101EB00106168890023
:10522000B0FBF1F06421B0FBF1F000EBC00101EB49
:105230000010A6EB8000322101EB00106421B0FBCE
:10524000F1F000F0F006FDF767FB00EBC00101EBA9
:10525000001061688900B0FBF1F06421B0FBF1F04F
:1052600006EB0016FDF758FB00EBC00101EB001048
:1052700061688900B0FBF1F7FDF74EFB00EBC00160
:1052800001EB001061688900B0FBF1F06421B0FB14
:10529000F1F000EBC00101EB0010A7EB8000322120
:1052A00001EB00106421B0FBF1F000F00F0030447E
:1052B000216888605BE0FDF71FFB00EBC00101EB9C
:1052C000001061688900B0FBF1F6FDF715FB00EBFB
:1052D000C00101EB001061688900B0FBF1F06421AE
:1052E000B0FBF1F000EBC00101EB0010A6EB800079
:1052F000322101EB00106421B0FBF1F000F0F00668
:10530000FDF7FAFA00EBC00101EB001061688900BB
:10531000B0FBF1F06421B0FBF1F006EB0016FDF7F5
:10532000EBFA00EBC00101EB001061688900B0FBF3
:10533000F1F7FDF7E1FA00EBC00101EB0010616845
:105340008900B0FBF1F06421B0FBF1F000EBC0018B
:1053500001EB0010A7EB8000322101EB001064216B
:10536000B0FBF1F000F00F00304421688860BDE828
:10537000F081000000380140014691F839002128F1
:105380002CD18868B0F5805F0FD10A6A1088C0F30D
:1053900008000B685860086918B9086A801C086220
:1053A00009E0086A401C086205E00B6A581C0862A4
:1053B00018780B685860C88C401E80B2C88458B9F1
:1053C0000868C06820F080000B68D8600868C06872
:1053D00040F040000B68D860002070470220FCE7D6
:1053E0002DE9F04104460D4617469846069E21E0F9
:1053F000701CF8B12EB1FCF715FEA0EB0800B0420E
:1054000018D92068C06820F4D0702168C86020686E
:10541000406920F0010021684861202084F83900AB
:1054200084F83A0000BF002084F8380000BF032051
:10543000BDE8F081206800682840A84201D1012021
:1054400000E00020B842D3D00020F1E710B50248B8
:10545000FDF7DAFF10BD0000BC0A002038B50025BA
:1054600000242E4800680068C0F380152B480068AF
:10547000C06800F04004DDB1D4B16FF040002749AE
:1054800009680860254890F83900232804D12220B3
:10549000224981F8390003E02020204981F83900B1
:1054A00001201F490870002201021E48FCF7B4FDCC
:1054B0001A4800680068C0F3001518480068C06802
:1054C00000F010044DB344B300BF00200090134817
:1054D000006800680090114800684068009000BFB4
:1054E00000BF0E480068C06820F020000B49096822
:1054F000C8600A4890F83A00232804D121200749BF
:1055000081F83A0003E02020044981F83A0003487A
:10551000FDF745FF01200449087038BDFC0A002052
:1055200009000020001001400800002010B50248CA
:10553000FDF76AFF10BD00003C0B002070B504466B
:105540000D46D4F8140229464268204690470020B0
:1055500070BD70B504460D4694F8FC01022802D0D7
:10556000032811D100E000BF688801280BD100207A
:10557000C4F80402D4F814022946826820469047F1
:10558000204600F04AF804E02946204600F01BF8C7
:1055900000BF00BF70BD70B506460C4615462B46D1
:1055A00022460021304600F052FA002070BD70B54E
:1055B00006460C4615462B4622460021304600F092
:1055C0003AFB002070BD70B504460D468021204690
:1055D00000F005FB0021204600F001FB70BD10B576
:1055E00004460520C4F8F40100231A461946204653
:1055F00000F02DFA002010BD70B504460E46154689
:105600000220C4F8F401A561E5612B463246002171
:10561000204600F010FB002070BD10B504460420A9
:10562000C4F8F40100231A461946204600F003FB93
:10563000002010BD70B504460D46E888012804D04E
:1056400029462046FFF7BFFF1BE094F8FC01022823
:1056500002D003280FD108E00020A060012204F14D
:1056600008012046FFF7C8FF0AE00122211D20465D
:10567000FFF7C2FF04E029462046FFF7A4FF00BF62
:1056800000BF70BDF8B504460E46708800120828A9
:1056900072D2DFE800F082040C2082826372207CE8
:1056A000D4F810120A686946904705467AE0207CD3
:1056B00040B9D4F81402816A684688470546022139
:1056C000697007E0D4F81402C16A68468847054645
:1056D0000221697066E0B078062834D2DFE800F075
:1056E000030B131B232B207CD4F810124A68694645
:1056F0009047054630E0207CD4F810128A6869464D
:105700009047054628E0207CD4F81012CA68694604
:105710009047054620E0207CD4F810120A696946BB
:105720009047054618E0207CD4F810124A69694673
:105730009047054610E0207CD4F810128A6969462B
:105740009047054608E0B178D4F814026A46836BA6
:1057500020469847054600BF00BF23E0207C30B9B3
:10576000D4F81402416B6846884705461AE0314672
:105770002046FFF728FFF8BD0FE0207C40B9D4F8A1
:105780001402016B6846884705460721697009E0E5
:1057900031462046FFF717FFEDE731462046FFF779
:1057A00012FFE8E700BFBDF8000088B1F08878B1CB
:1057B000F088BDF80010884202DDBDF8000000E06E
:1057C000F0880090BDF8002029462046FFF714FF1E
:1057D00000BFD0E770B504460D4694F8FC010228DE
:1057E00002D0032811D100E000BF0120E060D4F80E
:1057F000040218B1E06840F00200E060022204F107
:105800000C012046FFF7F8FE04E029462046FFF78A
:10581000DAFE00BF00BF70BD2DE9F04104460D4621
:10582000002600272946D4F82002FCF7F7FC06469C
:1058300036B1012E06D0022E06D0032E08D105E087
:10584000002707E0022705E0012703E0022701E027
:10585000022700BF00BF3846BDE8F0812DE9F041C6
:1058600004460E461746002E54D104F11405D4F810
:10587000F401022843D1D5E90201884210D9D5E9C3
:105880000201401AA860288982B239462046FFF7F3
:105890008EFE00231A461946204600F0D8F82EE066
:1058A000E9686868B0FBF1F201FB1200B8B9E96879
:1058B0006868884213D36868D4F8F81188420ED219
:1058C000002211462046FFF772FE0020C4F8F801BE
:1058D00000231A461946204600F0B9F80FE0D4F824
:1058E0001402C06840B194F8FC01032804D1D4F834
:1058F0001402C168204688472046FFF770FE94F8DE
:105900000002012814D1204600F0DAF9002084F8C2
:1059100000020DE0D4F81402406948B194F8FC018B
:10592000032805D1D4F81402314642692046904735
:105930000020BDE8F0812DE9F04105460E461746EE
:105940005EBB05F58274D5F8F401032833D1D4E9A0
:105950000201884210D9D4E90201401AA060D4E9BA
:105960000201884201D2A06800E0E06882B23946B4
:105970002846FFF710FE1EE0D5F81402006940B17A
:1059800095F8FC01032804D1D5F8140201692846D2
:1059900088472846FFF741FE0DE0D5F814028069DC
:1059A00048B195F8FC01032805D1D5F81402314619
:1059B0008269284690470020BDE8F08110B5024674
:1059C000D2F8203201F08000802807D101F07F0456
:1059D00003F1280000EB4410807810BD01F07F0433
:1059E00003F50A7000EB44108078F6E72DE9F047E4
:1059F00004460F4615461E464FF00008C1462B468A
:105A000032463946D4F82002FCF739FC8046B8F11A
:105A1000000F09D0B8F1010F09D0B8F1020F09D079
:105A2000B8F1030F0CD108E04FF000090BE04FF084
:105A3000020908E04FF0010905E04FF0020902E019
:105A40004FF0020900BF00BF4846BDE8F0872DE9CE
:105A5000F04704460D4616461F464FF00008C14663
:105A60003B4632462946D4F82002FCF743FC8046E8
:105A7000B8F1000F09D0B8F1010F09D0B8F1020F49
:105A800009D0B8F1030F0CD108E04FF000090BE08A
:105A90004FF0020908E04FF0010905E04FF002095C
:105AA00002E04FF0020900BF00BF4846BDE8F087A2
:105AB00010B504464023002211462046FFF796FF0A
:105AC00040214FF48870015140230022802120465C
:105AD000FFF78CFF40212162012084F8FC01D4F8FB
