:020000040800F2
:10000000C80F002045010008793700088131000839
:100010004D370008510D0008A35D000800000000E6
:10002000000000000000000000000000AD400008DB
:10003000E10E0008000000002D3F0008F941000813
:100040005F0100085F0100085F0100085F01000810
:100050005F0100085F0100085F0100085F01000800
:100060005F0100085F0100085F0100085F010008F0
:100070005F0100085F0100085F0100085F010008E0
:100080005F0100085F0100085F0100085F010008D0
:10009000115D00085F0100085F0100085F010008B2
:1000A0005F0100085F0100085F0100085F010008B0
:1000B0001D4300082D4300083D4300085F01000870
:1000C0005F0100085F0100085F0100085F01000890
:1000D0005F010008F948000809490008CD490008F7
:1000E0005F0100085F0100085F0100085F01000870
:1000F0005F0100085F0100085F0100085F01000860
:100100005F0100085F0100085F0100085F0100084F
:100110005F0100085F0100085F0100085F0100083F
:100120005F0100085F0100085F0100085F0100082F
:10013000DFF80CD000F0A4FB00480047655E000823
:10014000C80F00200648804706480047FEE7FEE744
:10015000FEE7FEE7FEE7FEE7FEE7FEE7FEE7FEE777
:10016000C542000831010008202A04DB203A21FAA8
:1001700002F00021704721FA02F3D040C2F12002C0
:100180009140084319467047F0B480EA0102D40F49
:100190004200B2EB410F02D20246084611464A0025
:1001A00042D0C30DDDB2C1F3C752AD1A202D35DAEE
:1001B000C1F3160141F4000204B15242C5F1200618
:1001C00002FA06F12A411044B3EBD05F23D0C4B148
:1001D000012DA0EBC35009DCF0BC4FF0004202EA55
:1001E000C352DBB200F5000000F0BFBA400000F1DE
:1001F000807000EBC350A0F1807040EAD1704900DC
:1002000009E0490841EAC071A0EBC35000F50000C5
:10021000400800EBC350F0BC00F09EBA61420122DE
:1002200002EB4101001BF6E7F0BC704781F0004192
:10023000AAE780F00040A7E780EA010210B502F0CB
:100240000043400022D04A001FD0010E01EB126192
:10025000C0F35600C2F3560240F4000042F400021C
:10026000A0FB022000047F39140400D0401C50EA97
:10027000124001D44000491EC2B20C0604EBD0105B
:10028000401C4008802A02D003E0002010BD20F06E
:100290000100002900DA0020184310BD30B480EAC4
:1002A000010202F0004530F0004221F0004013D07E
:1002B00090B1C30DD40DC2F31601C0F31600E41AB9
:1002C00041F4000140F400027D34914201D3641CEA
:1002D00000E04900002C02DA30BC002070474FF4E7
:1002E00000000023914201D3891A034340084FEADA
:1002F0004101F7D151B1914202D14FF0004105E0E7
:1003000002D24FF0010101E06FF0010103EBC45094
:10031000284430BC00F020BA2DE9FE4F804681EA27
:100320000300C00F0C46009021F0004123F000456F
:10033000B8EB0200A94105D24046214690461C4632
:100340000B46024623F00040104347D0270DC7F369
:100350000A00C3F30A510290401A019040286BDA58
:10036000C3F3130040F4801B0098924620B1002391
:10037000D2EB030A63EB0B0B01985946C0F1400224
:10038000504600F0C8F906460D4650465946019AB7
:1003900000F0D0F910EB08006141002487EA115207
:1003A00084EAE7731A4340D0009A62B3019A012AA3
:1003B0004FEA075215DC001B61EB02014FF00042CF
:1003C00002EA0752CDE90042001C41F58011324695
:1003D0002B4600F007FA03B0BDE8F08F40462146F7
:1003E000F9E7001B61EB0201001C41F580130018C6
:1003F0005B412018A2F5001747EB030140EAD570D6
:10040000B6196D4111E06D084FEA360645EAC07530
:100410004FEA0752001B61EB0201001C41F58011FD
:1004200049084FEA30000019514132462B4603B0CB
:10043000BDE8F04F00F0C7B900980122400000234A
:10044000D0EB020263EBE073009821464FEAE074C0
:10045000B8EB000061EB0401E9E783F000435BE7E0
:1004600081F0004158E72DE9FE4F81EA030404F0D2
:10047000004421F0004100944FF0000B23F00043B2
:1004800050EA01045ED052EA03045BD0C3F30A547D
:10049000C1F30A552C44A4F2F3340194A0FB025496
:1004A000C1F3130141F48011C3F3130343F4801328
:1004B00001FB024400FB034E840A970A44EA81547C
:1004C00047EA8357A4FB076802958D0A05FB078559
:1004D0004FEA932C04FB0C542705029D4FEA065863
:1004E00047EA1637B5EB08056EEB070C870E920E40
:1004F00047EA811742EA8312A7FB0201B6EB0B0120
:1005000064EB00042B0D43EA0C335E1844EB1C50E3
:10051000DA465146E7FB0201C5F313044FEA0B33F9
:1005200043EA14534FEA0432019C43EA0603A4F160
:100530000C040294009CCDE900B400F053F903B020
:10054000BDE8F08F00200146F9E72DE9F04D81EA82
:10055000030404F0004B21F0004514464FF0000A5C
:1005600023F0004150EA050220D054EA01021DD0D8
:10057000C5F30A570246C5F31303C1F31300C1F3D1
:100580000A5640F4801543F48013A7EB0608101BAD
:10059000D64608F2FD3873EB050002D308F10108D6
:1005A00001E092185B41B8F1000F03DA0020014628
:1005B000BDE8F08D00204FF48011064684460EE021
:1005C000171B73EB050705D3121B63EB05030643EB
:1005D0004CEA010C49084FEA300092185B4150EA9E
:1005E0000107EDD152EA030012D082EA040083EA47
:1005F0000501084305D0101BAB4106D201220023A0
:1006000006E000224FF0004302E06FF001025310B9
:100610001AEB06004CEB085110EB0A0041EB0B0102
:10062000BDE8F04D00F0CFB8C10F80EAE07008449B
:10063000CA079623002100F098B89623002211469D
:1006400000F093B80EB540F2334102910021CDE99C
:1006500000110A460B4600F0C5F803B000BD20F0BB
:100660000040C10DC0F3160040F400007F2901DAFC
:1006700000207047962903DCC1F19601C8407047FD
:10068000963988407047C1F30A5210B5C1F313017F
:1006900040F2FF3341F480119A4201DA002010BD8C
:1006A00040F233439A42A2F2334203DC5242FFF754
:1006B0005BFD10BD904010BD00F0004230F00040E6
:1006C0000AD0C10D01F56071C0F3160042EA015174
:1006D000C20840071143704700200146704701F0EF
:1006E000004330B421F0004150EA010206D00A0D67
:1006F000A2F56072C1F31301002A02DC30BC0020B5
:100700007047440F44EAC104C100E01830BC00EB5C
:10071000C25000F021B8202A04DB203A00FA02F18E
:10072000002070479140C2F1200320FA03F31943DF
:1007300090407047202A06DBCB17203A41FA02F09E
:1007400043EAE07306E041FA02F3D040C2F120022E
:1007500091400843194670470029A8BF7047401CC4
:10076000490008BF20F00100704710B4B0FA80FCC7
:1007700000FA0CF050EA010404BF10BC704749B104
:10078000CCF1200421FA04F411FA0CF118BF012174
:1007900021430843A3EB0C01CB1D4FEA00614FEA54
:1007A000102042BF002010BC704700EBC350104423
:1007B0000029A4BF10BC7047401C490008BF20F0AE
:1007C000010010BC704710B5141E73F1000408DA64
:1007D000401C41F1000192185B411A4301D120F005
:1007E000010010BD2DE9F04D92469B4611B1B1FAC2
:1007F00081F202E0B0FA80F220329046FFF78BFFE0
:1008000004460F4640EA0A0041EA0B0153465A46A5
:10081000084313D0114653EA010019D0C8F1400231
:100820005046FFF7A1FC05460E4650465946424643
:10083000FFF771FF084305D0012004E02046394648
:10084000BDE8F08D0020054346EAE0762C433743AF
:100850000A986305E40AA0EB08000022FD0A44EAB6
:1008600047540A3002D500200146E9E70105101976
:100870006941DDE9084500196941BDE8F04DA2E78D
:10088000064C074D06E0E06840F0010394E80700DD
:1008900098471034AC42F6D3FFF74EFC6061000875
:1008A0008061000870B5044680260A2005F0B6FA7B
:1008B000A18B0022A06900F079FF0A2005F0AEFAB2
:1008C0000421204600F0BFF8002511E00A2005F0C1
:1008D000A5FAA1890122A06800F068FF0A2005F0AE
:1008E0009DFAA1890022A06800F060FF681CC5B2D3
:1008F000102DEBDB002520E00A2005F08FFAA189FE
:100900000122A06800F052FF06F03C0028B1A18A45
:100910000122206900F04AFF04E0A18A0022206938
:1009200000F044FF76100A2005F078FAA189002231
:10093000A06800F03BFF681CC5B2082DDCDB64201A
:1009400005F06CFAA18B0122A06900F02FFF70BDA9
:100950007CB504460D4601221D49684600F03CF86E
:10096000DDE90001C4E900014FF4807218496846CE
:1009700000F032F8DDE90001C4E906014FF400722D
:100980001449684600F028F8DDE90001C4E90201D5
:1009900002220F49684600F01FF8DDE90001C4E9B2
:1009A0000401A1890122A06800F000FFA18B0122AF
:1009B000A06900F0FBFEA1880122206800F0F6FE8D
:1009C000642005F02BFA2046FFF76CFF7CBD000089
:1009D00000080140001001401CB50091ADF8042052
:1009E000DDE90034C0E900341CBD2DE9F0410446C6
:1009F0000D46082705B90825002620E00A2005F045
:100A00000DFAA1890122A06800F0D0FE07EA0500D6
:100A100028B1A18A0122206900F0C8FE04E0A18A61
:100A20000022206900F0C2FE7F100A2005F0F6F9CE
:100A3000A1890022A06800F0B9FE701CC6B2042E85
:100A4000DCDBBDE8F0812DE9F04104460D460827C6
:100A5000002620E00A2005F0E1F9A1890122A06822
:100A600000F0A4FE07EA050028B1A18A012220694E
:100A700000F09CFE04E0A18A0022206900F096FEAE
:100A80007F100A2005F0CAF9A1890022A06800F0B1
:100A90008DFE701CC6B2042EDCDBBDE8F0812DE9B2
:100AA000F0410446884615464FF400470A2005F0F9
:100AB000B5F9A18B0022A06900F078FE0A2005F0AC
:100AC000ADF901212046FFF7BEFF41462046FFF762
:100AD0008CFF002620E00A2005F0A0F9A189012260
:100AE000A06800F063FE07EA050028B1A18A012290
:100AF000206900F05BFE04E0A18A0022206900F07A
:100B000055FE7F100A2005F089F9A1890022A0680E
:100B100000F04CFE701CC6B2102EDCDB0A2005F083
:100B20007DF9A18B0122A06900F040FEBDE8F081B3
:100B30007CB504460D469DBB4FF480423249684661
:100B400000F068F8DDE90001C4E9000140222F4906
:100B5000684600F05FF8DDE90001C4E904014FF4E4
:100B600000422949684600F055F8DDE90001C4E972
:100B7000020180222549684600F04CF8DDE90001B9
:100B8000C4E90601642005F049F9002280211F48CC
:100B900000F00CFE012291031B4800F007FE31E03B
:100BA000FFE710221A49684600F034F8DDE9000139
:100BB000C4E9000140221649684600F02BF8DDE93F
:100BC0000001C4E9040120221149684600F022F81E
:100BD000DDE90001C4E9020180220D49684600F008
:100BE00019F8DDE90001C4E90601642005F016F9F1
:100BF00000228021064800F0D9FD0122102104487E
:100C000000F0D4FD7CBD0000000C0140001001404C
:100C1000000801401CB50091ADF80420DDE9003466
:100C2000C0E900341CBD70B504460025A18B01222B
:100C3000A06900F0BBFD022005F0F0F8A18B0022B6
:100C4000A06900F0B3FD012005F0E8F8002616E0E9
:100C5000A1890122A06800F0A9FDA18A206900F005
:100C60009DFD0543A1890022A06800F09FFD0F2E85
:100C700003DA4FF6FF7000EA4505701CC6B2102E6D
:100C8000E6DB284670BD000010B50446012C0AD1F1
:100C900001220102134800F089FD0022A10212483E
:100CA00000F084FD0CE05CB900224FF480710D4827
:100CB00000F07CFD00224FF480610B4800F076FDCF
:100CC0000A2005F0ABF800228021064800F06EFDF6
:100CD0000A2005F0A3F801228021024800F066FDF9
:100CE00010BD0000000C01400010014010B504468A
:100CF000012C0AD10122C103134800F057FD002244
:100D0000E102124800F052FD0CE05CB900224FF401
:100D100000410D4800F04AFD00224FF400610B48ED
:100D200000F044FD0A2005F079F800224FF400514C
:100D3000064800F03BFD0A2005F070F8012251033F
:100D4000024800F033FD10BD0008014000100140D2
:100D500000BFFEE770B505460C46012C06D10848D9
:100D600001F008FD074801F005FD08E0064801F024
:100D700010FD044801F00DFD014801F00AFD70BDB1
:100D8000DC0900205C0900209C09002010B500222D
:100D90000121194800F00AFD00220221164800F046
:100DA00005FD00220421144800F000FD0022082166
:100DB000114800F0FBFC002210210F4800F0F6FC67
:100DC000002220210C4800F0F1FC002201210B48F8
:100DD00000F0ECFC00220221084800F0E7FC0022B1
:100DE0000421064800F0E2FC00224FF48051034841
:100DF00000F0DCFC10BD000000100140000C0140C0
:100E000010B504460B2C44D2DFE804F043060C1264
:100E1000181E242A30363C00002201211E4800F012
:100E2000C5FC37E0002202211B4800F0BFFC31E086
:100E300000220421184800F0B9FC2BE00022082110
:100E4000154800F0B3FC25E000221021124800F004
:100E5000ADFC1FE0002220210F4800F0A7FC19E0A4
:100E6000002201210D4800F0A1FC13E00022022124
:100E70000A4800F09BFC0DE000220421074800F026
:100E800095FC07E000224FF48051044800F08EFCEE
:100E900000E000BF00BF10BD00100140000C014089
:100EA00010B501222021024800F080FC10BD000096
:100EB000000C014030B590F840500124AC40C56BA7
:100EC0006C60046863604468102C04D10468A260FC
:100ED0000468E16003E00468A1600468E26030BD7A
:100EE0007047000010B50446042001F069FB01487A
:100EF000047010BD1400002010B50022202102480B
:100F000000F054FC10BD0000000C01402DE9F04F32
:100F100089B082460C469146A069401CA061218898
:100F2000606808446060A189206908442061BAF8BB
:100F30001810A06988427DD3414801F02AFCA069BD
:100F4000FFF77BFB05466068FFF777FB06462946FF
:100F5000FFF7A4F9A060A069FFF76FFB05462069C1
:100F6000FFF76BFB06462946FFF798F9606199F891
:100F70000500401EC1B2334802F0EAFB0746FFF706
:100F80009BFBCDE90601A068FFF796FB0746002210
:100F90002D4BFFF768FA00222C4BCDE90001FFF73B
:100FA000D4FA00222A4BCDE90201FFF756FACDE927
:100FB0000401DDE90623FFF7C8FA0546FFF78FFBBA
:100FC000A06099F80800012804D12249A068FFF721
:100FD00065F9A06099F80900012804D11D49A068AD
:100FE000FFF72AF9A0601C496069FFF757F98346AB
:100FF000FFF762FB07460022134BFFF734FA054662
:10100000FFF76DFB60616069FFF756FB0746002242
:101010000F4BFFF722FA0546FFF761FB606199F875
:101020000800012804D10B49A068FFF705F9A0606A
:10103000002000E002E009B0BDE8F08F0120F8E7F1
:101040005C0900200000204100000440E0FFEF4068
:101050000000F43F0000304100FF7F4710B5074813
:1010600001F097FB064801F094FB01200549087048
:10107000054A002102F0A6FC10BD00009C090020DA
:101080005C090020440000200009002070B50546DE
:101090000C46207810B90A20607101E02078607158
:1010A0006078E070A078207100206072207268780B
:1010B00002F0E4FFFFF76AFE607903F005F8A0791B
:1010C00010B1FFF7EDFE01E0FFF716FF70BD10B5A0
:1010D0000378012B5AD193784370D37C947C43EAF4
:1010E00004238380D37D947D43EA0423C380537E0D
:1010F000147E43EA04230383537C147C43EA0423D1
:101100004383438B642493FBF4F34383D37A947A2D
:1011100043EA04231BB2C381537B147B43EA0423B9
:101120001BB203825379147943EA04231BB203816F
:10113000D379947943EA04231BB24381537A147A16
:1011400043EA04231BB28382D37B947B43EA0423C8
:101150001BB2C382038B4FF47A746343C48893FB3E
:10116000F4F38488E31A0A3B1BB28383B0F91C3082
:10117000002B01DA00238383C3894382038983819F
:10118000937E0B70D37E4B70137F8B7010BD014626
:1011900000200A68126822F00E020B681A600A68C2
:1011A000126822F001020B681A6091F840300122A7
:1011B0009A40CB6B5A60012281F8212000BF0022A7
:1011C00081F8202000BF704770B50446002594F8D0
:1011D0002100022803D00420A0630125C1E020687B
:1011E000006820F00E00216808602068006820F088
:1011F0000100216808605C492068884252D95A4938
:1012000078392068884201D1012047E05649643985
:101210002068884201D1102040E0534950392068AD
:10122000884201D1801539E04F493C392068884215
:1012300001D1801432E04C4928392068884202D11B
:101240004FF480302AE0484914392068884202D19E
:101250004FF4801022E044492068884201D14004C4
:101260001CE042492068884201D1012016E03F4934
:1012700014312068884201D110200FE03B49283109
:101280002068884201D1801508E038493C31206847
:10129000884201D1801401E04FF480303349091FA6
:1012A000086051E0304978392068884201D1012036
:1012B00047E02D4964392068884201D1102040E080
:1012C000294950392068884201D1801539E02649E2
:1012D0003C392068884201D1801432E02249283903
:1012E0002068884202D14FF480302AE01E49143928
:1012F0002068884202D14FF4801022E01A49206809
:10130000884201D140041CE018492068884201D17C
:10131000012016E0154914312068884201D11020BF
:101320000FE0124928312068884201D1801508E079
:101330000E493C312068884201D1801401E04FF40D
:101340008030094980394860012084F8210000BFBD
:10135000002084F8200000BF606B10B12046616B54
:101360008847284670BD0000800002400804024003
:101370000146002209B901207047204B08689842B5
:101380000BD21F4B0868C01A1423B0FBF3F0800087
:1013900008641B480838C8630AE0184B0868C01A7C
:1013A0001423B0FBF3F08000086414480838C863C5
:1013B000022081F821000868026843F6F070824339
:1013C000D1E901031843CB6818430B6918434B69F3
:1013D00018438B691843CB691843024308680260BD
:1013E00000208862C862086348638863012081F82E
:1013F0002100002081F8200000BFBDE70804024062
:10140000080002402DE9F04104460D4616461F46ED
:101410004FF000082068006820F001002168086093
:101420003B46324629462046FFF744FD20680068C7
:1014300040F00100216808604046BDE8F08131B508
:1014400000F0BAF90546009C601C00B1641C00BFA6
:1014500000F0B2F9401BA042FAD338BD2DE9F8479D
:1014600002460024002000258446002700237BE15B
:101470004FF0010808FA03F4D1F8008008EA0400EC
:10148000A0427DD1DFF8ECA2D1F80480A8EB0A09D4
:10149000D0453AD014DCB8F1030F50D009DCB8F1D4
:1014A000000F31D0B8F1010F1CD0B8F1020F49D1B3
:1014B00020E0B8F1110F18D0B8F1120F42D11EE0A0
:1014C000B9F5881F25D006DCB9F5803F20D0B9F5E5
:1014D000801F37D11AE0B9F5001F18D0B9F5041FE5
:1014E00030D117E0D1F80CC02DE0D1F80C8008F114
:1014F000040C28E0D1F80C8008F1080C23E0D1F8A6
:101500000C8008F10C0C1EE000BF00BF00BF00BF44
:1015100000BF00BFD1F80880B8F1000F02D14FF032
:10152000040C0BE0D1F80880B8F1010F03D14FF0A3
:10153000080C146102E04FF0080C546103E04FF016
:10154000000C00E000BF00BFFF2801D8904601E07A
:1015500002F104084646FF2802D84FEA830803E058
:10156000A3F108084FEA88084746D6F800804FF0F4
:101570000F0909FA07F928EA09080CFA07F900E047
:101580007AE048EA0908C6F80080D1F8048008F03B
:101590008058B8F1805F6FD100BFDFF8DC81D8F8E8
:1015A000188048F00108DFF8D091C9F81880C846C3
:1015B000D8F8188008F00108CDF8008000BF00BFFF
:1015C0004FEAB9384FEA930958F829504FEA83781F
:1015D0004FEA18794FF00F0808FA09F825EA0805CC
:1015E000DFF89881424502D14FF0000824E0DFF88F
:1015F0009081424502D14FF001081DE0DFF884815F
:10160000424502D14FF0020816E0DFF87C814245E6
:1016100002D14FF003080FE0DFF87081424502D19C
:101620004FF0040808E0DFF86881424502D14FF02E
:10163000050801E04FF006084FEA83794FEA19796F
:1016400008FA09F848EA0505DFF848814FEA9309E6
:1016500048F82950D1F8048008F48038B8F5803F64
:101660000BD1DFF83481D8F8008048EA0008DFF8B1
:101670002891C9F800800AE075E0DFF81C81D8F8ED
:10168000008028EA0008DFF81091C9F80080D1F83E
:10169000048008F40038B8F5003F0ED1DFF8F88078
:1016A00008F10408D8F8008048EA0008DFF8E8905C
:1016B00009F10409C9F800800DE0DFF8DC8008F1C9
:1016C0000408D8F8008028EA0008DFF8CC9009F177
:1016D0000409C9F80080D1F8048008F48018B8F52E
:1016E000801F0ED1DFF8B08008F10808D8F800801C
:1016F00048EA0008DFF8A09009F10809C9F800805D
:101700000DE0DFF8948008F10808D8F8008028EA96
:101710000008DFF8849009F10809C9F80080D1F8C1
:10172000048008F40018B8F5001F0ED1DFF86880B7
:1017300008F10C08D8F8008048EA0008DFF8589053
:1017400009F10C09C9F800800DE0DFF84C8008F1C0
:101750000C08D8F8008028EA0008DFF83C9009F16E
:101760000C09C9F800805B1C102BFFF481AEBDE8AA
:10177000F88700000000111000100240000801402E
:10178000000C01400010014000140140001801400D
:10179000001C01400800014000040140024693681B
:1017A0000B400BB1012000E0002070470AB101613D
:1017B00001E00B04036170470148006870470000B6
:1017C0001000002002480068401C01490860704772
:1017D0001000002010B50848006840F010000649CD
:1017E0000860032000F0C2F8002000F007F800F0C5
:1017F00019F8002010BD00000020024070B504461A
:10180000074800684FF47A71B0FBF1F5284600F004
:10181000ECFE00222146501E00F069F8002070BD49
:101820000000002008B500BF2148806940F0010099
:101830001F4988610846806900F00100009000BFE0
:1018400000BF032000F092F8002211466FF00B0059
:1018500000F04DF8002211466FF00A0000F047F842
:10186000002211466FF0090000F041F800221146F5
:10187000501F00F03CF800221146101F00F037F80E
:1018800000221146901E00F032F800221146501E30
:1018900000F02DF800BF0748406820F0E0600549DF
:1018A00048600846406840F00070486000BF08BDCE
:1018B000001002400000014000BF00F01F020121A3
:1018C0009140034A430942F8231000BF70470000CB
:1018D00080E100E000BF00F01F02012191404209B9
:1018E000920002F1E022C2F8001100BF70472DE91A
:1018F000F05F80460D461646002701F03FFF074681
:1019000039462A46334601F00700C0F1070ABAF10A
:10191000040F02D94FF0040A01E0C0F1070AD146D2
:1019200000F1040ABAF1070F02D24FF0000A01E0F9
:10193000A0F1030AD4464FF0010A0AFA09FAAAF103
:10194000010A0AEA020A0AFA0CFA4FF0010B0BFA32
:101950000CFBABF1010B0BEA030B4AEA0B0421462B
:10196000404601F013FFBDE8F09F000000BF00F00B
:101970000702064B19684FF6FF031940044B0B434F
:1019800043EA0221014B196000BF70470CED00E0F3
:101990000000FA0570B504460D4604F1280101EB7C
:1019A00045114A692946D4F85C0403F0A7F970BDD3
:1019B00070B504460D4604F50A7101EB45114A69FC
:1019C0002946D4F85C0403F006FA70BD70B50446ED
:1019D0000D46002605F08000802806D105F07F0125
:1019E00004F1280000EB411603E004F50A7000EB57
:1019F00045160020B07005F07F003070C5F3C010B0
:101A0000707000BF94F82804012801D1022070BD35
:101A1000012084F8280400BF3146206803F041FF0C
:101A200000BF002084F8280400BF00BFEFE72DE9C5
:101A3000F04704460D46174698464FF00009002629
:101A400005F08000802806D105F07F0104F1280010
:101A500000EB411605E005F07F0104F50A7000EB8C
:101A6000411605F07F00307005F08000C0097070ED
:101A7000376186F8038000BF94F82804012802D15A
:101A80000220BDE8F087012084F8280400BF314619
:101A9000206803F02EFD00BF002084F8280400BF5A
:101AA0004846EEE72DE9F04105460E4617469846B2
:101AB000002406F07F0105F50A7000EB4114676110
:101AC000C4F818800020E061607006F07F0020708C
:101AD00006F07F0020B92146286803F07FFF03E06D
:101AE0002146286803F07AFF0020BDE8F08170B538
:101AF00004460D46002605F08000802806D105F03A
:101B00007F0104F1280000EB411603E004F50A70A0
:101B100000EB45160120B07005F07F003070C5F372
:101B2000C010707000BF94F82804012801D1022071
:101B300070BD012084F8280400BF3146206803F0FE
:101B40000AFF05F07F0020B904F22C41206803F061
:101B5000A5FE00BF002084F8280400BF00BFE7E70F
:101B60002DE9F04105460E4617469846002406F03A
:101B70007F0105F1280000EB41146761C4F818806B
:101B80000020E0610120607006F07F00207006F008
:101B90007F0020B92146286803F020FF03E021469A
:101BA000286803F01BFF0020BDE8F08110B5044653
:101BB000206804F0B5F800F40040B0F5004F02D101
:101BC000204601F091FF206804F0AAF800F480603C
:101BD000B0F5806F0ED12068B0F8440020F480602A
:101BE0002168A1F84400204600F094F80021204626
:101BF00000F0B3F8206804F093F800F48040B0F5EA
:101C0000804F07D12068B0F8440020F4804021685C
:101C1000A1F84400206804F083F800F40050B0F507
:101C2000005F07D12068B0F8440020F4005021681C
:101C3000A1F84400206804F073F800F48050B0F577
:101C4000805F1AD12068B0F8400020F004002168BD
:101C5000A1F840002068B0F8400020F0080021689A
:101C6000A1F84000204600F06AF82068B0F844006F
:101C700020F480502168A1F84400206804F050F856
:101C800000F40060B0F5006F20D12068B0F840008B
:101C900040F008002168A1F840002068B0F8440036
:101CA00020F400602168A1F844002068B0F84000EA
:101CB00040F004002168A1F84000206804F030F8EA
:101CC000C0F3003010B9204600F06CF8206804F032
:101CD00027F800F40070B0F5007F0AD12068B0F852
:101CE000440020F400702168A1F84400204600F070
:101CF0002DF8206804F014F800F48070B0F5807FAF
:101D000007D12068B0F8440020F480702168A1F861
:101D1000440010BD70B504460125A068022801D119
:101D200000BF01E0012500BF00BF2946D4F85C04D4
:101D300003F048F9D4F85C0403F00AF970BD10B55B
:101D40000446D4F85C0403F025F910BD10B5044630
:101D5000D4F85C0403F025F910BD70B504460D46B7
:101D600000BF94F82804012801D1022070BD012091
:101D700084F8280400BF84F824502946206803F022
:101D8000E8FF00BF002084F8280400BF00BFEDE793
:101D900010B5044604F22C41D4F85C0403F038F981
:101DA00010BD000010B50446D4F85C0403F089F9B6
:101DB000A06928B10348006840F0060001490860A6
:101DC00010BD000010ED00E0F8B504460026002527
:101DD000207800F0010000286BD000274348C0693C
:101DE00000F0805070B900BF4048C06940F080509A
:101DF0003E49C8610846C06900F08050009000BFAD
:101E000000BF01273A48006800F48070B0B9384834
:101E1000006840F4807036490860FFF7CDFC064644
:101E200006E0FFF7C9FC801B642801D90320F8BD38
:101E30002F48006800F480700028F2D02B48006A18
:101E400000F440752DB3A08800F44070A84220D063
:101E50002648006A20F440750120264908600020C9
:101E600008602248056205F0010090B1FFF7A4FC6C
:101E7000064608E0FFF7A0FC801B41F2883188424B
:101E800001D90320D3E71948006A00F002000028B6
:101E9000F0D01648006A20F4407061680843134986
:101EA0000862012F04D10846C06920F08050C86143
:101EB00000BF207800F00200022807D10B484068DC
:101EC00020F44040A168084308494860207800F0A9
:101ED0001000102807D10548406820F4800061698F
:101EE0000843024948600020A1E7000000100240BA
:101EF000007000404004424270B504460D46002682
:101F00006248006800F00700A8420ED25F480068EF
:101F100020F0070028435D4908600846006800F08B
:101F20000700A84201D0012070BD207800F0020017
:101F3000022807D15648406820F0F000A168084305
:101F400053494860207800F0010000285DD06068A7
:101F5000012806D14E48006800F4003090B90120F5
:101F6000E2E76068022806D14948006800F0007086
:101F700040B90120D8E74648006800F0020008B9DF
:101F80000120D1E74248406820F00300616808431F
:101F90003F494860FFF710FC06466068012810D1F1
:101FA00008E0FFF709FC801B41F28831884201D923
:101FB0000320B9E73648406800F00C000428F0D14F
:101FC00023E06068022810D108E0FFF7F5FB801BD2
:101FD00041F28831884201D90320A5E72C484068A6
:101FE00000F00C000828F0D10FE008E0FFF7E4FB58
:101FF000801B41F28831884201D9032094E72448AC
:10200000406800F00C000028F0D12048006800F083
:102010000700A8420ED91D48006820F00700284399
:102020001A4908600846006800F00700A84201D07D
:10203000012079E7207800F00400042807D1144833
:10204000406820F4E060E168084311494860207866
:1020500000F00800082808D10D48406820F46050BE
:10206000216940EAC1000A49486000F03DF808498A
:102070004968C1F30311074A515CC840064908602A
:102080000020FFF7BBFB00204EE7000000200240CD
:10209000001002404861000800000020014800686C
:1020A000704700000000002000B5FFF7F7FF04496B
:1020B0004968C1F30221034A515CC84000BD0000D9
:1020C000001002405861000800B5FFF7E7FF04491F
:1020D0004968C1F3C221034A515CC84000BD0000F9
:1020E0000010024058610008F0B585B00FF2700C86
:1020F0009CE8E01001A8A0E8E0101DA52D6800955F
:10210000002100240022002300201A4D696801F0FC
:102110000C05FDB1042D02D0082D1AD101E016489E
:102120001AE001ADC1F38346AB5D01F480355DB1CA
:10213000104D6D68C5F340451DF805400E4DB5FBCB
:10214000F4F505FB03F202E00C4D03FB05F210462B
:1021500002E000BF084800BF00BF05B0F0BD0000AE
:1021600002030405060708090A0B0C0D0E0F1010D8
:10217000010200000010024000127A0000093D0038
:10218000F8B504460025207800F00100002878D03A
:10219000F848406800F00C0004280CD0F54840686E
:1021A00000F00C00082811D1F248406800F480309B
:1021B000B0F5803F0AD1EF48006800F400300028F5
:1021C0005FD0606800285CD10120F8BD00BF606866
:1021D000B0F5803F06D1E748006840F48030E5491B
:1021E000086028E0606858B9E248006820F4803050
:1021F000E04908600846006820F4802008601AE082
:102200006068B0F5A02F0BD1DA48006840F4802058
:10221000D84908600846006840F4803008600AE049
:10222000D448006820F48030D2490860084600682D
:1022300020F48020086000BF606888B1FFF7BCFA16
:10224000054606E0FFF7B8FA401B642801D90320D1
:10225000BBE7C848006800F400300028F2D010E066
:10226000FFF7AAFA054606E0FFF7A6FA401B642826
:1022700001D90320A9E7BF48006800F40030002816
:10228000F2D1207800F00200022857D1B948406806
:1022900000F00C0050B1B748406800F00C0008286E
:1022A00018D1B448406800F4803098B9B14800684B
:1022B00000F0020020B12069012801D0012084E74C
:1022C000AC48006820F0F800616940EAC100A94903
:1022D000086033E02069E8B10120A7490860FFF7F2
:1022E0006BFA054606E0FFF767FA401B022801D9A2
:1022F00003206AE79F48006800F002000028F2D03F
:102300009C48006820F0F800616940EAC1009949E2
:10231000086013E0002098490860FFF74DFA054671
:1023200006E0FFF749FA401B022801D903204CE7D9
:102330009048006800F002000028F2D1207800F0F8
:10234000080008282DD1A069B8B101208B49086088
:10235000FFF732FA054606E0FFF72EFA401B022887
:1023600001D9032031E78348406A00F002000028C9
:10237000F2D0012001F0DCFD13E000207F4908606D
:10238000FFF71AFA054606E0FFF716FA401B022887
:1023900001D9032019E77748406A00F002000028BD
:1023A000F2D1207800F00400042873D1002671488F
:1023B000C06900F0805070B900BF6E48C06940F03D
:1023C00080506C49C8610846C06900F08050009098
:1023D00000BF00BF01266A48006800F48070B0B9F1
:1023E0006748006840F4807065490860FFF7E4F9C9
:1023F000054606E0FFF7E0F9401B642801D90320F9
:10240000E3E65F48006800F480700028F2D000BF67
:10241000E068012806D15748006A40F0010055499C
:10242000086227E0E06858B95248006A20F00100CD
:10243000504908620846006A20F00400086219E06A
:10244000E06805280BD14B48006A40F00400494978
:1024500008620846006A40F0010008620AE0454848
:10246000006A20F00100434908620846006A20F033
:102470000400086200BFE068A0B1FFF79DF90546BF
:1024800009E0FFF799F9401B41F28831884202D9EF
:1024900003209AE622E03748006A00F00200002894
:1024A000EFD012E0FFF788F9054608E0FFF784F95E
:1024B000401B41F28831884201D9032085E62D482E
:1024C000006A00F002000028F0D1012E05D1294851
:1024D000C06920F080502749C86100BFE069C8B3D7
:1024E0002448406800F00C00082860D0E069022809
:1024F00048D1002020490866FFF75EF9054606E04E
:10250000FFF75AF9401B022801D903205DE619485C
:10251000006800F000700028F2D1206AB0F5803F1A
:1025200007D11448406820F40030A16808431149DD
:102530004860D4E9080108430E49496821F4741140
:1025400008430C49486001200B490866FFF734F93D
:10255000054607E02DE0FFF72FF9401B022801D9BF
:10256000032032E60348006800F000700028F2D033
:102570001FE000000010024000004242800442427E
:102580000070004000200C490866FFF715F9054669
:1025900006E0FFF711F9401B022801D9032014E6D9
:1025A0000648006800F000700028F2D101E0012028
:1025B0000BE6002009E60000000042420010024045
:1025C000042808D14FF0E021096941F004014FF0DF
:1025D000E022116107E04FF0E021096921F00401D8
:1025E0004FF0E02211617047704770B504462546F0
:1025F000681EB0F1807F01D301200FE0681E4FF00C
:10260000E02148610F214FF0FF3001F0BFF80020BA
:102610004FF0E021886107200861002070BD10B5EF
:10262000FFF7E2FF10BD70477047024600BF92F807
:102630003C00012801D102207047012082F83C00B3
:1026400000BF022082F83D001068406820F0700052
:1026500013685860106840680B6818431368586026
:102660001068806820F080001368986010688068A7
:102670004B68184313689860012082F83D0000BF42
:10268000002082F83C0000BF00BFD5E710B504462B
:102690000CB9012010BD94F83D0028B9002084F841
:1026A0003C00204600F00CF8022084F83D00211D7B
:1026B000206801F04BFE012084F83D000020E9E78E
:1026C00038B504462068B0F1804F16D100BF2648C7
:1026D000C06940F001002449C8610846C06900F0A3
:1026E0000100009000BF00BF002201211C20FFF765
:1026F000FEF81C20FFF7EEF834E01C492068884201
:1027000016D100BF1848C06940F002001649C861E0
:102710000846C06900F00200009000BF00BF002220
:1027200011461D20FFF7E3F81D20FFF7D3F819E04D
:102730000F492068884215D100BF0B48C06940F09E
:1027400004000949C8610846C06900F0040000900F
:1027500000BF00BF002205211E20FFF7C8F81E2081
:10276000FFF7B8F838BD0000001002400004004038
:102770000008004001460868C06840F001000A688F
:10278000D0600868006840F001000A68106000200E
:10279000704701460868C06820F001000A68D060F0
:1027A00000BF0868006A41F21112104050B9086871
:1027B000006A9210104028B90868006820F00100F3
:1027C0000A68106000BF002070472DE9F041044600
:1027D0000D46002600BF94F83C00012802D10220DB
:1027E000BDE8F081012084F83C0000BF022084F89D
:1027F0003D002068866826F0770626F47F4620682C
:102800008660286850283BD00CDC202860D004DC8F
:10281000002853D0102865D155E030285DD04028DD
:1028200060D141E0602835D070280DD0B0F5805FD0
:1028300003D0B0F5005F55D115E02068806820F026
:102840000700216888604EE0D5E902136A682068B5
:1028500001F0C8FD2068866826F0770646F0770606
:10286000206886603FE0D5E902136A68206801F0BD
:10287000B9FD2068806840F480402168886032E0BB
:10288000EA686968206801F0C3FD5021206801F002
:10289000B5FD28E0EA686968206801F0CEFD602196
:1028A000206801F0ABFD1EE0EA686968206801F06D
:1028B000AFFD4021206801F0A1FD14E00021206857
:1028C00001F09CFD0FE01021206801F097FD0AE067
:1028D0002021206801F092FD05E03021206801F000
:1028E0008DFD00E000BF00BF012084F83D0000BF67
:1028F000002084F83C0000BF00BF71E7704710B5AE
:10290000044620680069C0F34000D8B12068C06860
:10291000C0F34000B0B16FF00200216808610120EF
:1029200020772068806900F0030018B12046FFF787
:10293000E5FF05E0204600F0ADF8204600F0ABF8DA
:102940000020207720680069C0F38000D8B120689B
:10295000C068C0F38000B0B16FF004002168086166
:10296000022020772068806900F4407018B120466A
:10297000FFF7C4FF05E0204600F08CF8204600F089
:102980008AF80020207720680069C0F3C000D8B121
:102990002068C068C0F3C000B0B16FF008002168C3
:1029A0000861042020772068C06900F0030018B196
:1029B0002046FFF7A3FF05E0204600F06BF8204615
:1029C00000F069F80020207720680069C0F300104B
:1029D000D8B12068C068C0F30010B0B16FF010002B
:1029E00021680861082020772068C06900F44070E1
:1029F00018B12046FFF782FF05E0204600F04AF8B4
:102A0000204600F048F8002020772068006900F098
:102A1000010058B12068C06800F0010030B16FF0CB
:102A2000010021680861204600F036F8206800693E
:102A3000C0F3C01058B12068C068C0F3C01030B1F6
:102A40006FF08000216808612046FFF7ECFD2068E8
:102A50000069C0F3801058B12068C068C0F38010CE
:102A600030B16FF0400021680861204600F064F842
:102A700020680069C0F3401058B12068C068C0F3F6
:102A8000401030B16FF02000216808612046FFF748
:102A9000CBFD10BD7047704710B504461E49206835
:102AA0000968884208D11D48FEF7BDF81C49088016
:102AB00000201C4908702DE01B49206809688842E5
:102AC00002D101F087FB25E0184920680968884297
:102AD00020D117480088401C00B2154908801548CD
:102AE000408BB1F90010884214DC1048FFF751FE0A
:102AF0000948FFF74EFE01200A490870084800F017
:102B00002DFC4FF0FF300A4908800748FFF732FEDE
:102B100001F060FB10BD00005C090020840B002068
:102B200064000020070000209C090020DC09002030
:102B30000A00002044000020704770B504460025BC
:102B400020684069C0F3C01594F8390021280ED1DF
:102B50006DB12068406920F0800021684861206BD9
:102B600010B1206BFEF713FB204601F01AFD206820
:102B70004069C0F3801594F83A0022280ED16DB157
:102B80002068406920F0400021684861606B10B106
:102B9000606BFEF7FCFA204601F0E3FC002070BDFC
:102BA000704700002DE9F04704462068056820685A
:102BB000C668206847694FF00008C14605F00F0855
:102BC000B8F1000F0AD105F0200038B106F020005E
:102BD00020B1204601F0EFFCBDE8F087B8F1000F0E
:102BE0006DD007F0010018B906F49070002866D087
:102BF00005F0010030B106F4807018B1E06B40F0D0
:102C00000100E06305F0040030B107F0010018B1E5
:102C1000E06B40F00200E06305F0020030B107F025
:102C2000010018B1E06B40F00400E06305F008001B
:102C300030B107F0010018B1E06B40F00800E0632C
:102C4000E06B68B305F0200028B106F0200010B159
:102C5000204601F0B0FC20684069C0F38019E06BA9
:102C600000F0080010B9B9F1000F22D0204601F0A1
:102C700078FC2068406900F04000B0B120684069ED
:102C800020F0400021684861606B50B11748616BCB
:102C90004863606BFEF798FA10B1606B416B884730
:102CA0000CE02046FFF77CFF08E02046FFF778FFA6
:102CB00004E02046FFF774FF0020E0638CE705F096
:102CC000800030B106F0800018B1204601F0AAFD66
:102CD00082E705F0400030B106F0400018B1204610
:102CE00001F04FFC78E700BF76E70000674400087A
:102CF00010B504460CB9012010BDA06900B100E078
:102D000000BF94F8390028B9002084F83800204624
:102D100000F028F8242084F839002068C06820F4E6
:102D200000502168C860204601F098FC20680069C6
:102D300020F49040216808612068406920F02A0052
:102D4000216848612068C06840F400502168C8606C
:102D50000020E063202084F8390084F83A00002045
:102D6000CAE7000010B586B004466C492068884266
:102D70002AD100BF6A48806940F480406849886170
:102D80000846806900F48040019000BF00BF4815EC
:102D90000290022003900320059002A96148FEF7EB
:102DA0005DFB4FF48060029000200390049002A924
:102DB0005C48FEF753FB002205212520FEF797FD16
:102DC0002520FEF787FDA6E057492068884274D188
:102DD00000BF5348C06940F400305149C8610846FB
:102DE000C06900F40030019000BF00BF04200290D1
:102DF000022003900320059002A94A48FEF72EFB0B
:102E00000820029000200390049002A94548FEF794
:102E100025FB464846490860102048600021444888
:102E200081608021C16000210161416181614FF4B5
:102E30004051C1610068006820F004003C49096805
:102E400008603B48FEF794FA18B1F52139A002F06A
:102E5000AAFF00BF36482063446200BF33481438DD
:102E60003B4908600020486000213948816080218A
:102E7000C1600021016141618161C1610068006838
:102E800020F004003249096808603148FEF770FA02
:102E900020B14FF4837127A002F085FF00BF2C48BA
:102EA0006063446200BF002204212620FEF71FFD5C
:102EB0002620FEF70FFD2EE0FFE726492068884216
:102EC00029D100BF1648C06940F480201449C86168
:102ED0000846C06900F48020019000BF00BF0815BB
:102EE0000290022003900320059002A91A48FEF7E1
:102EF000B5FA4FF40060029000200390049002A9FC
:102F00001548FEF7ABFA002204212720FEF7EFFC5C
:102F10002720FEF7DFFC06B010BD0000003801409E
:102F200000100240000801400044004080000240C0
:102F3000200B00202E2E2F5372632F73746D3332AB
:102F4000663178785F68616C5F6D73702E63000026
:102F5000DC0A002000480040000C0140F7B50446A0
:102F6000154694F83A00202844D1019800B10DB9D3
:102F70000120FEBD00BF94F83800012801D10220D5
:102F8000F7E7012084F8380000BF0198A062A5850A
:102F90000020E063222084F83A001748616B8862C1
:102FA0001648616BC8621648616B08630020616B4C
:102FB000486301AE32682368191D2B46606BFEF72B
:102FC00021FA00BF002084F8380000BF2068C068E4
:102FD00040F480702168C8602068406940F00100BA
:102FE000216848612068406940F0400021684861DC
:102FF0000020BEE70220BCE7CB44000811450008D2
:103000007B440008704770472DE9F84304460D469D
:1030100016461F464FF0000994F8390020285CD16D
:1030200005B116B90120BDE8F88300BF94F8380057
:10303000012801D10220F6E7012084F8380000BF02
:103040000020E063212084F83900FEF7B5FB8146BB
:10305000A684E6842BE0E08C401EE084A068B0F5F6
:10306000805F16D14B46002280212046009701F058
:103070000DFC08B10320D6E7A846B8F80000C0F35D
:10308000080021684860206908B9AD1C0FE06D1C7C
:103090000DE04B46002280212046009701F0F6FB10
:1030A00008B10320BFE715F8010B21684860E08CE8
:1030B0000028D0D14B46002240212046009701F045
:1030C000E5FB08B10320AEE7202084F8390000BFFB
:1030D000002084F8380000BFA5E70220A3E7000025
:1030E000F7B50446154694F8390020283DD10198DB
:1030F00000B10DB90120FEBD00BF94F838000128D1
:1031000001D10220F7E7012084F8380000BF0198C0
:103110002062A584E5840020E063212084F8390042
:103120001348216B88621348216BC8621248216BD7
:1031300008630020216B486301AE23681A1D3168C3
:103140002B46206BFEF75EF96FF0400021680860A7
:1031500000BF002084F8380000BF2068406940F0BC
:103160008000216848610020C5E70220C3E7000015
:103170001F450008554500087B440008704770470C
:1031800000BFFEE710B5FEF725FB01F03BF800F0AD
:1031900001F900F0EDF800F0A7FA002240212548DF
:1031A000FEF704FB00224FF480712348FEF7FEFA7D
:1031B00022480068C06840F0400020490968C860A3
:1031C0001E480068C06820F080001C490968C8607B
:1031D0001A480068C06840F0100018490968C860C3
:1031E0006FF040001549096808606FF080001349CE
:1031F000096808604820FDF775FE00211048FDF7BA
:10320000A7FB00210F48FDF793FC01210E48FDF7B5
:103210008FFC0020FDF76AFD0020FDF735FD01223F
:1032200011030548FEF7C2FA012204210748FEF700
:10323000BDFA10BD000C0140001001405C0A0020E6
:10324000640B0020840B0020A40B0020001401401C
:10325000012101700021234A11604FF07E51224A62
:1032600011600021214A11604FF07E51204A116007
:103270002049214A11602149214A11602149224AED
:1032800011602249224A11602249234A11602349D0
:103290005160234991602349D16023491161234939
:1032A0005161234991612349D16100211162224971
:1032B00051622249224A116022495160224991609B
:1032C0002249D1602049A8311161214951614FF053
:1032D0007E5191611F49D1614FF07E5111621E49AB
:1032E0005162704724000020280000202C0000209C
:1032F00030000020DD088BBB3400002040FC7F3F05
:1033000038000020F25858BA3C000020E5F27F3F18
:10331000400000209B0022BA0C090020950070B8E4
:10332000F05CCFB6F3E325B55CB684B3FA56D4B1FE
:1033300059DB93B07FEE19B00F300CB0AC3A6B3F55
:10334000340900202DC87D3F992A803FB537803F42
:10335000EE7C7F3FEB1E813FF54A813F00210180DB
:10336000816041608181416101618161704700003C
:1033700008B500BF0648406940F0010004494861B3
:103380000846406900F00100009000BF00BF08BD82
:103390000010024000B585B000BF5348806940F07E
:1033A0002000514988610846806900F020000090A3
:1033B00000BF00BF00BF0846806940F01000886170
:1033C0000846806900F01000009000BF00BF00BFF9
:1033D0000846806940F0040088610846806900F072
:1033E0000400009000BF00BF00BF0846806940F0A5
:1033F000080088610846806900F00800009000BF5E
:1034000000BF002242F6BF513848FEF7CFF9012233
:1034100040F201113648FEF7C9F9002248F2B20124
:103420003348FEF7C3F900224FF2FF113148FEF78F
:10343000BDF9012251022D48FEF7B8F9012211030E
:103440002A48FEF7B3F9012204212B48FEF7AEF912
:1034500043F6BF700190012002900320049001A95F
:103460002248FDF7FBFF48F2B310019001200290C3
:103470000320049001A91E48FDF7F0FF40200190B1
:10348000002002900120039001A91948FDF7E6FFF2
:103490004FF2FF100190012002900320049001A937
:1034A0001448FDF7DBFF402001900020029001202E
:1034B000039001A90D48FDF7D1FF4FF48050019012
:1034C000012002900220049001A90848FDF7C6FFE0
:1034D00004200190012002900220049001A90648D6
:1034E000FDF7BCFF05B000BD001002400010014018
:1034F00000080140000C01400014014010B586B0E6
:1035000004464FF080401749086041F61F4048606C
:10351000002114488160601E1249C86000211148D2
:103520000161FFF7B3F818B1CF210FA002F03BFC07
:103530004FF48050029002A90A48FFF746F918B1EB
:10354000D52109A002F02FFC0020009001906946CF
:103550000448FFF76AF818B1DC2103A002F023FC4D
:1035600006B010BD5C0900202E2E5C4472697665A1
:1035700072735C557365725F4472697665725C53F1
:1035800072635C68617264776172652E630000002B
:103590002DE9F04786B082461F482049086047F26F
:1035A0007F00486000211D4881605046FDF74AF8C1
:1035B000804600221A4BFCF756FF06460022194BA4
:1035C000FCF74BFF0446FDF75EF81449C860002184
:1035D00012480161FFF75AF818B1EF2112A002F06A
:1035E000E2FB4FF48050029002A90C48FFF7EDF87F
:1035F00018B1F5210CA002F0D6FB0020009001903C
:1036000069460648FFF711F818B1FC2106A002F040
:10361000CAFB06B0BDE8F087000400409C0900200A
:10362000000004400000F03F2E2E5C447269766575
:1036300072735C557365725F4472697665725C5330
:1036400072635C68617264776172652E630000006A
:1036500000B587B018481949086041F61F40486016
:1036600000211648816040F2E731C160002101610C
:10367000FFF70CF820B140F20D1111A002F093FBFE
:103680004FF48050039003A90C48FFF79EF820B137
:1036900040F213110AA002F086FB00200190029074
:1036A00001A90648FEF7C1FF20B14FF48D7104A0B7
:1036B00002F079FB07B000BD00080040DC090020E3
:1036C0002E2E5C447269766572735C557365725F09
:1036D0004472697665725C5372635C686172647788
:1036E0006172652E6300000010B50C480C4908603B
:1036F0004FF4E1304860002109488160C1600161F8
:103700000C21416100218161C161FFF7F1FA20B113
:1037100040F24D1103A002F046FB10BD00440040F2
:103720005C0A00202E2E5C447269766572735C55CB
:103730007365725F4472697665725C5372635C682C
:10374000617264776172652E6300000000BFFEE75E
:103750002DE9F04107460C464FF07E56002506E065
:1037600031463846FCF768FD0646681CC5B2A542DE
:10377000F6DB3046BDE8F081704700000248006883
:10378000C0F30220704700000CED00E010B50028E7
:1037900007DA0A07140E054A00F00F031B1FD45462
:1037A00003E00A07130E024A135410BD18ED00E09F
:1037B00000E400E010B53D48B0F90E003B49B1F916
:1037C0001010884238DC3A48007801280DD137497A
:1037D000B1F91600002801DB014600E04142334AFE
:1037E000528A114409B2314A51823048B0F912006C
:1037F0002E49B1F91010884202DDFDF72FFC06E0DA
:103800002A4AB2F9121050782A4A00F0DBF8274908
:10381000B1F91600002801DB014600E04142234ACD
:10382000B2F912201144214AB2F9102091423BDD35
:1038300001202149087737E01D48007801280DD183
:103840001A49B1F91600002801DB014600E04142A7
:10385000164A528A511A09B2144A51821348B0F9D1
:1038600012001249B1F91010884202DAFDF7F6FB96
:1038700006E00E4AB2F9121050780E4A00F0A2F893
:103880000A49B1F91600002801DB014600E0414277
:10389000064AB2F91220511A044AB2F91020914294
:1038A00002DA01200449087710BD0000440000201E
:1038B0000C000020000900206400002010B53D48E5
:1038C000B0F908003B49B1F90A10884238DC3A489F
:1038D000007801280DD13749B1F91400002801DB27
:1038E000014600E04142334A9289114409B2314A0B
:1038F00091813048B0F90C002E49B1F90A10884284
:1039000002DDFDF7ABFB06E02A4AB2F90C10507855
:103910002A4A00F057F82749B1F91400002801DBC2
:10392000014600E04142234AB2F90C201144214AE9
:10393000B2F90A2091423BDD01202149087737E0A6
:103940001D48007801280DD11A49B1F9140000284A
:1039500001DB014600E04142164A9289511A09B240
:10396000144A91811348B0F90C001249B1F90A10B8
:10397000884202DAFDF772FB06E00E4AB2F90C103B
:1039800050780E4A00F01EF80A49B1F914000028D8
:1039900001DB014600E04142064AB2F90C20511A0F
:1039A000044AB2F90A20914202DA01200449087758
:1039B00010BD0000440000200C0000200009002081
:1039C000640000202DE9F74F88B00C46914614F5AD
:1039D000166F35DDB4F5166F32DA002089F808006D
:1039E0000021089800F022FB2046FCF71DFE364916
:1039F0000190FCF753FC0290344801680298FCF7F0
:103A00001BFC0390324801680398FCF7BDFB83461A
:103A1000FCF752FE00222F4BCDE90401FCF720FDFC
:103A200000222D4BCDE90601FCF78FFD0746002251
:103A30002A4BFCF718FD0546FCF751FE824636E09E
:103A4000012089F808000121089800F0EFFA2046CB
:103A5000FCF7EAFD1C490090FCF720FC01901B4894
:103A600001680198FCF7E8FB83461948016858464D
:103A7000FCF78AFB80461A49FCF710FC0746FCF766
:103A80001BFE05460022134BFCF7EAFC0022124BFA
:103A9000CDE90201FCF759FD0022104BCDE90401EC
:103AA000FCF7E1FCCDE90601FCF719FE8246504621
:103AB000FCF7D5FD85B22A4601210A48FCF7EFFF45
:103AC0000BB0BDE8F08F000000007A442800002011
:103AD000240000200000044000001440E0FFEF40FC
:103AE00000003041640B00202DE9FC410546002414
:103AF000002700260020019000900CE2BDF8040091
:103B000000F00F06002E7DD1BDF8040000F010007B
:103B100088BB2868008848F60F710840296808802B
:103B200005F128042868B0F85010207801EBC00097
:103B3000801C296801F5806131F81000C0F309008C
:103B4000E061E16960690844606100212846FDF791
:103B500021FF95F824000028CFD0A0690028CCD1FF
:103B600095F8240040F080002968A1F84C0000205E
:103B700085F82400CFE1FFE705F50A74286800887E
:103B80000090BDF8000000F4006018B32868B0F899
:103B90005010207801EBC000801D296801F580617C
:103BA00031F81000C0F30900E061A18B8BB2A2884C
:103BB00005F22C41286802F0B8F828680088C0F3A4
:103BC0000E0048F68F710840296808802846FEF7E5
:103BD000DFF8A0E1BDF8000000F4004000288CD020
:103BE00028680088C0F30E0048F68F7108402968E5
:103BF00008802868B0F85010207801EBC000801DC4
:103C0000296800E055E001F5806131F81000C0F34B
:103C10000900E061E06960B1B4F81CC01FFA8CF3E0
:103C2000A2886169286802F080F8E1696069084447
:103C3000606100212846FDF7BBFE2A6802F580621C
:103C40002868B0F85000801D02EB400122693E2A2E
:103C500010D92269C2F34F10227C02F01F020AB968
:103C6000421E90B24FF6FF7202EA802242F40042F6
:103C70000A600DE02269C2F34F00227C02F00102CB
:103C80000AB1421C90B24FF6FF7202EA80220A602B
:103C9000296809884BF68F7201EA020080F480508F
:103CA00080F4005040F4004141F080012A68118006
:103CB00031E17100286830F811000090BDF8000073
:103CC00000F4004000287CD07100286830F8110012
:103CD000C0F30E0048F68F7108407200296821F881
:103CE000120005F50A7000EB4614A07AA8B92868FE
:103CF000B0F85010207801EBC000801D296801F554
:103D0000806131F81000C0F30907EFB3A288616940
:103D10003B46286802F009F844E021784900286809
:103D200030F8110000F48040A8B12868B0F85010B5
:103D3000207801EBC000801C296801F5806131F812
:103D40001000C0F30907DFB1E28861693B462868CB
:103D500001F0EBFF14E02868B0F85010207801EB78
:103D6000C000801D296801F5806131F81000C0F3A2
:103D700009072FB1228961693B46286801F0D5FF08
:103D800021784900286800E00CE030F8110048F67E
:103D90008F71084048F2C001084322785200296818
:103DA00021F81200E0693844E061606938446061DC
:103DB000A06910B12069B84204D921782846FDF7DE
:103DC000F7FD05E021782846D4E90523FDF76AFED2
:103DD000BDF8000000F0800000287CD005F128002C
:103DE00000EB46147100286830F8110048F60F7196
:103DF00008407200296821F81200A07AD0B928681A
:103E0000B0F85010207801EBC000801C296801F543
:103E1000806131F81000C0F30900E061E069E8B3A7
:103E2000B4F81CC01FFA8CF3A2886169286801F0FD
:103E300097FF4EE021784900286830F8110000F023
:103E40004000D0B12868B0F85010207801EBC000D5
:103E5000801C296801F5806131F81000C0F3090069
:103E6000E061E06928B3B4F81CC01FFA8CF3E28863
:103E70006169286801F074FF1BE02868B0F85010F1
:103E8000207801EBC000801D296801F5806131F8C0
:103E90001000C0F30900E061E06900E019E040B102
:103EA000B4F81CC01FFA8CF322896169286801F0FC
:103EB00057FF21784900286830F8110048F68F71C3
:103EC00008404CF28001084322785200296821F80A
:103ED0001200286800E01EE0B0F85010207801EBD6
:103EE000C000801C296801F5806131F81000C0F322
:103EF0000900E061E169606908446061A06920B976
:103F000021782846FDF746FD05E021782846D4E9CA
:103F10000523FDF725FE2868B0F84400019000F461
:103F2000004000287FF4EAADBDE8FC817047000046
:103F300008B508490968C9084FF47A72B1FBF2F173
:103F40004143009100BF00BF00994A1E0092002922
:103F5000F9D108BD0000002070B506460D46144694
:103F60003048007808B1002070BD032E01D0012E2A
:103F700056D1E079092811DDE078217988420DDDFC
:103F8000E078401EE0706179E07800F090F8E07829
:103F900060710520FDF753FA0120E5E728884EF20D
:103FA0006661884203DC2888B0F5005F18DA607922
:103FB0002179884212DD1C48FEF7EBFB61794A1E2D
:103FC000D0B200F074F86079401E6071E079401C56
:103FD000E0710520FDF733FA0120C5E70020C3E7B3
:103FE0002888B0F5024F19DA2888B0F5FC4F15DBA8
:103FF0006079E17888420FDA61794A1CD0B200F02A
:1040000056F86079401C6071E079401CE071052031
:10401000FDF715FA0120A7E70020A5E70020A3E798
:104020000020A1E7000900205C09002070B50446CB
:104030000D46012C01D0032C0BD12DB900220821F3
:104040000D48FDF7B3FB04E0012208210A48FDF703
:10405000ADFB022C01D0042C0CD135B900224FF459
:1040600000510548FDF7A2FB04E00122510302487C
:10407000FDF79CFB70BD0000000C014010B504462C
:10408000012C01D0032C05D1002210210648FDF798
:104090008DFB08E0022C01D0042C04D10122102158
:1040A0000148FDF783FB10BD000C0140704770B55F
:1040B00005460C46284600F007F80520FDF7BFF935
:1040C0002046FCF79DFE70BD10B504460B2C43D274
:1040D000DFE804F042060C12181E242A30363C0099
:1040E000012211461E48FDF761FB36E00122022144
:1040F0001B48FDF75BFB30E0012204211848FDF767
:1041000055FB2AE0012208211548FDF74FFB24E06A
:10411000012210211248FDF749FB1EE00122202157
:104120000F48FDF743FB18E0012211460D48FDF74B
:104130003DFB12E0012202210A48FDF737FB0CE0AB
:10414000012204210748FDF731FB06E0012211039B
:104150000448FDF72BFB00E000BF00BF10BD0000CE
:1041600000100140000C014010B50446A078112851
:1041700006D10020207001212046FCF7EBFD08E06D
:10418000A078132805D10120207000212046FCF7DB
:10419000E1FD10BD70B50446A088FFF7F9F90A48A3
:1041A000FEF7F7FAE08842F2107191FBF0F085B269
:1041B0002846FFF7A3F90548FEF7EBFAFFF748FAA0
:1041C0000348FEF7E6FA70BD9C0900205C09002058
:1041D000DC09002010B5022001F020FE0020054976
:1041E000096848622520FDF767FB0248FEF7C2FA1E
:1041F00010BD00005C09002010B5FDF7E3FAFEF7E2
:104200000EFA10BD10B596B001200C9000040D9070
:1042100000200E900120109002201390C1031491F1
:104220004FF4E01115910CA8FDF7AAFF18B1452134
:104230001AA001F0B8FD0F2007900220089000207E
:1042400009904FF480600A9000200B90022107A88B
:10425000FDF752FE18B1532110A001F0A4FD10206B
:1042600001900020069001A8FDF7AEFD18B15A217B
:104270000AA001F098FDFDF711FF4FF47A71B0FB31
:10428000F1F42046FEF7B1F90420FEF799F9002277
:104290001146501EFDF72BFB16B010BD2E2E5C44B0
:1042A0007269766572735C557365725F4472697684
:1042B00065725C5372635C68617264776172652ECB
:1042C000630000001148006840F001000F490860D9
:1042D000084640680E4908400C4948600846006896
:1042E0000C490840094908600846006820F480200D
:1042F00008600846406820F4FE0048604FF41F0044
:104300008860C8030449086070470000001002403C
:104310000000FFF8FFFFF6FE08ED00E010B50248D0
:10432000FEF7EDFA10BD00005C09002010B5024850
:10433000FEF7E5FA10BD00009C09002010B5024808
:10434000FEF7DDFA10BD0000DC0900200022026843
:104350001F4B98420ED01F4B98420BD0B0F1804FAC
:1043600008D01D4B984205D01C4B984202D01C4BE4
:10437000984203D122F070024B681A43144B9842C2
:104380000ED0144B98420BD0B0F1804F08D0124B96
:10439000984205D0114B984202D0114B984203D15C
:1043A00022F44072CB681A4322F080024B691A4310
:1043B00002608B68C3620B688362054B984202D02F
:1043C000044B984201D10B69036301234361704799
:1043D000002C01400034014000040040000800406F
:1043E000000C004030B50C460021816821F47F416B
:1043F00042EA032525432943816030BD0A46002156
:10440000816821F0700142F0070319438160704711
:1044100030B50B46144600210022026A056A25F0D9
:1044200001050562816921F0F00141EA041122F0E1
:104430000A021A438161026230BD30B50B46144650
:1044400000210022056A25F0100505628169026AD3
:1044500021F4704141EA043122F0A00242EA031241
:104460008161026230BD70B505466C6A0020E0854E
:10447000E0842046FEF794FB70BD70B5064600252B
:10448000746A20684069C0F3C01594F83900212887
:1044900005D125B10020E084204600F082F8206894
:1044A0004069C0F3801594F83A00222805D125B15F
:1044B0000020E085204600F054F8E06B40F010004A
:1044C000E0632046FEF76CFB70BD70B505466C6A74
:1044D0002868006800F02000B0B90020E08520685E
:1044E000C06820F480702168C8602068406920F0AE
:1044F0000100216848612068406920F0400021687F
:104500004861202084F83A002046FEF77BFD70BD0C
:1045100070B50446656A2846FEF775FD70BD70B536
:1045200005466C6A2868006800F0200070B9002019
:10453000E0842068406920F080002168486120689C
:10454000C06840F040002168C86002E02046FEF7E5
:1045500015FE70BD70B50446656A2846FEF70FFE6D
:1045600070BD0168C96821F490710268D16001686A
:10457000496921F0010102685161202180F83A1057
:10458000704710B504462068C06820F040002168DC
:10459000C860202084F839002046FEF7EFFD002097
:1045A00010BD0168C96821F0C0010268D1602021F6
:1045B00080F83910704770B5044694F83A00222804
:1045C0004AD1A068B0F5805F13D1A56A206940B9CF
:1045D00020684068C0F308002880A06A801CA062A0
:1045E00019E020684068C0B22880A06A401CA06220
:1045F00011E0206938B920684068C1B2A26A501C35
:10460000A062117007E02068406800F07F01A26A94
:10461000501CA0621170E08D401E80B2E085C8B9C8
:104620002068C06820F020002168C8602068C06849
:1046300020F480702168C8602068406920F0010083
:1046400021684861202084F83A002046FEF7DAFC11
:10465000002070BD0020FCE70220FAE72DE9F041C0
:10466000044600252068006920F44050E1680843B2
:10467000216808612169A06808436169084305430E
:104680002068C06841F20C61884328432168C860F3
:104690002068406920F44070A1690843216848619E
:1046A0005F49206888425CD1FDF70EFD00EBC00138
:1046B00001EB001061688900B0FBF1F6FDF704FD25
:1046C00000EBC00101EB001061688900B0FBF1F064
:1046D0006421B0FBF1F000EBC00101EB0010A6EB90
:1046E0008000322101EB00106421B0FBF1F000F0FA
:1046F000F006FDF7E9FC00EBC00101EB001061687A
:104700008900B0FBF1F06421B0FBF1F006EB00167C
:10471000FDF7DAFC00EBC00101EB001061688900D5
:10472000B0FBF1F7FDF7D0FC00EBC00101EB00108E
:1047300061688900B0FBF1F06421B0FBF1F000EB9F
:10474000C00101EB0010A7EB8000322101EB00104B
:104750006421B0FBF1F000F00F0030442168886064
:104760005BE0FDF7A1FC00EBC00101EB001061680C
:104770008900B0FBF1F6FDF797FC00EBC00101EBFF
:10478000001061688900B0FBF1F06421B0FBF1F02A
:1047900000EBC00101EB0010A6EB8000322101EB21
:1047A00000106421B0FBF1F000F0F006FDF77CFC96
:1047B00000EBC00101EB001061688900B0FBF1F073
:1047C0006421B0FBF1F006EB0016FDF76DFC00EB89
:1047D000C00101EB001061688900B0FBF1F7FDF743
:1047E00063FC00EBC00101EB001061688900B0FBC5
:1047F000F1F06421B0FBF1F000EBC00101EB00101F
:10480000A7EB8000322101EB00106421B0FBF1F036
:1048100000F00F00304421688860BDE8F08100009E
:1048200000380140014691F8390021282CD18868D0
:10483000B0F5805F0FD10A6A1088C0F308000B68DA
:104840005860086918B9086A801C086209E0086A9B
:10485000401C086205E00B6A581C086218780B6857
:104860005860C88C401E80B2C88458B90868C068B7
:1048700020F080000B68D8600868C06840F04000F5
:104880000B68D860002070470220FCE72DE9F0415A
:1048900004460D4617469846069E21E0701CF8B166
:1048A0002EB1FCF789FFA0EB0800B04218D92068B0
:1048B000C06820F4D0702168C8602068406920F08A
:1048C000010021684861202084F8390084F83A000A
:1048D00000BF002084F8380000BF0320BDE8F0814D
:1048E000206800682840A84201D1012000E0002093
:1048F000B842D3D00020F1E710B50248FEF752F9D4
:1049000010BD00001C0A002038B5002500242C48EA
:1049100000680068C0F3801529480068C06800F08E
:104920004004B5B1ACB16FF040002549096808609A
:10493000234890F83900232804D12220204981F807
:10494000390003E020201E4981F8390001201D496B
:1049500008701B4800680068C0F30015184800681C
:10496000C06800F010044DB344B300BF00200090B5
:104970001348006800680090114800684068009083
:1049800000BF00BF0E480068C06820F020000C493E
:104990000968C8600A4890F83A00232804D1212009
:1049A000074981F83A0003E02020054981F83A00E0
:1049B0000348FEF7C2F801200349087038BD000023
:1049C0005C0A0020090000200800002010B5024801
:1049D000FEF7E8F810BD00009C0A002070B5044600
:1049E0000D46D4F81402294642682046904700201C
:1049F00070BD70B504460D4694F8FC01022802D043
:104A0000032811D100E000BF688801280BD10020E5
:104A1000C4F80402D4F8140229468268204690475C
:104A2000204600F04AF804E02946204600F01BF832
:104A300000BF00BF70BD70B506460C4615462B463C
:104A400022460021304600F052FA002070BD70B5B9
:104A500006460C4615462B4622460021304600F0FD
:104A60003AFB002070BD70B504460D4680212046FB
:104A700000F005FB0021204600F001FB70BD10B5E1
:104A800004460520C4F8F40100231A4619462046BE
:104A900000F02DFA002010BD70B504460E461546F4
:104AA0000220C4F8F401A561E5612B4632460021DD
:104AB000204600F010FB002070BD10B50446042015
:104AC000C4F8F40100231A461946204600F003FBFF
:104AD000002010BD70B504460D46E888012804D0BA
:104AE00029462046FFF7BFFF1BE094F8FC0102288F
:104AF00002D003280FD108E00020A060012204F1B9
:104B000008012046FFF7C8FF0AE00122211D2046C8
:104B1000FFF7C2FF04E029462046FFF7A4FF00BFCD
:104B200000BF70BDF8B504460E4670880012082814
:104B300072D2DFE800F082040C2082826372207C53
:104B4000D4F810120A686946904705467AE0207C3E
:104B500040B9D4F81402816A6846884705460221A4
:104B6000697007E0D4F81402C16A684688470546B0
:104B70000221697066E0B078062834D2DFE800F0E0
:104B8000030B131B232B207CD4F810124A686946B0
:104B90009047054630E0207CD4F810128A686946B8
:104BA0009047054628E0207CD4F81012CA68694670
:104BB0009047054620E0207CD4F810120A69694627
:104BC0009047054618E0207CD4F810124A696946DF
:104BD0009047054610E0207CD4F810128A69694697
:104BE0009047054608E0B178D4F814026A46836B12
:104BF00020469847054600BF00BF23E0207C30B91F
:104C0000D4F81402416B6846884705461AE03146DD
:104C10002046FFF728FFF8BD0FE0207C40B9D4F80C
:104C20001402016B6846884705460721697009E050
:104C300031462046FFF717FFEDE731462046FFF7E4
:104C400012FFE8E700BFBDF8000088B1F08878B136
:104C5000F088BDF80010884202DDBDF8000000E0D9
:104C6000F0880090BDF8002029462046FFF714FF89
:104C700000BFD0E770B504460D4694F8FC01022849
:104C800002D0032811D100E000BF0120E060D4F879
:104C9000040218B1E06840F00200E060022204F172
:104CA0000C012046FFF7F8FE04E029462046FFF7F6
:104CB000DAFE00BF00BF70BD2DE9F04104460D468D
:104CC000002600272946D4F82002FCF77FFE06467E
:104CD00036B1012E06D0022E06D0032E08D105E0F3
:104CE000002707E0022705E0012703E0022701E093
:104CF000022700BF00BF3846BDE8F0812DE9F04132
:104D000004460E461746002E54D104F11405D4F87B
:104D1000F401022843D1D5E90201884210D9D5E92E
:104D20000201401AA860288982B239462046FFF75E
:104D30008EFE00231A461946204600F0D8F82EE0D1
:104D4000E9686868B0FBF1F201FB1200B8B9E968E4
:104D50006868884213D36868D4F8F81188420ED284
:104D6000002211462046FFF772FE0020C4F8F80129
:104D700000231A461946204600F0B9F80FE0D4F88F
:104D80001402C06840B194F8FC01032804D1D4F89F
:104D90001402C168204688472046FFF770FE94F849
:104DA0000002012814D1204600F0DAF9002084F82E
:104DB00000020DE0D4F81402406948B194F8FC01F7
:104DC000032805D1D4F814023146426920469047A1
:104DD0000020BDE8F0812DE9F04105460E4617465A
:104DE0005EBB05F58274D5F8F401032833D1D4E90C
:104DF0000201884210D9D4E90201401AA060D4E926
:104E00000201884201D2A06800E0E06882B239461F
:104E10002846FFF710FE1EE0D5F81402006940B1E5
:104E200095F8FC01032804D1D5F81402016928463D
:104E300088472846FFF741FE0DE0D5F81402806947
:104E400048B195F8FC01032805D1D5F81402314684
:104E50008269284690470020BDE8F08110B50246DF
:104E6000D2F8203201F08000802807D101F07F04C1
:104E700003F1280000EB4410807810BD01F07F049E
:104E800003F50A7000EB44108078F6E72DE9F0474F
:104E900004460F4615461E464FF00008C1462B46F5
:104EA00032463946D4F82002FCF7C1FD8046B8F1FD
:104EB000000F09D0B8F1010F09D0B8F1020F09D0E5
:104EC000B8F1030F0CD108E04FF000090BE04FF0F0
:104ED000020908E04FF0010905E04FF0020902E085
:104EE0004FF0020900BF00BF4846BDE8F0872DE93A
:104EF000F04704460D4616461F464FF00008C146CF
:104F00003B4632462946D4F82002FCF7CBFD8046CA
:104F1000B8F1000F09D0B8F1010F09D0B8F1020FB4
:104F200009D0B8F1030F0CD108E04FF000090BE0F5
:104F30004FF0020908E04FF0010905E04FF00209C7
:104F400002E04FF0020900BF00BF4846BDE8F0870D
:104F500010B504464023002211462046FFF796FF75
:104F600040214FF4887001514023002280212046C7
:104F7000FFF78CFF40212162012084F8FC01D4F866
:104F8000180228B12179D4F81402426820469047CB
:104F9000002010BD014691F8FD0181F8FC010020C0
:104FA000704710B5044694F8FC01032808D1D4F8E2
:104FB0001402C06920B1D4F81402C16920468847A0
:104FC000002010BD02461174002070472DE9F04109
:104FD00004460D46002600272946D4F82002FCF797
:104FE000BCFE064636B1012E06D0022E06D0032E98
:104FF00008D105E0002707E0022705E0012703E0CC
:10500000022701E0022700BF00BF3846BDE8F0815B
:1050100070B504460D46294604F5027000F08CF880
:105020000120C4F8F40140F20E20005BC4F8F8013E
:1050300094F8080200F01F0020B1012808D00228CF
:1050400012D10BE004F50271204600F049F913E09B
:1050500004F50271204600F027FA0DE004F5027114
:10506000204600F076F907E094F8080200F080018D
:10507000204600F004F800BF00BF002070BD2DE9FD
:10508000F04104460D46002600272946D4F82002A8
:10509000FCF72DFD064636B1012E06D0022E06D0B5
:1050A000032E08D105E0002707E0022705E00127CD
:1050B00003E0022701E0022700BF00BF3846BDE839
:1050C000F081014691F8FC0181F8FD01042081F88E
:1050D000FC01002070472DE9F04704460D461646B6
:1050E0001F464FF00008C1463B4632462946D4F8D9
:1050F0002002FCF735FD8046B8F1000F09D0B8F169
:10510000010F09D0B8F1020F09D0B8F1030F0CD18B
:1051100008E04FF000090BE04FF0020908E04FF003
:10512000010905E04FF0020902E04FF0020900BF5B
:1051300000BF4846BDE8F0870A7802704A7842709E
:105140008B78CA7803EB022242800B794A7903EB11
:10515000022282808B79CA7903EB0222C2807047D7
:1051600001460020704770B504460D46A888F8B97E
:10517000E888E8B9A87800F07F0694F8FC010328D5
:1051800004D129462046FFF76EFC15E084F8FE6145
:1051900031462046FFF71AFF2046FFF78EFC1EB16E
:1051A000022084F8FC0107E0012084F8FC0103E000
:1051B00029462046FFF757FC70BD70B504460D46E2
:1051C0000226D4F8140238B1D4F814022946026831
:1051D0002046904700B90026304670BD70B50446A1
:1051E0000D46A8783449087008460078012804DD87
:1051F00029462046FFF737FC5BE094F8FC010228C3
:1052000002D003284FD11CE02B480078A8B12A48CF
:1052100000786060032084F8FC012748017820466C
:10522000FFF7CBFF022804D129462046FFF71BFCDD
:1052300070BD2046FFF741FC02E02046FFF73DFC31
:1052400036E01D48007870B9022084F8FC011A4845
:1052500000786060184801782046FFF7BFFB2046C1
:10526000FFF72BFC1EE0144909786068884216D0CD
:1052700021792046FFF7B2FB0F48007860600E48A6
:1052800001782046FFF799FF022804D129462046DD
:10529000FFF7E9FBCCE72046FFF70FFC02E02046D2
:1052A000FFF70BFC04E029462046FFF7DCFB00BFBC
:1052B00000BF00BFBCE700000400002070B504463A
:1052C0000D46688801280AD1C4F80402D4F81402F3
:1052D00029468268204690472046FFF7EEFB70BDC6
:1052E00070B505460C46002660780A2829D2DFE80A
:1052F00000F01923281E280A0528140F21462846E5
:10530000FFF710FC22E021462846FFF72CFF1DE0A6
:1053100021462846FFF762FF18E021462846FFF79E
:10532000D9FB13E021462846FFF7A4FC0EE02146F6
:105330002846FFF7C3FF09E021462846FFF759FB3F
:1053400004E021462846FFF78EFB00BF00BF304631
:1053500070BD2DE9F04105460E464FF00008347946
:10536000307800F06000202808D1D5F814023146CA
:105370008268284690470020BDE8F08170780028B8
:1053800055D001282AD003287AD195F8FC010228AB
:1053900002D003281BD107E02CB1802C03D021467A
:1053A0002846FFF76CFE17E0708830B92CB1802CCE
:1053B00003D021462846FFF762FED5F81402314695
:1053C0008268284690472846FFF777FB04E031467D
:1053D0002846FFF748FB00BF00BF62E095F8FC01DC
:1053E000022802D003281BD107E02CB1802C03D067
:1053F00021462846FFF743FE17E0708878B904F08D
:105400007F0048B121462846FFF756FCD5F8140224
:1054100031468268284690472846FFF74EFB04E055
:1054200031462846FFF71FFB00BF00BF39E095F863
:10543000FC01022802D003282BD107E004F07F00F2
:1054400018B121462846FFF71AFE27E004F0800035
:10545000802806D104F07F0105F1140000EB011053
:1054600005E004F07F0105F5827000EB01100746AE
:1054700021462846FFF7F2FC18B10120386002E00F
:105480000EE000203860022239462846FFF704FB70
:1054900004E031462846FFF7E6FA00BF00BF00E00F
:1054A00000BF00BF404667E770B504460D460026C2
:1054B00094F8FC01032814D1287901280CDCD4F8D5
:1054C00014022946826820469047E88840B93EB9D0
:1054D0002046FFF7F2FA03E029462046FFF7C3FA19
:1054E00004E029462046FFF7BEFA00BF00BF0020B7
:1054F00070BD10B50246C87830B101282CD0022802
:1055000010D0032836D119E00878400032F8100096
:1055100048F68F13184040F400700B785B0022F8B7
:10552000130028E00878400032F8100048F68F1386
:1055300018400B785B0022F813001CE0087840004C
:1055400032F8100048F68F13184040F4C0600B7812
:105550005B0022F813000EE00878400032F81000DB
:1055600048F68F13184040F480600B785B0022F8F7
:10557000130000E000BF00BF0878400032F81000C0
:1055800048F68F73184048F2800318430B7818438D
:105590005B0022F81300887A00287DD1487898B300
:1055A000888840104400B2F85030087803EBC000FF
:1055B00002F5806343F810400878400032F810008C
:1055C00000F0400068B10878400032F8100048F65A
:1055D0008F73184048F2C00318430B785B0022F821
:1055E00013000B785B0032F8133048F6BF7403EAFF
:1055F000040080F0200040F4004343F080030C7866
:10560000640022F8143047E1FFE788884010440026
:10561000B2F85030087803EBC000001D02F580633B
:1056200043F81040B2F85040087804EBC000801DE9
:105630001C4604EB40030C693E2C10D90C69C4F3E2
:105640004F100C7C04F01F040CB9441EA0B24FF69E
:10565000FF7404EA802444F400441C600DE00C69EB
:10566000C4F34F000C7C04F001040CB1441CA0B244
:105670004FF6FF7404EA80241C600878400032F87A
:10568000100000F4804078B10878400032F8100033
:1056900048F68F73184000E01BE04CF2800318437B
:1056A0000B785B0022F813000B785B0032F81330A4
:1056B0004BF68F7403EA040080F4805080F40050AD
:1056C00040F4004343F080030C78640022F8143067
:1056D000E2E00878400032F8100040F4807048F6AC
:1056E0008F73184048F2800318430B785B0022F850
:1056F0001300C88840104400B2F85030087803EB1B
:10570000C00002F5806343F810400889401044004F
:10571000B2F85030087803EBC000001D02F580633A
:1057200043F810404878F0BB0878400032F8100089
:1057300000F4804068B10878400032F8100048F664
:105740008F7318404CF2800318430B785B0022F8EB
:1057500013000878400032F8100000F0400068B1F3
:105760000878400032F8100048F68F73184048F26D
:10577000C00318430B785B0022F813000878400040
:1057800032F8100048F68F73184048F2C0031843EF
:105790000B785B0022F813000B785B0032F81330B3
:1057A0004BF68F7400E01EE003EA040080F48050A2
:1057B00080F4005040F4004343F080030C78640010
:1057C00022F814300B785B0032F8133048F6BF74BF
:1057D00003EA040040F4004343F080030C786400C3
:1057E00022F8143058E00878400032F8100000F435
:1057F000804068B10878400032F8100048F68F7396
:1058000018404CF2800318430B785B0022F8130019
:105810000878400032F8100000F0400068B10878C5
:10582000400032F8100048F68F73184048F2C00369
:1058300018430B785B0022F813000878400032F818
:10584000100048F68F7318404CF2800318430B7811
:105850005B0022F813000B785B0032F8133048F637
:10586000BF7403EA040040F4004343F080030C7863
:10587000640022F814300B785B0032F813304BF6DA
:105880008F7403EA040040F4004343F080030C7873
:10589000640022F8143000BF002010BD0246002032
:1058A000704710B50246487848B30878400032F88F
:1058B000100000F0400068B10878400032F8100095
:1058C00048F68F73184048F2C00318430B785B000A
:1058D00022F813000B785B0032F8133048F6BF74DF
:1058E00003EA040080F0100080F0200040F4004340
:1058F00043F080030C78640022F8143029E0087823
:10590000400032F8100000F4804068B10878400090
:1059100032F8100048F68F7318404CF28003184399
:105920000B785B0022F813000B785B0032F8133021
:105930004BF68F7403EA040080F4805080F400502A
:1059400040F4004343F080030C78640022F81430E4
:1059500000BF002010BD10B502460878A0B90B7832
:105960005B0032F813304BF6BF7403EA040080F496
:10597000805080F0100040F4004343F080030C7826
:10598000640022F8143027E0487890B10B785B006F
:1059900032F8133048F6BF7403EA040080F01000B8
:1059A00040F4004343F080030C78640022F8143084
:1059B00012E00B785B0032F813304BF68F7403EA79
:1059C000040080F4805040F4004343F080030C78DE
:1059D000640022F8143000BF002010BDF0B5064668
:1059E0000C460027A569607801287CD12169A0694F
:1059F000884204D92569A069401BA06102E0A5691D
:105A00000020A061A07A80B9ABB2A288304661695B
:105A100000F0A6F9B6F85010207801EBC000801C09
:105A200006F5806141F81050A1E02078400036F87A
:105A3000100000F04000C0B3607838BBB6F85020CA
:105A4000207802EBC000801D06F5806202EB400169
:105A50003E2D0ED9C5F34F1005F01F020AB9421EA4
:105A600090B24FF6FF7202EA802242F400420A60CE
:105A70000BE0C5F34F0005F001020AB1421C90B2E1
:105A80004FF6FF7202EA80220A600CE0607801287B
:105A900009D1B6F85010207801EBC000801C06F543
:105AA000806141F81050278939E0FFE7607840BBFA
:105AB000B6F85020207802EBC000801C06F580620A
:105AC00002EB40013E2D0FD9C5F34F1005F01F0228
:105AD0000AB9421E90B24FF6FF7202EA802242F4E7
