:020000040800F2
:10000000C80F002045010008793600087D3000083F
:100010004D360008510D00082F5D0008000000005B
:100020000000000000000000000000006140000827
:10003000CD0D000800000000693E00088541000861
:100040005F0100085F0100085F0100085F01000810
:100050005F0100085F0100085F0100085F01000800
:100060005F0100085F0100085F0100085F010008F0
:100070005F0100085F0100085F0100085F010008E0
:100080005F0100085F0100085F0100085F010008D0
:100090009D5C00085F0100085F0100085F01000827
:1000A0005F0100085F0100085F0100085F010008B0
:1000B000A9420008B9420008C94200085F010008CF
:1000C0005F0100085F0100085F0100085F01000890
:1000D0005F01000885480008954800085949000854
:1000E0005F0100085F0100085F0100085F01000870
:1000F0005F0100085F0100085F0100085F01000860
:100100005F0100085F0100085F0100085F0100084F
:100110005F0100085F0100085F0100085F0100083F
:100120005F0100085F0100085F0100085F0100082F
:10013000DFF80CD000F0A4FB00480047F15D000898
:10014000C80F00200648804706480047FEE7FEE744
:10015000FEE7FEE7FEE7FEE7FEE7FEE7FEE7FEE777
:100160005142000831010008202A04DB203A21FA1C
:1001700002F00021704721FA02F3D040C2F12002C0
:100180009140084319467047F0B480EA0102D40F49
:100190004200B2EB410F02D20246084611464A0025
:1001A00042D0C30DDDB2C1F3C752AD1A202D35DAEE
:1001B000C1F3160141F4000204B15242C5F1200618
:1001C00002FA06F12A411044B3EBD05F23D0C4B148
:1001D000012DA0EBC35009DCF0BC4FF0004202EA55
:1001E000C352DBB200F5000000F0BFBA400000F1DE
:1001F000807000EBC350A0F1807040EAD1704900DC
:1002000009E0490841EAC071A0EBC35000F50000C5
:10021000400800EBC350F0BC00F09EBA61420122DE
:1002200002EB4101001BF6E7F0BC704781F0004192
:10023000AAE780F00040A7E780EA010210B502F0CB
:100240000043400022D04A001FD0010E01EB126192
:10025000C0F35600C2F3560240F4000042F400021C
:10026000A0FB022000047F39140400D0401C50EA97
:10027000124001D44000491EC2B20C0604EBD0105B
:10028000401C4008802A02D003E0002010BD20F06E
:100290000100002900DA0020184310BD30B480EAC4
:1002A000010202F0004530F0004221F0004013D07E
:1002B00090B1C30DD40DC2F31601C0F31600E41AB9
:1002C00041F4000140F400027D34914201D3641CEA
:1002D00000E04900002C02DA30BC002070474FF4E7
:1002E00000000023914201D3891A034340084FEADA
:1002F0004101F7D151B1914202D14FF0004105E0E7
:1003000002D24FF0010101E06FF0010103EBC45094
:10031000284430BC00F020BA2DE9FE4F804681EA27
:100320000300C00F0C46009021F0004123F000456F
:10033000B8EB0200A94105D24046214690461C4632
:100340000B46024623F00040104347D0270DC7F369
:100350000A00C3F30A510290401A019040286BDA58
:10036000C3F3130040F4801B0098924620B1002391
:10037000D2EB030A63EB0B0B01985946C0F1400224
:10038000504600F0C8F906460D4650465946019AB7
:1003900000F0D0F910EB08006141002487EA115207
:1003A00084EAE7731A4340D0009A62B3019A012AA3
:1003B0004FEA075215DC001B61EB02014FF00042CF
:1003C00002EA0752CDE90042001C41F58011324695
:1003D0002B4600F007FA03B0BDE8F08F40462146F7
:1003E000F9E7001B61EB0201001C41F580130018C6
:1003F0005B412018A2F5001747EB030140EAD570D6
:10040000B6196D4111E06D084FEA360645EAC07530
:100410004FEA0752001B61EB0201001C41F58011FD
:1004200049084FEA30000019514132462B4603B0CB
:10043000BDE8F04F00F0C7B900980122400000234A
:10044000D0EB020263EBE073009821464FEAE074C0
:10045000B8EB000061EB0401E9E783F000435BE7E0
:1004600081F0004158E72DE9FE4F81EA030404F0D2
:10047000004421F0004100944FF0000B23F00043B2
:1004800050EA01045ED052EA03045BD0C3F30A547D
:10049000C1F30A552C44A4F2F3340194A0FB025496
:1004A000C1F3130141F48011C3F3130343F4801328
:1004B00001FB024400FB034E840A970A44EA81547C
:1004C00047EA8357A4FB076802958D0A05FB078559
:1004D0004FEA932C04FB0C542705029D4FEA065863
:1004E00047EA1637B5EB08056EEB070C870E920E40
:1004F00047EA811742EA8312A7FB0201B6EB0B0120
:1005000064EB00042B0D43EA0C335E1844EB1C50E3
:10051000DA465146E7FB0201C5F313044FEA0B33F9
:1005200043EA14534FEA0432019C43EA0603A4F160
:100530000C040294009CCDE900B400F053F903B020
:10054000BDE8F08F00200146F9E72DE9F04D81EA82
:10055000030404F0004B21F0004514464FF0000A5C
:1005600023F0004150EA050220D054EA01021DD0D8
:10057000C5F30A570246C5F31303C1F31300C1F3D1
:100580000A5640F4801543F48013A7EB0608101BAD
:10059000D64608F2FD3873EB050002D308F10108D6
:1005A00001E092185B41B8F1000F03DA0020014628
:1005B000BDE8F08D00204FF48011064684460EE021
:1005C000171B73EB050705D3121B63EB05030643EB
:1005D0004CEA010C49084FEA300092185B4150EA9E
:1005E0000107EDD152EA030012D082EA040083EA47
:1005F0000501084305D0101BAB4106D201220023A0
:1006000006E000224FF0004302E06FF001025310B9
:100610001AEB06004CEB085110EB0A0041EB0B0102
:10062000BDE8F04D00F0CFB8C10F80EAE07008449B
:10063000CA079623002100F098B89623002211469D
:1006400000F093B80EB540F2334102910021CDE99C
:1006500000110A460B4600F0C5F803B000BD20F0BB
:100660000040C10DC0F3160040F400007F2901DAFC
:1006700000207047962903DCC1F19601C8407047FD
:10068000963988407047C1F30A5210B5C1F313017F
:1006900040F2FF3341F480119A4201DA002010BD8C
:1006A00040F233439A42A2F2334203DC5242FFF754
:1006B0005BFD10BD904010BD00F0004230F00040E6
:1006C0000AD0C10D01F56071C0F3160042EA015174
:1006D000C20840071143704700200146704701F0EF
:1006E000004330B421F0004150EA010206D00A0D67
:1006F000A2F56072C1F31301002A02DC30BC0020B5
:100700007047440F44EAC104C100E01830BC00EB5C
:10071000C25000F021B8202A04DB203A00FA02F18E
:10072000002070479140C2F1200320FA03F31943DF
:1007300090407047202A06DBCB17203A41FA02F09E
:1007400043EAE07306E041FA02F3D040C2F120022E
:1007500091400843194670470029A8BF7047401CC4
:10076000490008BF20F00100704710B4B0FA80FCC7
:1007700000FA0CF050EA010404BF10BC704749B104
:10078000CCF1200421FA04F411FA0CF118BF012174
:1007900021430843A3EB0C01CB1D4FEA00614FEA54
:1007A000102042BF002010BC704700EBC350104423
:1007B0000029A4BF10BC7047401C490008BF20F0AE
:1007C000010010BC704710B5141E73F1000408DA64
:1007D000401C41F1000192185B411A4301D120F005
:1007E000010010BD2DE9F04D92469B4611B1B1FAC2
:1007F00081F202E0B0FA80F220329046FFF78BFFE0
:1008000004460F4640EA0A0041EA0B0153465A46A5
:10081000084313D0114653EA010019D0C8F1400231
:100820005046FFF7A1FC05460E4650465946424643
:10083000FFF771FF084305D0012004E02046394648
:10084000BDE8F08D0020054346EAE0762C433743AF
:100850000A986305E40AA0EB08000022FD0A44EAB6
:1008600047540A3002D500200146E9E70105101976
:100870006941DDE9084500196941BDE8F04DA2E78D
:10088000064C074D06E0E06840F0010394E80700DD
:1008900098471034AC42F6D3FFF74EFCB060000826
:1008A000D060000870B5044680260A2005F07CFA66
:1008B000A18B0022A06900F0EDFE0A2005F074FA79
:1008C0000421204600F0BFF8002511E00A2005F0C1
:1008D0006BFAA1890122A06800F0DCFE0A2005F075
:1008E00063FAA1890022A06800F0D4FE681CC5B29A
:1008F000102DEBDB002520E00A2005F055FAA18938
:100900000122A06800F0C6FE06F03C0028B1A18AD2
:100910000122206900F0BEFE04E0A18A00222069C5
:1009200000F0B8FE76100A2005F03EFAA1890022F8
:10093000A06800F0AFFE681CC5B2082DDCDB6420A7
:1009400005F032FAA18B0122A06900F0A3FE70BD70
:100950007CB504460D4601221D49684600F03CF86E
:10096000DDE90001C4E900014FF4807218496846CE
:1009700000F032F8DDE90001C4E906014FF400722D
:100980001449684600F028F8DDE90001C4E90201D5
:1009900002220F49684600F01FF8DDE90001C4E9B2
:1009A0000401A1890122A06800F074FEA18B01223C
:1009B000A06900F06FFEA1880122206800F06AFEA5
:1009C000642005F0F1F92046FFF76CFF7CBD0000C4
:1009D00000080140001001401CB50091ADF8042052
:1009E000DDE90034C0E900341CBD2DE9F0410446C6
:1009F0000D46082705B90825002620E00A2005F045
:100A0000D3F9A1890122A06800F044FE07EA05009D
:100A100028B1A18A0122206900F03CFE04E0A18AED
:100A20000022206900F036FE7F100A2005F0BCF994
:100A3000A1890022A06800F02DFE701CC6B2042E11
:100A4000DCDBBDE8F0812DE9F04104460D460827C6
:100A5000002620E00A2005F0A7F9A1890122A0685C
:100A600000F018FE07EA050028B1A18A01222069DA
:100A700000F010FE04E0A18A0022206900F00AFEC6
:100A80007F100A2005F090F9A1890022A06800F0EB
:100A900001FE701CC6B2042EDCDBBDE8F0812DE93E
:100AA000F0410446884615464FF400470A2005F0F9
:100AB0007BF9A18B0022A06900F0ECFD0A2005F073
:100AC00073F901212046FFF7BEFF41462046FFF79C
:100AD0008CFF002620E00A2005F066F9A18901229A
:100AE000A06800F0D7FD07EA050028B1A18A01221D
:100AF000206900F0CFFD04E0A18A0022206900F007
:100B0000C9FD7F100A2005F04FF9A1890022A068D5
:100B100000F0C0FD701CC6B2102EDCDB0A2005F010
:100B200043F9A18B0122A06900F0B4FDBDE8F0817A
:100B30007CB504460D469DBB4FF480423249684661
:100B400000F068F8DDE90001C4E9000140222F4906
:100B5000684600F05FF8DDE90001C4E904014FF4E4
:100B600000422949684600F055F8DDE90001C4E972
:100B7000020180222549684600F04CF8DDE90001B9
:100B8000C4E90601642005F00FF9002280211F4806
:100B900000F080FD012291031B4800F07BFD31E055
:100BA000FFE710221A49684600F034F8DDE9000139
:100BB000C4E9000140221649684600F02BF8DDE93F
:100BC0000001C4E9040120221149684600F022F81E
:100BD000DDE90001C4E9020180220D49684600F008
:100BE00019F8DDE90001C4E90601642005F0DCF82C
:100BF00000228021064800F04DFD0122102104480A
:100C000000F048FD7CBD0000000C014000100140D8
:100C1000000801401CB50091ADF80420DDE9003466
:100C2000C0E900341CBD70B504460025A18B01222B
:100C3000A06900F02FFD022005F0B6F8A18B00227C
:100C4000A06900F027FD012005F0AEF8002616E0AF
:100C5000A1890122A06800F01DFDA18A206900F091
:100C600011FD0543A1890022A06800F013FD0F2E9D
:100C700003DA4FF6FF7000EA4505701CC6B2102E6D
:100C8000E6DB284670BD000010B50446012C0AD1F1
:100C900001220102134800F0FDFC0022A1021248CB
:100CA00000F0F8FC0CE05CB900224FF480710D48B4
:100CB00000F0F0FC00224FF480610B4800F0EAFCE9
:100CC0000A2005F071F800228021064800F0E2FCBD
:100CD0000A2005F069F801228021024800F0DAFCC0
:100CE00010BD0000000C01400010014010B504468A
:100CF000012C0AD10122C103134800F0CBFC0022D1
:100D0000E102124800F0C6FC0CE05CB900224FF48E
:100D100000410D4800F0BEFC00224FF400610B487A
:100D200000F0B8FC0A2005F03FF800224FF4005113
:100D3000064800F0AFFC0A2005F036F80122510306
:100D4000024800F0A7FC10BD00080140001001405F
:100D500000BFFEE770B505460C46012C06D10848D9
:100D600001F06EFC074801F06BFC08E0064801F05A
:100D700076FC044801F073FC014801F070FC70BD82
:100D8000DC0900205C0900209C09002010B501222C
:100D90002021024800F07EFC10BD0000000C014044
:100DA00030B590F840500124AC40C56B6C600468CD
:100DB00063604468102C04D10468A2600468E16098
:100DC00003E00468A1600468E26030BD7047000081
:100DD00010B50446042001F059FB0148047010BD11
:100DE0001400002010B500222021024800F052FC1F
:100DF00010BD0000000C01402DE9F04F89B0824683
:100E00000C469146A069401CA06121886068084496
:100E10006060A189206908442061BAF81810A069AF
:100E200088427DD3454801F01AFCA069FFF705FC14
:100E300005466068FFF701FC06462946FFF72EFAD3
:100E4000A060A069FFF7F9FB05462069FFF7F5FBF5
:100E500006462946FFF722FA606199F80500401E10
:100E6000C1B2374802F0F4FB8346FFF725FC054684
:100E70000E46A068FFF720FC0022324BCDE90001AE
:100E8000FFF7F1FA0022304BCDE90201FFF75DFBDD
:100E900000222E4BCDE90401FFF7DFFA2A46334644
:100EA000CDE90601FFF751FB0746FFF718FCA060EC
:100EB00099F8090001280CD1A068FFF7FDFB07464F
:100EC0004FF06632224BFFF7CEFA0546FFF707FCDC
:100ED000A06020496069FFF7E1F98346FFF7ECFB6A
:100EE00007460022174BFFF7BEFA0546FFF7F7FB50
:100EF00060616069FFF7E0FB07460022134BFFF7D4
:100F0000ACFA0546FFF7EBFB606199F80800012891
:100F10000ED1A068FFF7D0FB05464FF0663200E027
:100F20000AE00B4BFFF79FFA0746FFF7D8FBA060DC
:100F3000002009B0BDE8F08F0120FAE75C0900202D
:100F40000000204100000440E0FFEF400000F43FBB
:100F50006666184000FF7F4710B5054801F07FFB2B
:100F6000044801F07CFB01200349087010BD00001B
:100F70009C0900205C0900204400002070B5054653
:100F80000C46207810B90A20607101E02078607169
:100F90006078E070A0782071687803F049F8607993
:100FA00003F060F8A07910B1FFF7F0FE01E0FFF761
:100FB00019FF70BD10B50378012B5AD19378437097
:100FC000D37C947C43EA04238380D37D947D43EADD
:100FD0000423C380537E147E43EA04230383537C9B
:100FE000147C43EA04234383438B642493FBF4F38C
:100FF0004383D37A947A43EA04231BB2C381537B9D
:10100000147B43EA04231BB203825379147943EA25
:1010100004231BB20381D379947943EA04231BB2DE
:101020004381537A147A43EA04231BB28382D37B2D
:10103000947B43EA04231BB2C382038B4FF47A747C
:101040006343C48893FBF4F38488E31A0A3B1BB21E
:101050008383B0F91C30002B01DA00238383C3891A
:10106000438203898381937E0B70D37E4B70137F01
:101070008B7010BD014600200A68126822F00E0233
:101080000B681A600A68126822F001020B681A6085
:1010900091F8403001229A40CB6B5A60012281F8CE
:1010A000212000BF002281F8202000BF70470000EF
:1010B00070B50446002594F82100022803D00420CE
:1010C000A0630125C1E02068006820F00E002168BF
:1010D00008602068006820F00100216808605C4911
:1010E0002068884252D95A4978392068884201D10B
:1010F000012047E0564964392068884201D1102018
:1011000040E0534950392068884201D1801539E0C8
:101110004F493C392068884201D1801432E04C4963
:1011200028392068884202D14FF480302AE04849AB
:1011300014392068884202D14FF4801022E04449DB
:101140002068884201D140041CE04249206888425E
:1011500001D1012016E03F4914312068884201D1B5
:1011600010200FE03B4928312068884201D18015CA
:1011700008E038493C312068884201D1801401E000
:101180004FF480303349091F086051E03049783905
:101190002068884201D1012047E02D496439206848
:1011A000884201D1102040E0294950392068884206
:1011B00001D1801539E026493C392068884201D1A7
:1011C000801432E0224928392068884202D14FF445
:1011D00080302AE01E4914392068884202D14FF439
:1011E000801022E01A492068884201D140041CE0A6
:1011F00018492068884201D1012016E015491431B0
:101200002068884201D110200FE01249283120685F
:10121000884201D1801508E00E493C31206888429F
:1012200001D1801401E04FF48030094980394860D1
:10123000012084F8210000BF002084F8200000BFB6
:10124000606B10B12046616B8847284670BD000076
:1012500080000240080402400146002209B9012032
:101260007047204B086898420BD21F4B0868C01A81
:101270001423B0FBF3F0800008641B480838C863EF
:101280000AE0184B0868C01A1423B0FBF3F0800082
:10129000086414480838C863022081F821000868EF
:1012A000026843F6F0708243D1E901031843CB682A
:1012B00018430B6918434B6918438B691843CB6972
:1012C000184302430868026000208862C86208630D
:1012D00048638863012081F82100002081F8200004
:1012E00000BFBDE708040240080002402DE9F041BC
:1012F00004460D4616461F464FF000082068006859
:1013000020F00100216808603B463246294620460D
:10131000FFF746FD2068006840F001002168086082
:101320004046BDE8F08131B500F0BAF90546009CB1
:10133000601C00B1641C00BF00F0B2F9401BA04269
:10134000FAD338BD2DE9F8470246002400200025D5
:101350008446002700237BE14FF0010808FA03F4DC
:10136000D1F8008008EA0400A0427DD1DFF8ECA2A9
:10137000D1F80480A8EB0A09D0453AD014DCB8F1C2
:10138000030F50D009DCB8F1000F31D0B8F1010FD4
:101390001CD0B8F1020F49D120E0B8F1110F18D0DC
:1013A000B8F1120F42D11EE0B9F5881F25D006DC36
:1013B000B9F5803F20D0B9F5801F37D11AE0B9F5D3
:1013C000001F18D0B9F5041F30D117E0D1F80CC0B8
:1013D0002DE0D1F80C8008F1040C28E0D1F80C8045
:1013E00008F1080C23E0D1F80C8008F10C0C1EE089
:1013F00000BF00BF00BF00BF00BF00BFD1F8088022
:10140000B8F1000F02D14FF0040C0BE0D1F80880C6
:10141000B8F1010F03D14FF0080C146102E04FF056
:10142000080C546103E04FF0000C00E000BF00BF67
:10143000FF2801D8904601E002F104084646FF2843
:1014400002D84FEA830803E0A3F108084FEA8808AE
:101450004746D6F800804FF00F0909FA07F928EA45
:1014600009080CFA07F900E07AE048EA0908C6F82A
:101470000080D1F8048008F08058B8F1805F6FD107
:1014800000BFDFF8DC81D8F8188048F00108DFF8E9
:10149000D091C9F81880C846D8F8188008F001081B
:1014A000CDF8008000BF00BF4FEAB9384FEA93097A
:1014B00058F829504FEA83784FEA18794FF00F080F
:1014C00008FA09F825EA0805DFF89881424502D1B3
:1014D0004FF0000824E0DFF89081424502D14FF040
:1014E00001081DE0DFF88481424502D14FF0020877
:1014F00016E0DFF87C81424502D14FF003080FE08F
:10150000DFF87081424502D14FF0040808E0DFF8AF
:101510006881424502D14FF0050801E04FF006080E
:101520004FEA83794FEA197908FA09F848EA05057C
:10153000DFF848814FEA930948F82950D1F8048030
:1015400008F48038B8F5803F0BD1DFF83481D8F843
:10155000008048EA0008DFF82891C9F800800AE016
:1015600075E0DFF81C81D8F8008028EA0008DFF871
:101570001091C9F80080D1F8048008F40038B8F55B
:10158000003F0ED1DFF8F88008F10408D8F8008099
:1015900048EA0008DFF8E89009F10409C9F800807A
:1015A0000DE0DFF8DC8008F10408D8F8008028EAB4
:1015B0000008DFF8CC9009F10409C9F80080D1F8DF
:1015C000048008F48018B8F5801F0ED1DFF8B080D1
:1015D00008F10808D8F8008048EA0008DFF8A09071
:1015E00009F10809C9F800800DE0DFF8948008F1DE
:1015F0000808D8F8008028EA0008DFF8849009F18C
:101600000809C9F80080D1F8048008F40018B8F57A
:10161000001F0ED1DFF8688008F10C08D8F80080B0
:1016200048EA0008DFF8589009F10C09C9F8008071
:101630000DE0DFF84C8008F10C08D8F8008028EAAB
:101640000008DFF83C9009F10C09C9F800805B1C28
:10165000102BFFF481AEBDE8F887000000001110E8
:101660000010024000080140000C01400010014041
:101670000014014000180140001C01400800014016
:1016800000040140024693680B400BB1012000E0CA
:10169000002070470AB1016101E00B04036170474B
:1016A00001480068704700001000002002480068F0
:1016B000401C0149086070471000002010B5084820
:1016C000006840F0100006490860032000F0B4F8FC
:1016D000002000F007F800F019F8002010BD00000D
:1016E0000020024070B50446074800684FF47A7144
:1016F000B0FBF1F5284600F0DEFE00222146501E28
:1017000000F05BF8002070BD0000002008B500BFAD
:101710002148806940F001001F49886108468069BE
:1017200000F00100009000BF00BF032000F084F82B
:10173000002211466FF00B0000F03FF80022114626
:101740006FF00A0000F039F8002211466FF009002E
:1017500000F033F800221146501F00F02EF800224E
:101760001146101F00F029F800221146901E00F0CB
:1017700024F800221146501E00F01FF800BF074851
:10178000406820F0E060054948600846406840F045
:101790000070486000BF08BD00100240000001401A
:1017A00000BF00F01F02012191404209920002F1A6
:1017B000E022C2F8001100BF70472DE9F05F8046BB
:1017C0000D461646002701F059FF074639462A46BE
:1017D000334601F00700C0F1070ABAF1040F02D93D
:1017E0004FF0040A01E0C0F1070AD14600F1040AF3
:1017F000BAF1070F02D24FF0000A01E0A0F1030A8C
:10180000D4464FF0010A0AFA09FAAAF1010A0AEAD3
:10181000020A0AFA0CFA4FF0010B0BFA0CFBABF1BF
:10182000010B0BEA030B4AEA0B042146404601F088
:101830002DFFBDE8F09F000000BF00F00702064B3F
:1018400019684FF6FF031940044B0B4343EA02218A
:10185000014B196000BF70470CED00E00000FA0575
:1018600070B504460D4604F1280101EB45114A69A3
:101870002946D4F85C0403F007FA70BD70B504463D
:101880000D4604F50A7101EB45114A692946D4F861
:101890005C0403F066FA70BD70B504460D46002680
:1018A00005F08000802806D105F07F0104F12800B2
:1018B00000EB411603E004F50A7000EB451600202A
:1018C000B07005F07F003070C5F3C010707000BFBD
:1018D00094F82804012801D1022070BD012084F869
:1018E000280400BF3146206803F0A1FF00BF00209C
:1018F00084F8280400BF00BFEFE72DE9F047044655
:101900000D46174698464FF00009002605F0800066
:10191000802806D105F07F0104F1280000EB411674
:1019200005E005F07F0104F50A7000EB411605F0B3
:101930007F00307005F08000C0097070376186F854
:10194000038000BF94F82804012802D10220BDE8DA
:10195000F087012084F8280400BF3146206803F096
:101960008EFD00BF002084F8280400BF4846EEE743
:101970002DE9F04105460E4617469846002406F02C
:101980007F0105F50A7000EB41146761C4F8188007
:101990000020E061607006F07F00207006F07F009C
:1019A00020B92146286803F0DFFF03E021462868BC
:1019B00003F0DAFF0020BDE8F08170B504460D4663
:1019C000002605F08000802806D105F07F0104F193
:1019D000280000EB411603E004F50A7000EB451601
:1019E0000120B07005F07F003070C5F3C01070703A
:1019F00000BF94F82804012801D1022070BD012005
:101A000084F8280400BF3146206803F06AFF05F01F
:101A10007F0020B904F22C41206803F005FF00BFCD
:101A2000002084F8280400BF00BFE7E72DE9F0415B
:101A300005460E4617469846002406F07F0105F13C
:101A4000280000EB41146761C4F818800020E061B1
:101A50000120607006F07F00207006F07F0020B942
:101A60002146286803F080FF03E02146286803F040
:101A70007BFF0020BDE8F08110B50446206804F02B
:101A800015F900F40040B0F5004F02D1204601F0F6
:101A9000C9FF206804F00AF900F48060B0F5806F97
:101AA0000ED12068B0F8440020F480602168A1F8CD
:101AB0004400204600F094F80021204600F0B3F8DE
:101AC000206804F0F3F800F48040B0F5804F07D1AF
:101AD0002068B0F8440020F480402168A1F8440058
:101AE000206804F0E3F800F40050B0F5005F07D17F
:101AF0002068B0F8440020F400502168A1F84400A8
:101B0000206804F0D3F800F48050B0F5805F1AD15B
:101B10002068B0F8400020F004002168A1F84000DF
:101B20002068B0F8400020F008002168A1F84000CB
:101B3000204600F06AF82068B0F8440020F4805095
:101B40002168A1F84400206804F0B0F800F40060B7
:101B5000B0F5006F20D12068B0F8400040F00800D8
:101B60002168A1F840002068B0F8440020F400602B
:101B70002168A1F844002068B0F8400040F004005B
:101B80002168A1F84000206804F090F8C0F300300C
:101B900010B9204600F06CF8206804F087F800F4D3
:101BA0000070B0F5007F0AD12068B0F8440020F43E
:101BB00000702168A1F84400204600F02DF820684C
:101BC00004F074F800F48070B0F5807F07D12068CD
:101BD000B0F8440020F480702168A1F8440010BDE2
:101BE00070B504460125A068022801D100BF01E0BC
:101BF000012500BF00BF2946D4F85C0403F0A8F912
:101C0000D4F85C0403F06AF970BD10B50446D4F84A
:101C10005C0403F085F910BD10B50446D4F85C04EB
:101C200003F085F910BD70B504460D4600BF94F869
:101C30002804012801D1022070BD012084F8280465
:101C400000BF84F824502946206804F048F800BFFB
:101C5000002084F8280400BF00BFEDE710B504465B
:101C600004F22C41D4F85C0403F098F910BD000094
:101C700010B50446D4F85C0403F0E9F9A06928B172
:101C80000348006840F006000149086010BD0000EC
:101C900010ED00E0F8B5044600260025207800F09D
:101CA000010000286BD000274348C06900F0805035
:101CB00070B900BF4048C06940F080503E49C861DB
:101CC0000846C06900F08050009000BF00BF0127A7
:101CD0003A48006800F48070B0B93848006840F4B1
:101CE000807036490860FFF7DBFC064606E0FFF728
:101CF000D7FC801B642801D90320F8BD2F48006859
:101D000000F480700028F2D02B48006A00F440757F
:101D10002DB3A08800F44070A84220D02648006A65
:101D200020F4407501202649086000200860224800
:101D3000056205F0010090B1FFF7B2FC064608E02D
:101D4000FFF7AEFC801B41F28831884201D90320A5
:101D5000D3E71948006A00F002000028F0D01648C6
:101D6000006A20F440706168084313490862012F3B
:101D700004D10846C06920F08050C86100BF2078B7
:101D800000F00200022807D10B48406820F44040D0
:101D9000A168084308494860207800F01000102826
:101DA00007D10548406820F4800061690843024972
:101DB00048600020A1E700000010024000700040D1
:101DC0004004424270B504460D4600266248006851
:101DD00000F00700A8420ED25F48006820F007001C
:101DE00028435D4908600846006800F00700A842E3
:101DF00001D0012070BD207800F00200022807D138
:101E00005648406820F0F000A168084353494860F4
:101E1000207800F0010000285DD06068012806D11C
:101E20004E48006800F4003090B90120E2E7606895
:101E3000022806D14948006800F0007040B901202E
:101E4000D8E74648006800F0020008B90120D1E751
:101E50004248406820F00300616808433F494860F9
:101E6000FFF71EFC06466068012810D108E0FFF766
:101E700017FC801B41F28831884201D90320B9E761
:101E80003648406800F00C000428F0D123E0606878
:101E9000022810D108E0FFF703FC801B41F28831D3
:101EA000884201D90320A5E72C48406800F00C00C7
:101EB0000828F0D10FE008E0FFF7F2FB801B41F2A9
:101EC0008831884201D9032094E72448406800F013
:101ED0000C000028F0D12048006800F00700A8425C
:101EE0000ED91D48006820F0070028431A490860F1
:101EF0000846006800F00700A84201D0012079E7F9
:101F0000207800F00400042807D11448406820F429
:101F1000E060E168084311494860207800F008005B
:101F2000082808D10D48406820F46050216940EA33
:101F3000C1000A49486000F03DF808494968C1F30A
:101F40000311074A515CC840064908600020FFF7AA
:101F5000C9FB00204EE700000020024000100240B4
:101F600098600008000000200148006870470000E9
:101F70000000002000B5FFF7F7FF04494968C1F3EE
:101F80000221034A515CC84000BD0000001002401D
:101F9000A860000800B5FFF7E7FF04494968C1F3EE
:101FA000C221034A515CC84000BD0000001002403D
:101FB000A8600008F0B585B00FF2700C9CE8E01046
:101FC00001A8A0E8E0101DA52D68009500210024BF
:101FD0000022002300201A4D696801F00C05FDB1B4
:101FE000042D02D0082D1AD101E016481AE001ADE7
:101FF000C1F38346AB5D01F480355DB1104D6D6872
:10200000C5F340451DF805400E4DB5FBF4F505FB45
:1020100003F202E00C4D03FB05F2104602E000BFA4
:10202000084800BF00BF05B0F0BD00000203040572
:10203000060708090A0B0C0D0E0F10100102000014
:102040000010024000127A0000093D00F8B5044675
:102050000025207800F00100002878D0F84840687A
:1020600000F00C0004280CD0F548406800F00C008B
:10207000082811D1F248406800F48030B0F5803F64
:102080000AD1EF48006800F4003000285FD0606893
:1020900000285CD10120F8BD00BF6068B0F5803F2A
:1020A00006D1E748006840F48030E549086028E040
:1020B000606858B9E248006820F48030E049086060
:1020C0000846006820F4802008601AE06068B0F5D7
:1020D000A02F0BD1DA48006840F48020D84908606E
:1020E0000846006840F4803008600AE0D448006880
:1020F00020F48030D24908600846006820F480202F
:10210000086000BF606888B1FFF7CAFA054606E0BC
:10211000FFF7C6FA401B642801D90320BBE7C84873
:10212000006800F400300028F2D010E0FFF7B8FAA1
:10213000054606E0FFF7B4FA401B642801D90320E6
:10214000A9E7BF48006800F400300028F2D12078E9
:1021500000F00200022857D1B948406800F00C0096
:1021600050B1B748406800F00C00082818D1B448B6
:10217000406800F4803098B9B148006800F002006F
:1021800020B12069012801D0012084E7AC48006813
:1021900020F0F800616940EAC100A949086033E015
:1021A0002069E8B10120A7490860FFF779FA0546E0
:1021B00006E0FFF775FA401B022801D903206AE701
:1021C0009F48006800F002000028F2D09C48006898
:1021D00020F0F800616940EAC1009949086013E005
:1021E000002098490860FFF75BFA054606E0FFF714
:1021F00057FA401B022801D903204CE79048006899
:1022000000F002000028F2D1207800F00800082831
:102210002DD1A069B8B101208B490860FFF740FAC1
:10222000054606E0FFF73CFA401B022801D90320CF
:1022300031E78348406A00F002000028F2D0012014
:1022400001F014FE13E000207F490860FFF728FA30
:10225000054606E0FFF724FA401B022801D90320B7
:1022600019E77748406A00F002000028F2D1207890
:1022700000F00400042873D100267148C06900F002
:10228000805070B900BF6E48C06940F080506C4902
:10229000C8610846C06900F08050009000BF00BFD0
:1022A00001266A48006800F48070B0B96748006889
:1022B00040F4807065490860FFF7F2F9054606E0D2
:1022C000FFF7EEF9401B642801D90320E3E65F48DD
:1022D000006800F480700028F2D000BFE068012898
:1022E00006D15748006A40F001005549086227E0CE
:1022F000E06858B95248006A20F00100504908626D
:102300000846006A20F00400086219E0E068052829
:102310000BD14B48006A40F0040049490862084666
:10232000006A40F0010008620AE04548006A20F0B7
:102330000100434908620846006A20F00400086270
:1023400000BFE068A0B1FFF7ABF9054609E0FFF771
:10235000A7F9401B41F28831884202D903209AE64E
:1023600022E03748006A00F002000028EFD012E0B7
:10237000FFF796F9054608E0FFF792F9401B41F296
:102380008831884201D9032085E62D48006A00F093
:1023900002000028F0D1012E05D12948C06920F0A3
:1023A00080502749C86100BFE069C8B3244840682D
:1023B00000F00C00082860D0E069022848D1002015
:1023C00020490866FFF76CF9054606E0FFF768F953
:1023D000401B022801D903205DE61948006800F07F
:1023E00000700028F2D1206AB0F5803F07D1144870
:1023F000406820F40030A168084311494860D4E9DE
:10240000080108430E49496821F4741108430C4936
:10241000486001200B490866FFF742F9054607E0CE
:102420002DE0FFF73DF9401B022801D9032032E6D9
:102430000348006800F000700028F2D01FE00000A0
:1024400000100240000042428004424200700040FE
:1024500000200C490866FFF723F9054606E0FFF760
:102460001FF9401B022801D9032014E60648006822
:1024700000F000700028F2D101E001200BE60020FE
:1024800009E600000000424200100240042808D182
:102490004FF0E021096941F004014FF0E0221161A1
:1024A00007E04FF0E021096921F004014FF0E0223C
:1024B00011617047704770B504462546681EB0F13B
:1024C000807F01D301200FE0681E4FF0E0214861BA
:1024D0000F214FF0FF3001F0D9F800204FF0E0213C
:1024E000886107200861002070BD10B5FFF7E2FF8A
:1024F00010BD70477047024600BF92F83C000128AB
:1025000001D102207047012082F83C0000BF022068
:1025100082F83D001068406820F070001368586031
:10252000106840680B68184313685860106880682A
:1025300020F0800013689860106880684B6818432A
:1025400013689860012082F83D0000BF002082F8E7
:102550003C0000BF00BFD5E710B504460CB9012010
:1025600010BD94F83D0028B9002084F83C002046B6
:1025700000F00CF8022084F83D00211D206801F0D5
:10258000ABFE012084F83D000020E9E738B50446A1
:102590002068B0F1804F16D100BF2648C06940F0D6
:1025A00001002449C8610846C06900F0010000909C
:1025B00000BF00BF002201211C20FFF7FEF81C20F5
:1025C000FFF7EEF834E01C492068884216D100BFBE
:1025D0001848C06940F002001649C8610846C06941
:1025E00000F00200009000BF00BF002211461D2035
:1025F000FFF7E3F81D20FFF7D3F819E00F49206833
:10260000884215D100BF0B48C06940F00400094959
:10261000C8610846C06900F00400009000BF00BF18
:10262000002205211E20FFF7C8F81E20FFF7B8F88A
:1026300038BD0000001002400004004000080040C7
:1026400001460868C06840F001000A68D060086868
:10265000006840F001000A681060002070470146E1
:102660000868C06820F001000A68D06000BF0868F0
:10267000006A41F21112104050B90868006A9210C5
:10268000104028B90868006820F001000A6810604E
:1026900000BF002070472DE9F04104460D4600269A
:1026A00000BF94F83C00012802D10220BDE8F0816F
:1026B000012084F83C0000BF022084F83D0020681F
:1026C000866826F0770626F47F46206886602868AC
:1026D00050283BD00CDC202860D004DC002853D0EC
:1026E000102865D155E030285DD0402860D141E008
:1026F000602835D070280DD0B0F5805F03D0B0F5DC
:10270000005F55D115E02068806820F0070021683F
:1027100088604EE0D5E902136A68206801F028FE5F
:102720002068866826F0770646F07706206886607F
:102730003FE0D5E902136A68206801F019FE2068BD
:10274000806840F480402168886032E0EA68696807
:10275000206801F023FE5021206801F015FE28E0DA
:10276000EA686968206801F02EFE6021206801F0A7
:102770000BFE1EE0EA686968206801F00FFE402148
:10278000206801F001FE14E00021206801F0FCFD4A
:102790000FE01021206801F0F7FD0AE020212068F9
:1027A00001F0F2FD05E03021206801F0EDFD00E0D0
:1027B00000BF00BF012084F83D0000BF002084F866
:1027C0003C0000BF00BF71E7704710B504462068A9
:1027D0000069C0F34000D8B12068C068C0F3400071
:1027E000B0B16FF0020021680861012020772068F5
:1027F000806900F0030018B12046FFF7E5FF05E00F
:10280000204600F0ADF8204600F0ABF8002020771D
:1028100020680069C0F38000D8B12068C068C0F3A8
:102820008000B0B16FF004002168086102202077B9
:102830002068806900F4407018B12046FFF7C4FF9B
:1028400005E0204600F08CF8204600F08AF80020D1
:10285000207720680069C0F3C000D8B12068C06844
:10286000C0F3C000B0B16FF0080021680861042017
:1028700020772068C06900F0030018B12046FFF7F8
:10288000A3FF05E0204600F06BF8204600F069F851
:102890000020207720680069C0F30010D8B12068BC
:1028A000C068C0F30010B0B16FF01000216808617B
:1028B000082020772068C06900F4407018B12046D5
:1028C000FFF782FF05E0204600F04AF8204600F0BE
:1028D00048F8002020772068006900F0010058B116
:1028E0002068C06800F0010030B16FF0010021687D
:1028F0000861204600F036F820680069C0F3C01077
:1029000058B12068C068C0F3C01030B16FF08000CB
:10291000216808612046FFF7ECFD20680069C0F3DC
:10292000801058B12068C068C0F3801030B16FF0DB
:10293000400021680861204600F07CF820680069AA
:10294000C0F3401058B12068C068C0F3401030B1E7
:102950006FF02000216808612046FFF7CBFD10BD15
:102960007047704710B504462949206809688842B5
:102970000DD12848FEF757F9274988812748FEF7E7
:1029800052F9254908800020254908703EE0254974
:1029900020680968884218D123484078012802D16C
:1029A00000F01AFF32E020484078022802D100F0FF
:1029B00081FE2BE01C484078032803D01A48407859
:1029C000042823D101F0D6FB20E0184920680968CB
:1029D00088421BD116480088401C00B21449088068
:1029E0001148408BB1F9001088420FDC4FF0FF30E6
:1029F0000F4908800D48FFF732FE01200849087092
:102A0000054800F02BFC0748FFF71AFE10BD000038
:102A10005C090020A40B002064000020840B00202F
:102A2000070000209C09002044000020DC09002051
:102A30000A000020704770B50446002520684069F0
:102A4000C0F3C01594F8390021280ED16DB120686B
:102A5000406920F0800021684861206B10B1206B34
:102A6000FEF708FB204601F062FD20684069C0F3D4
:102A7000801594F83A0022280ED16DB12068406983
:102A800020F0400021684861606B10B1606BFEF778
:102A9000F1FA204601F02BFD002070BD70470000C8
:102AA0002DE9F0470446206805682068C66820685C
:102AB00047694FF00008C14605F00F08B8F1000F54
:102AC0000AD105F0200038B106F0200020B12046E0
:102AD00001F037FDBDE8F087B8F1000F6DD007F0C9
:102AE000010018B906F49070002866D005F00100C6
:102AF00030B106F4807018B1E06B40F00100E06383
:102B000005F0040030B107F0010018B1E06B40F0AF
:102B10000200E06305F0020030B107F0010018B1D7
:102B2000E06B40F00400E06305F0080030B107F00E
:102B3000010018B1E06B40F00800E063E06B68B39F
:102B400005F0200028B106F0200010B1204601F069
:102B5000F8FC20684069C0F38019E06B00F00800C1
:102B600010B9B9F1000F22D0204601F0C0FC206856
:102B7000406900F04000B0B12068406920F040009A
:102B800021684861606B50B11748616B4863606BA6
:102B9000FEF78EFA10B1606B416B88470CE020465F
:102BA000FFF77CFF08E02046FFF778FF04E02046AF
:102BB000FFF774FF0020E0638CE705F0800030B180
:102BC00006F0800018B1204601F0F2FD82E705F022
:102BD000400030B106F0400018B1204601F097FCEB
:102BE00078E700BF76E70000F343000810B504461D
:102BF0000CB9012010BDA06900B100E000BF94F83D
:102C0000390028B9002084F83800204600F028F860
:102C1000242084F839002068C06820F4005021681E
:102C2000C860204601F0E0FC2068006920F4904074
:102C3000216808612068406920F02A002168486105
:102C40002068C06840F400502168C8600020E0633C
:102C5000202084F8390084F83A000020CAE70000F8
:102C600010B586B004466C49206888422AD100BF5E
:102C70006A48806940F480406849886108468069F4
:102C800000F48040019000BF00BF48150290022070
:102C900003900320059002A96148FEF753FB4FF40F
:102CA0008060029000200390049002A95C48FEF727
:102CB00049FB002205212520FEF77FFD2520FEF798
:102CC0006FFDA6E057492068884274D100BF534881
:102CD000C06940F400305149C8610846C06900F439
:102CE0000030019000BF00BF04200290022003903A
:102CF0000320059002A94A48FEF724FB0820029011
:102D000000200390049002A94548FEF71BFB4648AB
:102D100046490860102048600021444881608021B5
:102D2000C16000210161416181614FF44051C16185
:102D30000068006820F004003C49096808603B48CE
:102D4000FEF78AFA18B1F52139A002F0F2FF00BFB0
:102D500036482063446200BF334814383B4908605A
:102D6000002048600021394881608021C160002135
:102D7000016141618161C1610068006820F0040067
:102D80003249096808603148FEF766FA20B14FF40D
:102D9000837127A002F0CDFF00BF2C48606344621E
:102DA00000BF002204212620FEF707FD2620FEF7A3
:102DB000F7FC2EE0FFE726492068884229D100BFB2
:102DC0001648C06940F480201449C8610846C069AB
:102DD00000F48020019000BF00BF0815029002207F
:102DE00003900320059002A91A48FEF7ABFA4FF4AE
:102DF0000060029000200390049002A91548FEF79D
:102E0000A1FA002204212720FEF7D7FC2720FEF795
:102E1000C7FC06B010BD00000038014000100240A1
:102E2000000801400044004080000240200B0020C8
:102E30002E2E2F5372632F73746D33326631787870
:102E40005F68616C5F6D73702E630000DC0A0020A8
:102E500000480040000C0140F7B50446154694F8C0
:102E60003A00202844D1019800B10DB90120FEBDDF
:102E700000BF94F83800012801D10220F7E70120B3
:102E800084F8380000BF0198A062A5850020E063A7
:102E9000222084F83A001748616B88621648616BFB
:102EA000C8621648616B08630020616B486301AE1D
:102EB00032682368191D2B46606BFEF717FA00BFB6
:102EC000002084F8380000BF2068C06840F480709B
:102ED0002168C8602068406940F0010021684861AD
:102EE0002068406940F04000216848610020BEE74A
:102EF0000220BCE7574400089D440008074400082E
:102F0000704770472DE9F84304460D4616461F46A4
:102F10004FF0000994F8390020285CD105B116B9AA
:102F20000120BDE8F88300BF94F83800012801D1E2
:102F30000220F6E7012084F8380000BF0020E0639B
:102F4000212084F83900FEF7ABFB8146A684E68495
:102F50002BE0E08C401EE084A068B0F5805F16D1C5
:102F60004B46002280212046009701F055FC08B115
:102F70000320D6E7A846B8F80000C0F3080021688F
:102F80004860206908B9AD1C0FE06D1C0DE04B4690
:102F9000002280212046009701F03EFC08B103206A
:102FA000BFE715F8010B21684860E08C0028D0D1FC
:102FB0004B46002240212046009701F02DFC08B12D
:102FC0000320AEE7202084F8390000BF002084F8F9
:102FD000380000BFA5E70220A3E70000F7B50446CC
:102FE000154694F8390020283DD1019800B10DB95B
:102FF0000120FEBD00BF94F83800012801D1022055
:10300000F7E7012084F8380000BF01982062A5840A
:10301000E5840020E063212084F839001348216B07
:1030200088621348216BC8621248216B0863002034
:10303000216B486301AE23681A1D31682B46206B53
:10304000FEF754F96FF040002168086000BF0020CF
:1030500084F8380000BF2068406940F08000216893
:1030600048610020C5E70220C3E70000AB44000828
:10307000E1440008074400087047704700BFFEE7BE
:1030800010B5FEF71BFB01F083F800F003F900F028
:10309000EFF800F0A9FA002240212548FEF7FAFADD
:1030A00000224FF480712348FEF7F4FA22480068AA
:1030B000C06840F0400020490968C8601E480068A8
:1030C000C06820F080001C490968C8601A48006880
:1030D000C06840F0100018490968C8606FF04000EF
:1030E0001549096808606FF0800013490968086095
:1030F0004820FDF76DFE00211048FDF729FC002156
:103100000F48FDF715FD01210E48FDF711FD0020C8
:10311000FDF7ECFD0020FDF7B7FD01221103054886
:10312000FEF7B8FA012204210748FEF7B3FA10BDF2
:10313000000C0140001001405C0A0020640B0020DC
:10314000840B0020A40B0020001401400121017019
:103150002349244A11602449244A11600021244A49
:1031600011604FF07E51234A11602349234A1160B8
:103170002349244A11602449244A11602449254ADC
:1031800011602549254A1160254951602549916002
:103190002549D16025491161254951612549916130
:1031A0002549D16100211162244951622449254AEF
:1031B000116025495160254991600B49D16023492F
:1031C000A8311161224951614FF07E51916121492D
:1031D000D1614FF07E5111621F495162704700006A
:1031E000A6B8AA3B24000020B537803F2800002065
:1031F0002C00002030000020DD088BBB34000020B4
:1032000040FC7F3F38000020F25858BA3C000020B4
:10321000E5F27F3F400000209B0022BA0C0900200D
:10322000950070B8F05CCFB6F3E325B55CB684B317
:10323000FA56D4B159DB93B07FEE19B00F300CB011
:10324000AC3A6B3F340900202DC87D3F992A803F5E
:10325000EE7C7F3FEB1E813FF54A813F00210180DC
:10326000816041608181416101618161704700003D
:1032700008B500BF0648406940F0010004494861B4
:103280000846406900F00100009000BF00BF08BD83
:103290000010024000B585B000BF5348806940F07F
:1032A0002000514988610846806900F020000090A4
:1032B00000BF00BF00BF0846806940F01000886171
:1032C0000846806900F01000009000BF00BF00BFFA
:1032D0000846806940F0040088610846806900F073
:1032E0000400009000BF00BF00BF0846806940F0A6
:1032F000080088610846806900F00800009000BF5F
:1033000000BF002242F6BF513848FEF7C3F9012240
:1033100040F201113648FEF7BDF9002248F2B20131
:103320003348FEF7B7F900224FF2FF113148FEF79C
:10333000B1F9012251022D48FEF7ACF90122110327
:103340002A48FEF7A7F9012204212B48FEF7A2F92B
:1033500043F6BF700190012002900320049001A960
:103360002248FDF7EFFF48F2B310019001200290D0
:103370000320049001A91E48FDF7E4FF40200190BE
:10338000002002900120039001A91948FDF7DAFFFF
:103390004FF2FF100190012002900320049001A938
:1033A0001448FDF7CFFF402001900020029001203B
:1033B000039001A90D48FDF7C5FF4FF4805001901F
:1033C000012002900220049001A90848FDF7BAFFED
:1033D00004200190012002900220049001A90648D7
:1033E000FDF7B0FF05B000BD001002400010014025
:1033F00000080140000C01400014014010B586B0E7
:1034000004464FF080401749086041F61F4048606D
:10341000002114488160601E1249C86000211148D3
:103420000161FFF799F818B1CF210FA002F081FCDC
:103430004FF48050029002A90A48FFF72CF918B106
:10344000D52109A002F075FC00200090019069468A
:103450000448FFF750F818B1DC2103A002F069FC22
:1034600006B010BD5C0900202E2E5C4472697665A2
:1034700072735C557365725F4472697665725C53F2
:1034800072635C68617264776172652E630000002C
:103490002DE9F04786B082461F482049086047F270
:1034A0007F00486000211D4881605046FDF7CAF842
:1034B000804600221A4BFCF7D6FF06460022194B25
:1034C000FCF7CBFF0446FDF7DEF81449C860002185
:1034D00012480161FFF740F818B1EF2112A002F085
:1034E00028FC4FF48050029002A90C48FFF7D3F853
:1034F00018B1F5210CA002F01CFC002000900190F6
:1035000069460648FEF7F7FF18B1FC2106A002F055
:1035100010FC06B0BDE8F087000400409C090020C4
:10352000000004400000F03F2E2E5C447269766576
:1035300072735C557365725F4472697665725C5331
:1035400072635C68617264776172652E630000006B
:1035500000B587B018481949086041F61F40486017
:1035600000211648816040F2E731C160002101610D
:10357000FEF7F2FF20B140F20D1111A002F0D9FBCD
:103580004FF48050039003A90C48FFF784F820B152
:1035900040F213110AA002F0CCFB0020019002902F
:1035A00001A90648FEF7A7FF20B14FF48D7104A0D2
:1035B00002F0BFFB07B000BD00080040DC0900209E
:1035C0002E2E5C447269766572735C557365725F0A
:1035D0004472697665725C5372635C686172647789
:1035E0006172652E6300000010B50C480C4908603C
:1035F0004FF4E1304860002109488160C1600161F9
:103600000C21416100218161C161FFF7EFFA20B116
:1036100040F24D1103A002F08CFB10BD00440040AD
:103620005C0A00202E2E5C447269766572735C55CC
:103630007365725F4472697665725C5372635C682D
:10364000617264776172652E6300000000BFFEE75F
:103650002DE9F04107460C464FF07E56002506E066
:1036600031463846FCF7E8FD0646681CC5B2A5425F
:10367000F6DB3046BDE8F081704700000248006884
:10368000C0F30220704700000CED00E010B50028E8
:1036900007DA0A07140E054A00F00F031B1FD45463
:1036A00003E00A07130E024A135410BD18ED00E0A0
:1036B00000E400E010B54348B0F90E004149B1F90B
:1036C000101088423EDC4048007801280DD13D4969
:1036D000B1F91600002801DB014600E04142394AF9
:1036E000528A114409B2374A51823648B0F9120061
:1036F0003449B1F91010884202DDFDF72DFC0CE0D1
:10370000304AB2F912105078304A00F0F7F802202F
:1037100002F04AFB2E48FEF793FF2A49B1F9160042
:10372000002801DB014600E04142264AB2F912209E
:103730001144244AB2F91020914241DD012025496B
:1037400008773DE02048007801280DD11D49B1F9E6
:103750001600002801DB014600E04142194A528A66
:10376000511A09B2174A51821648B0F91200154988
:10377000B1F91010884202DAFDF7EEFB0CE0114AB5
:10378000B2F912105078114A00F0B8F8022002F095
:103790000BFB0F48FEF754FF0A49B1F91600002849
:1037A00001DB014600E04142064AB2F91220511AFB
:1037B000044AB2F91020914202DA01200549087743
:1037C00010BD0000440000200C0000200009002073
:1037D0005C0900206400002010B54348B0F90800DF
:1037E0004149B1F90A1088423EDC4048007801287E
:1037F0000DD13D49B1F91400002801DB014600E07C
:103800004142394A9289114409B2374A9181364876
:10381000B0F90C003449B1F90A10884202DDFDF715
:103820009BFB0CE0304AB2F90C105078304A00F0A3
:1038300065F8022002F0B8FA2E48FEF701FF2A4987
:10384000B1F91400002801DB014600E04142264A9C
:10385000B2F90C201144244AB2F90A20914241DD08
:103860000120254908773DE02048007801280DD146
:103870001D49B1F91400002801DB014600E0414276
:10388000194A9289511A09B2174A91811648B0F91A
:103890000C001549B1F90A10884202DAFDF75CFB09
:1038A0000CE0114AB2F90C105078114A00F026F8D9
:1038B000022002F079FA0F48FEF7C2FE0A49B1F978
:1038C0001400002801DB014600E04142064AB2F93B
:1038D0000C20511A044AB2F90A20914202DA01205E
:1038E0000549087710BD0000440000200C000020AE
:1038F000000900205C090020640000202DE9F74F3A
:103900008AB00C46914614F5166F02DCB4F5166FBA
:1039100032DA002089F8080000210A9800F060FBE4
:103920002046FCF781FE37490390FCF7B7FC049072
:10393000354801680498FCF77FFC834633480168EA
:103940005846FCF721FC0590FCF7B6FE0022304BF0
:10395000CDE90601FCF784FD00222E4BCDE90801DC
:10396000FCF7F3FD054600222B4BFCF77CFD0746D8
:10397000FCF7B5FE824638E0012089F808000121F5
:103980000A9800F02DFB2046FCF74EFE1D490190E1
:10399000FCF784FC83461C4801685846FCF74CFC45
:1039A00002901A4801680298FCF7EEFB0390FCF7BE
:1039B00083FE4FF06632194BCDE90401FCF7C5FDDB
:1039C00007460022124BFCF74BFD05460022114B27
:1039D000FCF7BBFD0022104BCDE90601FCF743FDCF
:1039E000CDE90801FCF77BFE82465046FCF737FE26
:1039F00085B22A4601210A48FDF751F80DB0BDE80D
:103A0000F08F000000007A442800002024000020ED
:103A10000000044000001440E0FFEF4066661840DC
:103A2000640B00202DE9FC410546002400270026F8
:103A30000020019000900CE2BDF8040000F00F0699
:103A4000002E7DD1BDF8040000F0100088BB28686E
:103A5000008848F60F7108402968088005F128049D
:103A60002868B0F85010207801EBC000801C29684D
:103A700001F5806131F81000C0F30900E061E169EF
:103A800060690844606100212846FDF7E9FE95F869
:103A900024000028CFD0A0690028CCD195F82400BC
:103AA00040F080002968A1F84C00002085F824002F
:103AB000CFE1FFE705F50A74286800880090BDF89B
:103AC000000000F4006018B32868B0F850102078A7
:103AD00001EBC000801D296801F5806131F81000FC
:103AE000C0F30900E061A18B8BB2A28805F22C41E2
:103AF000286802F0E0F828680088C0F30E0048F655
:103B00008F710840296808802846FEF7A7F8A0E1D1
:103B1000BDF8000000F4004000288CD02868008820
:103B2000C0F30E0048F68F710840296808802868A5
:103B3000B0F85010207801EBC000801D296800E02B
:103B400055E001F5806131F81000C0F30900E06133
:103B5000E06960B1B4F81CC01FFA8CF3A2886169F7
:103B6000286802F0A8F8E1696069084460610021F2
:103B70002846FDF783FE2A6802F580622868B0F8BF
:103B80005000801D02EB400122693E2A10D92269B3
:103B9000C2F34F10227C02F01F020AB9421E90B2FB
:103BA0004FF6FF7202EA802242F400420A600DE002
:103BB0002269C2F34F00227C02F001020AB1421CCA
:103BC00090B24FF6FF7202EA80220A6029680988E3
:103BD0004BF68F7201EA020080F4805080F40050AE
:103BE00040F4004141F080012A68118031E1710008
:103BF000286830F811000090BDF8000000F4004083
:103C000000287CD07100286830F81100C0F30E0045
:103C100048F68F7108407200296821F8120005F5F6
:103C20000A7000EB4614A07AA8B92868B0F85010C2
:103C3000207801EBC000801D296801F5806131F812
:103C40001000C0F30907EFB3A28861693B462868FA
:103C500002F031F844E021784900286830F811007A
:103C600000F48040A8B12868B0F85010207801EB2B
:103C7000C000801C296801F5806131F81000C0F394
:103C80000907DFB1E28861693B46286802F013F852
:103C900014E02868B0F85010207801EBC000801DB7
:103CA000296801F5806131F81000C0F309072FB1D0
:103CB000228961693B46286801F0FDFF21784900AF
:103CC000286800E00CE030F8110048F68F710840D9
:103CD00048F2C001084322785200296821F81200F6
:103CE000E0693844E061606938446061A06910B1FE
:103CF0002069B84204D921782846FDF7BFFD05E0C8
:103D000021782846D4E90523FDF732FEBDF80000EE
:103D100000F0800000287CD005F1280000EB46145C
:103D20007100286830F8110048F60F7108407200E1
:103D3000296821F81200A07AD0B92868B0F850108C
:103D4000207801EBC000801C296801F5806131F802
:103D50001000C0F30900E061E069E8B3B4F81CC0EA
:103D60001FFA8CF3A2886169286801F0BFFF4EE05A
:103D700021784900286830F8110000F04000D0B1E7
:103D80002868B0F85010207801EBC000801C29682A
:103D900001F5806131F81000C0F30900E061E069CD
:103DA00028B3B4F81CC01FFA8CF3E2886169286854
:103DB00001F09CFF1BE02868B0F85010207801EB60
:103DC000C000801D296801F5806131F81000C0F342
:103DD0000900E061E06900E019E040B1B4F81CC0FE
:103DE0001FFA8CF322896169286801F07FFF21782E
:103DF0004900286830F8110048F68F7108404CF2ED
:103E00008001084322785200296821F812002868AE
:103E100000E01EE0B0F85010207801EBC000801CDC
:103E2000296801F5806131F81000C0F30900E061F4
:103E3000E169606908446061A06920B92178284679
:103E4000FDF70EFD05E021782846D4E90523FDF7AE
:103E5000EDFD2868B0F84400019000F4004000280F
:103E60007FF4EAADBDE8FC817047000008B5084961
:103E70000968C9084FF47A72B1FBF2F1414300912D
:103E800000BF00BF00994A1E00920029F9D108BD69
:103E90000000002070B506460D46144631480078F3
:103EA00008B1002070BD032E01D0012E57D1E0795A
:103EB000092814DDE0782179884210DDE078401E81
:103EC000E070E07860716179491EC9B2617108469D
:103ED00000F0C8F80520FDF726FA0120E2E728885F
:103EE0004EF26661884203DC2888B0F5005F17DA7D
:103EF00060792179884211DD1B48FEF7B0FB6179BA
:103F0000491EC9B26171084600F0ACF8E079401C66
:103F1000E0710520FDF707FA0120C3E70020C1E7A3
:103F20002888B0F5024F18DA2888B0F5FC4F14DB6A
:103F30006079E17888420EDA6179491CC9B2617111
:103F4000084600F08FF8E079401CE0710520FDF78D
:103F5000EAF90120A6E70020A4E70020A2E700205C
:103F6000A0E70000000900205C09002010B5002235
:103F700001211948FDF78EFB002202211648FDF7AA
:103F800089FB002204211448FDF784FB002208214C
:103F90001148FDF77FFB002210210F48FDF77AFB47
:103FA000002220210C48FDF775FB002201210B485F
:103FB000FDF770FB002202210848FDF76BFB002291
:103FC00004210648FDF766FB00224FF480510348A8
:103FD000FDF760FB10BD000000100140000C014027
:103FE00070B504460D46012C01D0032C0BD12DB920
:103FF000002208210D48FDF74DFB04E001220821B5
:104000000A48FDF747FB022C01D0042C0CD135B92E
:1040100000224FF400510548FDF73CFB04E001226B
:1040200051030248FDF736FB70BD0000000C014053
:1040300010B50446012C01D0032C05D1002210211B
:104040000648FDF727FB08E0022C01D0042C04D120
:10405000012210210148FDF71DFB10BD000C01409D
:104060007047000010B50446FFF780FF0B2C43D2C9
:10407000DFE804F042060C12181E242A30363C00F9
:10408000012211461E48FDF705FB36E00122022100
:104090001B48FDF7FFFA30E0012204211848FDF724
:1040A000F9FA2AE0012208211548FDF7F3FA24E085
:1040B000012210211248FDF7EDFA1EE00122202115
:1040C0000F48FDF7E7FA18E0012211460D48FDF709
:1040D000E1FA12E0012202210A48FDF7DBFA0CE0C6
:1040E000012204210748FDF7D5FA06E00122110359
:1040F0000448FDF7CFFA00E000BF00BF10BD00008C
:1041000000100140000C014010B50446A0781128B1
:1041100006D10020207001212046FCF71BFE08E09C
:10412000A078132805D10120207000212046FCF73B
:1041300011FE10BD70B50446A088FFF7A9F90A4822
:10414000FEF78DFAE08842F2107191FBF0F085B233
:104150002846FFF753F90548FEF781FAFFF7F8F90B
:104160000348FEF77CFA70BD9C0900205C09002022
:10417000DC09002010B50248FEF762FA10BD00000D
:104180005C09002010B5FDF791FAFEF7AEF910BDFD
:1041900010B596B001200C9000040D9000200E90F8
:1041A0000120109002201390C10314914FF4E011EC
:1041B00015910CA8FDF74AFF18B145211AA001F08E
:1041C000B8FD0F20079002200890002009904FF4BE
:1041D00080600A9000200B90022107A8FDF7F2FDF5
:1041E00018B1532110A001F0A4FD1020019000206F
:1041F000069001A8FDF74EFD18B15A210AA001F062
:1042000098FDFDF7B1FE4FF47A71B0FBF1F4204652
:10421000FEF751F90420FEF739F900221146501E2D
:10422000FDF7CBFA16B010BD2E2E5C447269766590
:1042300072735C557365725F4472697665725C5324
:1042400072635C68617264776172652E630000005E
:104250001148006840F001000F49086008464068B6
:104260000E4908400C494860084600680C4908405F
:10427000094908600846006820F480200860084664
:10428000406820F4FE0048604FF41F008860C803B7
:104290000449086070470000001002400000FFF869
:1042A000FFFFF6FE08ED00E010B50248FEF78DFABC
:1042B00010BD00005C09002010B50248FEF785FA29
:1042C00010BD00009C09002010B50248FEF77DFAE1
:1042D00010BD0000DC090020002202681F4B98423C
:1042E0000ED01F4B98420BD0B0F1804F08D01D4B21
:1042F000984205D01C4B984202D01C4B984203D1E7
:1043000022F070024B681A43144B98420ED0144BA3
:1043100098420BD0B0F1804F08D0124B984205D094
:10432000114B984202D0114B984203D122F44072B3
:10433000CB681A4322F080024B691A4302608B68F3
:10434000C3620B688362054B984202D0044B9842CB
:1043500001D10B690363012343617047002C0140C5
:10436000003401400004004000080040000C004000
:1043700030B50C460021816821F47F4142EA0325D3
:1043800025432943816030BD0A460021816821F020
:10439000700142F0070319438160704730B50B4646
:1043A000144600210022026A056A25F00105056213
:1043B000816921F0F00141EA041122F00A021A4356
:1043C0008161026230BD30B50B46144600210022E7
:1043D000056A25F0100505628169026A21F47041C1
:1043E00041EA043122F0A00242EA03128161026232
:1043F00030BD70B505466C6A0020E085E08420463B
:10440000FEF74CFB70BD70B506460025746A206847
:104410004069C0F3C01594F83900212805D125B1B1
:104420000020E084204600F082F820684069C0F354
:10443000801594F83A00222805D125B10020E085A6
:10444000204600F054F8E06B40F01000E063204696
:10445000FEF724FB70BD70B505466C6A28680068DD
:1044600000F02000B0B90020E0852068C06820F48A
:1044700080702168C8602068406920F001002168D0
:1044800048612068406920F0400021684861202090
:1044900084F83A002046FEF733FD70BD70B504463F
:1044A000656A2846FEF72DFD70BD70B505466C6A3D
:1044B0002868006800F0200070B90020E0842068BF
:1044C000406920F08000216848612068C06840F0A1
:1044D00040002168C86002E02046FEF7CDFD70BDB7
:1044E00070B50446656A2846FEF7C7FD70BD0168D1
:1044F000C96821F490710268D1600168496921F0AE
:10450000010102685161202180F83A10704710B50E
:1045100004462068C06820F040002168C860202060
:1045200084F839002046FEF7A7FD002010BD016881
:10453000C96821F0C0010268D160202180F83910DB
:10454000704770B5044694F83A0022284AD1A06812
:10455000B0F5805F13D1A56A206940B92068406832
:10456000C0F308002880A06A801CA06219E02068BF
:104570004068C0B22880A06A401CA06211E0206997
:1045800038B920684068C1B2A26A501CA06211709C
:1045900007E02068406800F07F01A26A501CA0621A
:1045A0001170E08D401E80B2E085C8B92068C068F7
:1045B00020F020002168C8602068C06820F4807066
:1045C0002168C8602068406920F0010021684861C6
:1045D000202084F83A002046FEF792FC002070BDAF
:1045E0000020FCE70220FAE72DE9F041044600250F
:1045F0002068006920F44050E168084321680861A0
:104600002169A06808436169084305432068C068C0
:1046100041F20C61884328432168C86020684069E2
:1046200020F44070A1690843216848615F4920680F
:1046300088425CD1FDF7AEFC00EBC00101EB00103D
:1046400061688900B0FBF1F6FDF7A4FC00EBC00146
:1046500001EB001061688900B0FBF1F06421B0FB50
:10466000F1F000EBC00101EB0010A6EB800032215D
:1046700001EB00106421B0FBF1F000F0F006FDF753
:1046800089FC00EBC00101EB001061688900B0FB00
:10469000F1F06421B0FBF1F006EB0016FDF77AFCB7
:1046A00000EBC00101EB001061688900B0FBF1F77D
:1046B000FDF770FC00EBC00101EB001061688900A0
:1046C000B0FBF1F06421B0FBF1F000EBC00101EBB5
:1046D0000010A7EB8000322101EB00106421B0FB39
:1046E000F1F000F00F003044216888605BE0FDF7D6
:1046F00041FC00EBC00101EB001061688900B0FBD8
:10470000F1F6FDF737FC00EBC00101EB001061682A
:104710008900B0FBF1F06421B0FBF1F000EBC001C7
:1047200001EB0010A6EB8000322101EB00106421A8
:10473000B0FBF1F000F0F006FDF71CFC00EBC0014F
:1047400001EB001061688900B0FBF1F06421B0FB5F
:10475000F1F006EB0016FDF70DFC00EBC00101EBDC
:10476000001061688900B0FBF1F7FDF703FC00EB76
:10477000C00101EB001061688900B0FBF1F0642119
:10478000B0FBF1F000EBC00101EB0010A7EB8000E3
:10479000322101EB00106421B0FBF1F000F00F00BA
:1047A000304421688860BDE8F08100000038014095
:1047B000014691F8390021282CD18868B0F5805F36
:1047C0000FD10A6A1088C0F308000B6858600869A6
:1047D00018B9086A801C086209E0086A401C08626F
:1047E00005E00B6A581C086218780B685860C88C82
:1047F000401E80B2C88458B90868C06820F08000A4
:104800000B68D8600868C06840F040000B68D8604A
:10481000002070470220FCE72DE9F04104460D46D8
:1048200017469846069E21E0701CF8B12EB1FCF7A1
:1048300037FFA0EB0800B04218D92068C06820F408
:10484000D0702168C8602068406920F001002168AC
:104850004861202084F8390084F83A0000BF002025
:1048600084F8380000BF0320BDE8F08120680068AC
:104870002840A84201D1012000E00020B842D3D056
:104880000020F1E710B50248FEF70AF910BD00005C
:104890001C0A002038B5002500242C480068006858
:1048A000C0F3801529480068C06800F04004B5B125
:1048B000ACB16FF04000254909680860234890F8C2
:1048C0003900232804D12220204981F8390003E04F
:1048D00020201E4981F8390001201D4908701B481D
:1048E00000680068C0F3001518480068C06800F050
:1048F00010044DB344B300BF00200090134800687B
:1049000000680090114800684068009000BF00BF38
:104910000E480068C06820F020000C490968C86093
:104920000A4890F83A00232804D12120074981F849
:104930003A0003E02020054981F83A000348FEF7D9
:104940007AF801200349087038BD00005C0A002095
:10495000090000200800002010B50248FEF7A0F86A
:1049600010BD00009C0A002070B504460D46D4F826
:1049700014022946426820469047002070BD70B559
:1049800004460D4694F8FC01022802D0032811D1F8
:1049900000E000BF688801280BD10020C4F80402A1
:1049A000D4F814022946826820469047204600F039
:1049B0004AF804E02946204600F01BF800BF00BF7B
:1049C00070BD70B506460C4615462B4622460021A2
:1049D000304600F052FA002070BD70B506460C4615
:1049E00015462B4622460021304600F03AFB0020B7
:1049F00070BD70B504460D468021204600F005FBD1
:104A00000021204600F001FB70BD10B504460520D2
:104A1000C4F8F40100231A461946204600F02DFA86
:104A2000002010BD70B504460E4615460220C4F89D
:104A3000F401A561E5612B4632460021204600F0D5
:104A400010FB002070BD10B504460420C4F8F4012A
:104A500000231A461946204600F003FB002010BD33
:104A600070B504460D46E888012804D02946204642
:104A7000FFF7BFFF1BE094F8FC01022802D00328D7
:104A80000FD108E00020A060012204F108012046B7
:104A9000FFF7C8FF0AE00122211D2046FFF7C2FFF1
:104AA00004E029462046FFF7A4FF00BF00BF70BD09
:104AB000F8B504460E4670880012082872D2DFE866
:104AC00000F082040C2082826372207CD4F81012E1
:104AD0000A686946904705467AE0207C40B9D4F8D8
:104AE0001402816A6846884705460221697007E01A
:104AF000D4F81402C16A68468847054602216970E5
:104B000066E0B078062834D2DFE800F0030B131B10
:104B1000232B207CD4F810124A686946904705463A
:104B200030E0207CD4F810128A6869469047054628
:104B300028E0207CD4F81012CA68694690470546E0
:104B400020E0207CD4F810120A6969469047054697
:104B500018E0207CD4F810124A696946904705464F
:104B600010E0207CD4F810128A6969469047054607
:104B700008E0B178D4F814026A46836B204698475F
:104B8000054600BF00BF23E0207C30B9D4F81402F2
:104B9000416B6846884705461AE031462046FFF7D4
:104BA00028FFF8BD0FE0207C40B9D4F81402016B57
:104BB0006846884705460721697009E03146204666
:104BC000FFF717FFEDE731462046FFF712FFE8E752
:104BD00000BFBDF8000088B1F08878B1F088BDF85A
:104BE0000010884202DDBDF8000000E0F08800906F
:104BF000BDF8002029462046FFF714FF00BFD0E78C
:104C000070B504460D4694F8FC01022802D0032832
:104C100011D100E000BF0120E060D4F8040218B117
:104C2000E06840F00200E060022204F10C0120463E
:104C3000FFF7F8FE04E029462046FFF7DAFE00BF42
:104C400000BF70BD2DE9F04104460D460026002747
:104C50002946D4F82002FCF71FFE064636B1012E85
:104C600006D0022E06D0032E08D105E0002707E06B
:104C7000022705E0012703E0022701E0022700BF29
:104C800000BF3846BDE8F0812DE9F04104460E46EC
:104C90001746002E54D104F11405D4F8F40102286B
:104CA00043D1D5E90201884210D9D5E90201401A61
:104CB000A860288982B239462046FFF78EFE00237D
:104CC0001A461946204600F0D8F82EE0E9686868D0
:104CD000B0FBF1F201FB1200B8B9E96868688842DC
:104CE00013D36868D4F8F81188420ED20022114616
:104CF0002046FFF772FE0020C4F8F80100231A4690
:104D00001946204600F0B9F80FE0D4F81402C06844
:104D100040B194F8FC01032804D1D4F81402C1680E
:104D2000204688472046FFF770FE94F800020128CD
:104D300014D1204600F0DAF9002084F800020DE0DA
:104D4000D4F81402406948B194F8FC01032805D155
:104D5000D4F8140231464269204690470020BDE84D
:104D6000F0812DE9F04105460E4617465EBB05F57C
:104D70008274D5F8F401032833D1D4E902018842C2
:104D800010D9D4E90201401AA060D4E90201884296
:104D900001D2A06800E0E06882B239462846FFF7F9
:104DA00010FE1EE0D5F81402006940B195F8FC0130
:104DB000032804D1D5F814020169284688472846FB
:104DC000FFF741FE0DE0D5F81402806948B195F86F
:104DD000FC01032805D1D5F8140231468269284622
:104DE00090470020BDE8F08110B50246D2F820328D
:104DF00001F08000802807D101F07F0403F1280032
:104E000000EB4410807810BD01F07F0403F50A70B8
:104E100000EB44108078F6E72DE9F04704460F4692
:104E200015461E464FF00008C1462B46324639460D
:104E3000D4F82002FCF761FD8046B8F1000F09D0DC
:104E4000B8F1010F09D0B8F1020F09D0B8F1030F82
:104E50000CD108E04FF000090BE04FF0020908E028
:104E60004FF0010905E04FF0020902E04FF002099E
:104E700000BF00BF4846BDE8F0872DE9F047044673
:104E80000D4616461F464FF00008C1463B463246C7
:104E90002946D4F82002FCF76BFD8046B8F1000FDC
:104EA00009D0B8F1010F09D0B8F1020F09D0B8F15B
:104EB000030F0CD108E04FF000090BE04FF002099E
:104EC00008E04FF0010905E04FF0020902E04FF061
:104ED000020900BF00BF4846BDE8F08710B5044690
:104EE0004023002211462046FFF796FF40214FF451
:104EF000887001514023002280212046FFF78CFF5B
:104F000040212162012084F8FC01D4F8180228B164
:104F10002179D4F81402426820469047002010BD41
:104F2000014691F8FD0181F8FC010020704710B5A1
:104F3000044694F8FC01032808D1D4F81402C0698F
:104F400020B1D4F81402C16920468847002010BD62
:104F500002461174002070472DE9F04104460D46C9
:104F6000002600272946D4F82002FCF75CFE0646FE
:104F700036B1012E06D0022E06D0032E08D105E050
:104F8000002707E0022705E0012703E0022701E0F0
:104F9000022700BF00BF3846BDE8F08170B5044667
:104FA0000D46294604F5027000F08CF80120C4F883
:104FB000F40140F20E20005BC4F8F80194F80802F6
:104FC00000F01F0020B1012808D0022812D10BE008
:104FD00004F50271204600F049F913E004F502716E
:104FE000204600F027FA0DE004F50271204600F09B
:104FF00076F907E094F8080200F08001204600F0FE
:1050000004F800BF00BF002070BD2DE9F041044648
:105010000D46002600272946D4F82002FCF7CDFCD7
:10502000064636B1012E06D0022E06D0032E08D138
:1050300005E0002707E0022705E0012703E002273B
:1050400001E0022700BF00BF3846BDE8F0810146FD
:1050500091F8FC0181F8FD01042081F8FC01002099
:1050600070472DE9F04704460D4616461F464FF09F
:105070000008C1463B4632462946D4F82002FCF7D8
:10508000D5FC8046B8F1000F09D0B8F1010F09D066
:10509000B8F1020F09D0B8F1030F0CD108E04FF0BE
:1050A00000090BE04FF0020908E04FF0010905E0AC
:1050B0004FF0020902E04FF0020900BF00BF48466E
:1050C000BDE8F0870A7802704A7842708B78CA7817
:1050D00003EB022242800B794A7903EB02228280A1
:1050E0008B79CA7903EB0222C28070470146002007
:1050F000704770B504460D46A888F8B9E888E8B945
:10510000A87800F07F0694F8FC01032804D1294612
:105110002046FFF76EFC15E084F8FE61314620461C
:10512000FFF71AFF2046FFF78EFC1EB1022084F81D
:10513000FC0107E0012084F8FC0103E02946204639
:10514000FFF757FC70BD70B504460D460226D4F833
:10515000140238B1D4F81402294602682046904758
:1051600000B90026304670BD70B504460D46A878DB
:105170003449087008460078012804DD2946204695
:10518000FFF737FC5BE094F8FC01022802D003280B
:105190004FD11CE02B480078A8B12A480078606005
:1051A000032084F8FC01274801782046FFF7CBFF55
:1051B000022804D129462046FFF71BFC70BD20467B
:1051C000FFF741FC02E02046FFF73DFC36E01D48BA
:1051D000007870B9022084F8FC011A4800786060F9
:1051E000184801782046FFF7BFFB2046FFF72BFC4D
:1051F0001EE0144909786068884216D0217920465B
:10520000FFF7B2FB0F48007860600E480178204637
:10521000FFF799FF022804D129462046FFF7E9FB52
:10522000CCE72046FFF70FFC02E02046FFF70BFC1F
:1052300004E029462046FFF7DCFB00BF00BF00BFAB
:10524000BCE700000400002070B504460D466888E5
:1052500001280AD1C4F80402D4F81402294682684D
:10526000204690472046FFF7EEFB70BD70B505461F
:105270000C46002660780A2829D2DFE800F01923BE
:10528000281E280A0528140F21462846FFF710FC7F
:1052900022E021462846FFF72CFF1DE02146284644
:1052A000FFF762FF18E021462846FFF7D9FB13E01D
:1052B00021462846FFF7A4FC0EE021462846FFF7CA
:1052C000C3FF09E021462846FFF759FB04E02146C9
:1052D0002846FFF78EFB00BF00BF304670BD2DE9AA
:1052E000F04105460E464FF000083479307800F062
:1052F0006000202808D1D5F814023146826828467B
:1053000090470020BDE8F0817078002855D0012832
:105310002AD003287AD195F8FC01022802D003286C
:105320001BD107E02CB1802C03D021462846FFF783
:105330006CFE17E0708830B92CB1802C03D0214668
:105340002846FFF762FED5F81402314682682846E7
:1053500090472846FFF777FB04E031462846FFF7E1
:1053600048FB00BF00BF62E095F8FC01022802D0B4
:1053700003281BD107E02CB1802C03D021462846FE
:10538000FFF743FE17E0708878B904F07F0048B15A
:1053900021462846FFF756FCD5F8140231468268AC
:1053A000284690472846FFF74EFB04E03146284642
:1053B000FFF71FFB00BF00BF39E095F8FC01022892
:1053C00002D003282BD107E004F07F0018B121465A
:1053D0002846FFF71AFE27E004F08000802806D157
:1053E00004F07F0105F1140000EB011005E004F06A
:1053F0007F0105F5827000EB011007462146284623
:10540000FFF7F2FC18B10120386002E00EE0002046
:105410003860022239462846FFF704FB04E0314693
:105420002846FFF7E6FA00BF00BF00E000BF00BF5C
:10543000404667E770B504460D46002694F8FC0127
:10544000032814D1287901280CDCD4F81402294649
:10545000826820469047E88840B93EB92046FFF769
:10546000F2FA03E029462046FFF7C3FA04E0294692
:105470002046FFF7BEFA00BF00BF002070BD10B588
:105480000246C87830B101282CD0022810D0032859
:1054900036D119E00878400032F8100048F68F1332
:1054A000184040F400700B785B0022F8130028E0ED
:1054B0000878400032F8100048F68F1318400B7837
:1054C0005B0022F813001CE00878400032F810005E
:1054D00048F68F13184040F4C0600B785B0022F848
:1054E00013000EE00878400032F8100048F68F13E1
:1054F000184040F480600B785B0022F8130000E055
:1055000000BF00BF0878400032F8100048F68F73E3
:10551000184048F2800318430B7818435B0022F8C8
:105520001300887A00287DD1487898B38888401085
:105530004400B2F85030087803EBC00002F58063F5
:1055400043F810400878400032F8100000F04000A6
:1055500068B10878400032F8100048F68F731840A0
:1055600048F2C00318430B785B0022F813000B7855
:105570005B0032F8133048F6BF7403EA040080F091
:10558000200040F4004343F080030C78640022F8CC
:10559000143047E1FFE7888840104400B2F85030EB
:1055A000087803EBC000001D02F5806343F810404B
:1055B000B2F85040087804EBC000801D1C4604EB94
:1055C00040030C693E2C10D90C69C4F34F100C7CBD
:1055D00004F01F040CB9441EA0B24FF6FF7404EA95
:1055E000802444F400441C600DE00C69C4F34F00B7
:1055F0000C7C04F001040CB1441CA0B24FF6FF7403
:1056000004EA80241C600878400032F8100000F49E
:10561000804078B10878400032F8100048F68F7367
:10562000184000E01BE04CF2800318430B785B004D
:1056300022F813000B785B0032F813304BF68F74AE
:1056400003EA040080F4805080F4005040F40043EA
:1056500043F080030C78640022F81430E2E008780C
:10566000400032F8100040F4807048F68F73184004
:1056700048F2800318430B785B0022F81300C888B7
:1056800040104400B2F85030087803EBC00002F537
:10569000806343F81040088940104400B2F850304D
:1056A000087803EBC000001D02F5806343F810404A
:1056B0004878F0BB0878400032F8100000F48040D1
:1056C00068B10878400032F8100048F68F7318402F
:1056D0004CF2800318430B785B0022F81300087823
:1056E000400032F8100000F0400068B10878400037
:1056F00032F8100048F68F73184048F2C003184380
:105700000B785B0022F813000878400032F8100094
:1057100048F68F73184048F2C00318430B785B00BB
:1057200022F813000B785B0032F813304BF68F74BD
:1057300000E01EE003EA040080F4805080F4005092
:1057400040F4004343F080030C78640022F81430E6
:105750000B785B0032F8133048F6BF7403EA04009C
:1057600040F4004343F080030C78640022F81430C6
:1057700058E00878400032F8100000F4804068B12A
:105780000878400032F8100048F68F7318404CF249
:10579000800318430B785B0022F813000878400060
:1057A00032F8100000F0400068B10878400032F88C
:1057B000100048F68F73184048F2C00318430B7866
:1057C0005B0022F813000878400032F8100048F619
:1057D0008F7318404CF2800318430B785B0022F85B
:1057E00013000B785B0032F8133048F6BF7403EAFD
:1057F000040040F4004343F080030C78640022F876
:1058000014300B785B0032F813304BF68F7403EAD8
:10581000040040F4004343F080030C78640022F855
:10582000143000BF002010BD02460020704710B5A4
:105830000246487848B30878400032F8100000F07B
:10584000400068B10878400032F8100048F68F73C5
:10585000184048F2C00318430B785B0022F813008D
:105860000B785B0032F8133048F6BF7403EA04008B
:1058700080F0100080F0200040F4004343F08003EB
:105880000C78640022F8143029E00878400032F8DF
:10589000100000F4804068B10878400032F8100031
:1058A00048F68F7318404CF2800318430B785B0066
:1058B00022F813000B785B0032F813304BF68F742C
:1058C00003EA040080F4805080F4005040F4004368
:1058D00043F080030C78640022F8143000BF0020ED
:1058E00010BD10B502460878A0B90B785B0032F8FD
:1058F00013304BF6BF7403EA040080F4805080F04C
:10590000100040F4004343F080030C78640022F858
:10591000143027E0487890B10B785B0032F81330F0
:1059200048F6BF7403EA040080F0100040F400431E
:1059300043F080030C78640022F8143012E00B78F6
:105940005B0032F813304BF68F7403EA040080F4E6
:10595000805040F4004343F080030C78640022F848
:10596000143000BF002010BDF0B506460C460027DD
:10597000A569607801287CD12169A069884204D991
:105980002569A069401BA06102E0A5690020A06113
:10599000A07A80B9ABB2A2883046616900F0A6F95E
:1059A000B6F85010207801EBC000801C06F580612D
:1059B00041F81050A1E02078400036F8100000F0C7
:1059C0004000C0B3607838BBB6F85020207802EBB6
:1059D000C000801D06F5806202EB40013E2D0ED90D
:1059E000C5F34F1005F01F020AB9421E90B24FF6E0
:1059F000FF7202EA802242F400420A600BE0C5F323
:105A00004F0005F001020AB1421C90B24FF6FF723E
:105A100002EA80220A600CE06078012809D1B6F819
:105A20005010207801EBC000801C06F5806141F821
:105A30001050278939E0FFE7607840BBB6F8502066
:105A4000207802EBC000801C06F5806202EB40016A
:105A50003E2D0FD9C5F34F1005F01F020AB9421EA3
:105A600090B24FF6FF7202EA802242F400420A60CE
:105A70000CE057E0C5F34F0005F001020AB1421CEB
:105A800090B24FF6FF7202EA80220A600CE0607862
:105A9000012809D1B6F85010207801EBC000801C15
:105AA00006F5806141F81050E788ABB23A463046BF
:105AB000616900F01BF9607870B92078400036F811
:105AC000100048F68F71084048F2C0010843217861
:105AD000490026F8110010E0607801280DD12078E7
