:020000040800F2
:10000000C80F002045010008B1370008B9310008C9
:1000100085370008990D0008B35F00080000000054
:10002000000000000000000000000000B1420008D5
:10003000290F0008000000006D400008FD43000883
:100040005F0100085F0100085F0100085F01000810
:100050005F0100085F0100085F0100085F01000800
:100060005F0100085F0100085F0100085F010008F0
:100070005F0100085F0100085F0100085F010008E0
:100080005F0100085F0100085F0100085F010008D0
:10009000215F00085F0100085F0100085F010008A0
:1000A0005F0100085F0100085F0100085F010008B0
:1000B0002145000831450008414500085F0100085E
:1000C0005F0100085F0100085F0100085F01000890
:1000D0005F010008FD4A00080D4B0008DD4B0008D9
:1000E0005F0100085F0100085F0100085F01000870
:1000F0005F0100085F0100085F0100085F01000860
:100100005F0100085F0100085F0100085F0100084F
:100110005F0100085F0100085F0100085F0100083F
:100120005F0100085F0100085F0100085F0100082F
:10013000DFF80CD000F0C8FB0048004775600008ED
:10014000C80F00200648804706480047FEE7FEE744
:10015000FEE7FEE7FEE7FEE7FEE7FEE7FEE7FEE777
:10016000C944000831010008202A04DB203A21FAA2
:1001700002F00021704721FA02F3D040C2F12002C0
:100180009140084319467047F0B480EA0102D40F49
:100190004200B2EB410F02D20246084611464A0025
:1001A00042D0C30DDDB2C1F3C752AD1A202D35DAEE
:1001B000C1F3160141F4000204B15242C5F1200618
:1001C00002FA06F12A411044B3EBD05F23D0C4B148
:1001D000012DA0EBC35009DCF0BC4FF0004202EA55
:1001E000C352DBB200F5000000F0E2BA400000F1BB
:1001F000807000EBC350A0F1807040EAD1704900DC
:1002000009E0490841EAC071A0EBC35000F50000C5
:10021000400800EBC350F0BC00F0C1BA61420122BB
:1002200002EB4101001BF6E7F0BC704781F0004192
:10023000AAE780F00040A7E780EA010210B502F0CB
:100240000043400022D04A001FD0010E01EB126192
:10025000C0F35600C2F3560240F4000042F400021C
:10026000A0FB022000047F39140400D0401C50EA97
:10027000124001D44000491EC2B20C0604EBD0105B
:10028000401C4008802A02D003E0002010BD20F06E
:100290000100002900DA0020184310BD30B480EAC4
:1002A000010202F0004530F0004221F0004013D07E
:1002B00090B1C30DD40DC2F31601C0F31600E41AB9
:1002C00041F4000140F400027D34914201D3641CEA
:1002D00000E04900002C02DA30BC002070474FF4E7
:1002E00000000023914201D3891A034340084FEADA
:1002F0004101F7D151B1914202D14FF0004105E0E7
:1003000002D24FF0010101E06FF0010103EBC45094
:10031000284430BC00F043BA2DE9FE4F804681EA04
:100320000300C00F0C46009021F0004123F000456F
:10033000B8EB0200A94105D24046214690461C4632
:100340000B46024623F00040104347D0270DC7F369
:100350000A00C3F30A510290401A019040286BDA58
:10036000C3F3130040F4801B0098924620B1002391
:10037000D2EB030A63EB0B0B01985946C0F1400224
:10038000504600F0EBF906460D4650465946019A94
:1003900000F0F3F910EB08006141002487EA1152E4
:1003A00084EAE7731A4340D0009A62B3019A012AA3
:1003B0004FEA075215DC001B61EB02014FF00042CF
:1003C00002EA0752CDE90042001C41F58011324695
:1003D0002B4600F02AFA03B0BDE8F08F40462146D4
:1003E000F9E7001B61EB0201001C41F580130018C6
:1003F0005B412018A2F5001747EB030140EAD570D6
:10040000B6196D4111E06D084FEA360645EAC07530
:100410004FEA0752001B61EB0201001C41F58011FD
:1004200049084FEA30000019514132462B4603B0CB
:10043000BDE8F04F00F0EAB9009801224000002327
:10044000D0EB020263EBE073009821464FEAE074C0
:10045000B8EB000061EB0401E9E783F000435BE7E0
:1004600081F0004158E72DE9FE4F81EA030404F0D2
:10047000004421F0004100944FF0000B23F00043B2
:1004800050EA01045ED052EA03045BD0C3F30A547D
:10049000C1F30A552C44A4F2F3340194A0FB025496
:1004A000C1F3130141F48011C3F3130343F4801328
:1004B00001FB024400FB034E840A970A44EA81547C
:1004C00047EA8357A4FB076802958D0A05FB078559
:1004D0004FEA932C04FB0C542705029D4FEA065863
:1004E00047EA1637B5EB08056EEB070C870E920E40
:1004F00047EA811742EA8312A7FB0201B6EB0B0120
:1005000064EB00042B0D43EA0C335E1844EB1C50E3
:10051000DA465146E7FB0201C5F313044FEA0B33F9
:1005200043EA14534FEA0432019C43EA0603A4F160
:100530000C040294009CCDE900B400F076F903B0FD
:10054000BDE8F08F00200146F9E72DE9F04D81EA82
:10055000030404F0004B21F0004514464FF0000A5C
:1005600023F0004150EA050220D054EA01021DD0D8
:10057000C5F30A570246C5F31303C1F31300C1F3D1
:100580000A5640F4801543F48013A7EB0608101BAD
:10059000D64608F2FD3873EB050002D308F10108D6
:1005A00001E092185B41B8F1000F03DA0020014628
:1005B000BDE8F08D00204FF48011064684460EE021
:1005C000171B73EB050705D3121B63EB05030643EB
:1005D0004CEA010C49084FEA300092185B4150EA9E
:1005E0000107EDD152EA030012D082EA040083EA47
:1005F0000501084305D0101BAB4106D201220023A0
:1006000006E000224FF0004302E06FF001025310B9
:100610001AEB06004CEB085110EB0A0041EB0B0102
:10062000BDE8F04D00F0F2B8C10F80EAE070084478
:10063000CA079623002100F0BBB89623002211467A
:1006400000F0B6B80EB540F2334102910021CDE979
:1006500000110A460B4600F0E8F803B000BD00F0B8
:10066000004220F00040C10DC0F3160040F400002D
:100670007F2901DA00207047962903DCC1F1960139
:10068000C84001E096398840002AF4D040427047C3
:1006900020F00040C10DC0F3160040F400007F2997
:1006A00001DA00207047962903DCC1F19601C840A9
:1006B0007047963988407047C1F30A5210B5C1F3AC
:1006C000130140F2FF3341F480119A4201DA002015
:1006D00010BD40F233439A42A2F2334203DC52424D
:1006E000FFF742FD10BD904010BD00F0004230F019
:1006F00000400AD0C10D01F56071C0F3160042EA56
:100700000151C2084007114370470020014670475D
:1007100001F0004330B421F0004150EA010206D05C
:100720000A0DA2F56072C1F31301002A02DC30BC8D
:1007300000207047440F44EAC104C100E01830BCF7
:1007400000EBC25000F02BB8002801DBC0F10040E4
:10075000002901DBC1F1004181427047202A04DBFE
:10076000203A00FA02F1002070479140C2F12003C4
:1007700020FA03F3194390407047202A06DBCB1779
:10078000203A41FA02F043EAE07306E041FA02F34C
:10079000D040C2F120029140084319467047002919
:1007A000A8BF7047401C490008BF20F001007047F7
:1007B00010B4B0FA80FC00FA0CF050EA010404BF57
:1007C00010BC704749B1CCF1200421FA04F411FAAD
:1007D0000CF118BF012121430843A3EB0C01CB1DF1
:1007E0004FEA00614FEA102042BF002010BC704762
:1007F00000EBC35010440029A4BF10BC7047401C3C
:10080000490008BF20F0010010BC704710B5141E4D
:1008100073F1000408DA401C41F1000192185B41B9
:100820001A4301D120F0010010BD2DE9F04D924690
:100830009B4611B1B1FA81F202E0B0FA80F22032A7
:100840009046FFF78BFF04460F4640EA0A0041EA54
:100850000B0153465A46084313D0114653EA010090
:1008600019D0C8F140025046FFF77EFC05460E46FF
:10087000504659464246FFF771FF084305D0012014
:1008800004E020463946BDE8F08D0020054346EAE5
:10089000E0762C4337430A986305E40AA0EB08008E
:1008A0000022FD0A44EA47540A3002D500200146DE
:1008B000E9E7010510196941DDE9084500196941B9
:1008C000BDE8F04DA2E70000064C074D06E0E068E9
:1008D00040F0010394E8070098471034AC42F6D387
:1008E000FFF72AFCA8630008C863000870B5044637
:1008F00080260A2005F09AFBA18B0022A06900F057
:100900006BFF0A2005F092FB0421204600F0BFF89F
:10091000002511E00A2005F089FBA1890122A068C9
:1009200000F05AFF0A2005F081FBA1890022A0688F
:1009300000F052FF681CC5B2102DEBDB002520E053
:100940000A2005F073FBA1890122A06800F044FF92
:1009500006F03C0028B1A18A0122206900F03CFF8A
:1009600004E0A18A0022206900F036FF76100A20F8
:1009700005F05CFBA1890022A06800F02DFF681C37
:10098000C5B2082DDCDB642005F050FBA18B0122F1
:10099000A06900F021FF70BD7CB504460D46012220
:1009A0001D49684600F03CF8DDE90001C4E900019A
:1009B0004FF480721849684600F032F8DDE9000112
:1009C000C4E906014FF400721449684600F028F8A3
:1009D000DDE90001C4E9020102220F49684600F086
:1009E0001FF8DDE90001C4E90401A1890122A06822
:1009F00000F0F2FEA18B0122A06900F0EDFEA188BB
:100A00000122206800F0E8FE642005F00FFB20467C
:100A1000FFF76CFF7CBD00000008014000100140A2
:100A20001CB50091ADF80420DDE90034C0E90034C4
:100A30001CBD2DE9F04104460D46082705B90825DF
:100A4000002620E00A2005F0F1FAA1890122A06821
:100A500000F0C2FE07EA050028B1A18A0122206940
:100A600000F0BAFE04E0A18A0022206900F0B4FE82
:100A70007F100A2005F0DAFAA1890022A06800F0B0
:100A8000ABFE701CC6B2042EDCDBBDE8F0812DE9A4
:100A9000F04104460D460827002620E00A2005F014
:100AA000C5FAA1890122A06800F096FE07EA0500B8
:100AB00028B1A18A0122206900F08EFE04E0A18AFB
:100AC0000022206900F088FE7F100A2005F0AEFAAF
:100AD000A1890022A06800F07FFE701CC6B2042E1F
:100AE000DCDBBDE8F0812DE9F0410446884615467F
:100AF0004FF400470A2005F099FAA18B0022A06963
:100B000000F06AFE0A2005F091FA01212046FFF765
:100B1000BEFF41462046FFF78CFF002620E00A205A
:100B200005F084FAA1890122A06800F055FE07EAC9
:100B3000050028B1A18A0122206900F04DFE04E0E1
:100B4000A18A0022206900F047FE7F100A2005F0EC
:100B50006DFAA1890022A06800F03EFE701CC6B2AA
:100B6000102EDCDB0A2005F061FAA18B0122A069BE
:100B700000F032FEBDE8F0817CB504460D469DBB19
:100B80004FF480423249684600F068F8DDE9000120
:100B9000C4E9000140222F49684600F05FF8DDE912
:100BA0000001C4E904014FF400422949684600F0FD
:100BB00055F8DDE90001C4E90201802225496846B3
:100BC00000F04CF8DDE90001C4E90601642005F0FD
:100BD0002DFA002280211F4800F0FEFD0122910322
:100BE0001B4800F0F9FD31E0FFE710221A49684682
:100BF00000F034F8DDE90001C4E9000140221649A3
:100C0000684600F02BF8DDE90001C4E90401202268
:100C10001149684600F022F8DDE90001C4E902014B
:100C200080220D49684600F019F8DDE90001C4E9A9
:100C30000601642005F0FAF900228021064800F040
:100C4000CBFD01221021044800F0C6FD7CBD000050
:100C5000000C014000100140000801401CB500914B
:100C6000ADF80420DDE90034C0E900341CBD70B5E6
:100C700004460025A18B0122A06900F0ADFD0220F1
:100C800005F0D4F9A18B0022A06900F0A5FD012098
:100C900005F0CCF9002616E0A1890122A06800F039
:100CA0009BFDA18A206900F08BFD0543A1890022EC
:100CB000A06800F091FD0F2E03DA4FF6FF7000EAF6
:100CC0004505701CC6B2102EE6DB284670BD00003C
:100CD00010B50446012C0AD101220102134800F08C
:100CE0007BFD0022A102124800F076FD0CE05CB909
:100CF00000224FF480710D4800F06EFD00224FF489
:100D000080610B4800F068FD0A2005F08FF9002291
:100D10008021064800F060FD0A2005F087F90122D5
:100D20008021024800F058FD10BD0000000C014079
:100D30000010014010B50446012C0AD10122C10364
:100D4000134800F049FD0022E102124800F044FD82
:100D50000CE05CB900224FF400410D4800F03CFD6E
:100D600000224FF400610B4800F036FD0A2005F028
:100D70005DF900224FF40051064800F02DFD0A20D5
:100D800005F054F901225103024800F025FD10BD81
:100D9000000801400010014000BFFEE770B50546A5
:100DA0000C46012C06D1084801F0FAFC074801F076
:100DB000F7FC08E0064801F002FD044801F0FFFCE2
:100DC000014801F0FCFC70BDE00900206009002032
:100DD000A009002010B500220121194800F0FCFCF8
:100DE00000220221164800F0F7FC002204211448DA
:100DF00000F0F2FC00220821114800F0EDFC002276
:100E000010210F4800F0E8FC002220210C4800F0DF
:100E1000E3FC002201210B4800F0DEFC002202214D
:100E2000084800F0D9FC00220421064800F0D4FC58
:100E300000224FF48051034800F0CEFC10BD0000AA
:100E400000100140000C014010B504460B2C44D2A8
:100E5000DFE804F043060C12181E242A30363C004A
:100E6000002201211E4800F0B7FC37E000220221D9
:100E70001B4800F0B1FC31E000220421184800F0CA
:100E8000ABFC2BE000220821154800F0A5FC25E072
:100E900000221021124800F09FFC1FE000222021B8
:100EA0000F4800F099FC19E0002201210D4800F0E4
:100EB00093FC13E0002202210A4800F08DFC0DE0B3
:100EC00000220421074800F087FC07E000224FF4CD
:100ED0008051044800F080FC00E000BF00BF10BD5E
:100EE00000100140000C014010B5012220210248F1
:100EF00000F072FC10BD0000000C014030B590F80D
:100F000040500124AC40C56B6C6004686360446869
:100F1000102C04D10468A2600468E16003E0046856
:100F2000A1600468E26030BD7047000010B504465F
:100F3000042001F05BFB0148047010BD1400002088
:100F400010B500222021024800F046FC10BD000030
:100F5000000C01402DE9F04788B081460C469246CE
:100F6000A069401CA0612188606808446060A18974
:100F7000206908442061B9F81A10A069884266D334
:100F8000344801F01CFCA069FFF757FB0546606878
:100F9000FFF753FB06462946FFF780F9A060A069DA
:100FA000FFF74BFB05462069FFF747FB064629463E
:100FB000FFF774F960619AF80500401EC1B2264837
:100FC00002F0E2FB0546FFF790FB07468846A06863
:100FD000FFF78BFB05460022204BFFF744FA002267
:100FE0001F4BCDE90001FFF7B0FA00221D4BCDE900
:100FF0000201FFF732FA3A464346CDE90401FFF712
:10100000A4FACDE90601FFF783FBA0606069FFF752
:101010006CFB0022114BCDE90401FFF724FA0022FA
:101020000F4BCDE90601FFF790FA074600220D4B62
:10103000FFF713FA0546FFF76BFB60610A49606929
:10104000FFF7FAF86061002008B0BDE8F0870120E2
:10105000FAE7000060090020000020410000044081
:10106000E0FFEF400000F43F00007A4410B5262076
:1010700000F046FC064801F0A2FB064801F09FFB89
:10108000012005490870002102F022FD10BD00007A
:10109000A0090020600900204400002070B505462A
:1010A0000C46207810B90A20607101E02078607148
:1010B0006078E070A07820710020607220726878FB
:1010C00003F0DEF8FFF786FE607903F0FFF8A07901
:1010D00010B1FFF709FF01E0FFF732FF70BD10B557
:1010E0000378012B63D193784370D37C947C43EADB
:1010F00004238380D37D947D43EA0423C380537EFD
:10110000147E43EA04234383537C147C43EA042380
:101110008383838B642493FBF4F38383D37A947A5D
:1011200043EA04231BB2C381537B147B43EA0423A9
:101130001BB203825379147943EA04231BB203815F
:10114000D379947943EA04231BB24381537A147A06
:1011500043EA04231BB28382D37B947B43EA0423B8
:101160001BB2C382438B4FF47A746343C48893FBEE
:10117000F4F38488E31A0A3B1BB2C383B0F91E3030
:10118000002B01DA0023C383C3894382038983814F
:10119000937E1B110B70937E03F00F030B70D37EB5
:1011A0004B70137F8B70D37803F001038B7110BDEC
:1011B000014600200A68126822F00E020B681A60CD
:1011C0000A68126822F001020B681A6091F8403038
:1011D00001229A40CB6B5A60012281F8212000BF86
:1011E000002281F8202000BF7047000070B504463F
:1011F000002594F82100022803D00420A0630125D3
:10120000C1E02068006820F00E00216808602068B6
:10121000006820F00100216808605C49206888426D
:1012200052D95A4978392068884201D1012047E0D3
:10123000564964392068884201D1102040E0534962
:1012400050392068884201D1801539E04F493C3936
:101250002068884201D1801432E04C492839206846
:10126000884202D14FF480302AE04849143920687E
:10127000884202D14FF4801022E04449206888421D
:1012800001D140041CE042492068884201D101207C
:1012900016E03F4914312068884201D110200FE048
:1012A0003B4928312068884201D1801508E038493F
:1012B0003C312068884201D1801401E04FF4803035
:1012C0003349091F086051E0304978392068884265
:1012D00001D1012047E02D4964392068884201D1BD
:1012E000102040E0294950392068884201D18015FA
:1012F00039E026493C392068884201D1801432E027
:10130000224928392068884202D14FF480302AE0EF
:101310001E4914392068884202D14FF4801022E01F
:101320001A492068884201D140041CE0184920680D
:10133000884201D1012016E0154914312068884205
:1013400001D110200FE0124928312068884201D1D4
:10135000801508E00E493C312068884201D1801494
:1013600001E04FF48030094980394860012084F859
:10137000210000BF002084F8200000BF606B10B186
:101380002046616B8847284670BD000080000240FF
:10139000080402400146002209B901207047204B91
:1013A000086898420BD21F4B0868C01A1423B0FB80
:1013B000F3F0800008641B480838C8630AE0184B43
:1013C0000868C01A1423B0FBF3F0800008641448C6
:1013D0000838C863022081F821000868026843F6D3
:1013E000F0708243D1E901031843CB6818430B69BD
:1013F00018434B6918438B691843CB691843024360
:101400000868026000208862C862086348638863D5
:10141000012081F82100002081F8200000BFBDE7F5
:1014200008040240080002402DE9F04104460D4640
:1014300016461F464FF000082068006820F00100A3
:10144000216808603B46324629462046FFF756FD94
:101450002068006840F00100216808604046BDE84F
:10146000F08131B500F0BEF90546009C601C00B16A
:10147000641C00BF00F0B6F9401BA042FAD338BD8F
:101480002DE9F84702460024002000258446002765
:1014900000237BE14FF0010808FA03F4D1F8008043
:1014A00008EA0400A0427DD1DFF8ECA2D1F8048064
:1014B000A8EB0A09D0453AD014DCB8F1030F50D09C
:1014C00009DCB8F1000F31D0B8F1010F1CD0B8F130
:1014D000020F49D120E0B8F1110F18D0B8F1120F66
:1014E00042D11EE0B9F5881F25D006DCB9F5803F52
:1014F00020D0B9F5801F37D11AE0B9F5001F18D0F8
:10150000B9F5041F30D117E0D1F80CC02DE0D1F8A7
:101510000C8008F1040C28E0D1F80C8008F1080CCC
:1015200023E0D1F80C8008F10C0C1EE000BF00BFD6
:1015300000BF00BF00BF00BFD1F80880B8F1000FA6
:1015400002D14FF0040C0BE0D1F80880B8F1010F84
:1015500003D14FF0080C146102E04FF0080C546105
:1015600003E04FF0000C00E000BF00BFFF2801D8EF
:10157000904601E002F104084646FF2802D84FEAEF
:10158000830803E0A3F108084FEA88084746D6F825
:1015900000804FF00F0909FA07F928EA09080CFA48
:1015A00007F900E07AE048EA0908C6F80080D1F8B7
:1015B000048008F08058B8F1805F6FD100BFDFF879
:1015C000DC81D8F8188048F00108DFF8D091C9F81C
:1015D0001880C846D8F8188008F00108CDF80080B7
:1015E00000BF00BF4FEAB9384FEA930958F82950B5
:1015F0004FEA83784FEA18794FF00F0808FA09F894
:1016000025EA0805DFF89881424502D14FF000082D
:1016100024E0DFF89081424502D14FF001081DE03F
:10162000DFF88481424502D14FF0020816E0DFF86E
:101630007C81424502D14FF003080FE0DFF8708152
:10164000424502D14FF0040808E0DFF868814245C6
:1016500002D14FF0050801E04FF006084FEA837908
:101660004FEA197908FA09F848EA0505DFF84881D0
:101670004FEA930948F82950D1F8048008F48038DB
:10168000B8F5803F0BD1DFF83481D8F8008048EA04
:101690000008DFF82891C9F800800AE075E0DFF85B
:1016A0001C81D8F8008028EA0008DFF81091C9F8FA
:1016B0000080D1F8048008F40038B8F5003F0ED15E
:1016C000DFF8F88008F10408D8F8008048EA00083C
:1016D000DFF8E89009F10409C9F800800DE0DFF8AF
:1016E000DC8008F10408D8F8008028EA0008DFF858
:1016F000CC9009F10409C9F80080D1F8048008F4FD
:101700008018B8F5801F0ED1DFF8B08008F1080806
:10171000D8F8008048EA0008DFF8A09009F108092D
:10172000C9F800800DE0DFF8948008F10808D8F8C7
:10173000008028EA0008DFF8849009F10809C9F858
:101740000080D1F8048008F40018B8F5001F0ED10D
:10175000DFF8688008F10C08D8F8008048EA000833
:10176000DFF8589009F10C09C9F800800DE0DFF8A6
:101770004C8008F10C08D8F8008028EA0008DFF84F
:101780003C9009F10C09C9F800805B1C102BFFF498
:1017900081AEBDE8F8870000000011100010024083
:1017A00000080140000C01400010014000140140FD
:1017B00000180140001C01400800014000040140E5
:1017C000024693680B400BB1012000E000207047F7
:1017D000C2684A40C26070470AB1016101E00B046F
:1017E0000361704701480068704700001000002046
:1017F00002480068401C0149086070471000002042
:1018000010B50848006840F0100006490860032041
:1018100000F0C2F8002000F007F800F019F80020EE
:1018200010BD00000020024070B504460748006863
:101830004FF47A71B0FBF1F5284600F0ECFE00227F
:101840002146501E00F069F8002070BD0000002005
:1018500008B500BF2148806940F001001F49886138
:101860000846806900F00100009000BF00BF03201F
:1018700000F092F8002211466FF00B0000F04DF8D6
:10188000002211466FF00A0000F047F800221146CE
:101890006FF0090000F041F800221146501F00F0DF
:1018A0003CF800221146101F00F037F800221146C4
:1018B000901E00F032F800221146501E00F02DF864
:1018C00000BF0748406820F0E060054948600846CE
:1018D000406840F00070486000BF08BD0010024042
:1018E0000000014000BF00F01F0201219140034AA7
:1018F000430942F8231000BF7047000080E100E078
:1019000000BF00F01F02012191404209920002F144
:10191000E022C2F8001100BF70472DE9F05F804659
:101920000D461646002701F045FF074639462A4670
:10193000334601F00700C0F1070ABAF1040F02D9DB
:101940004FF0040A01E0C0F1070AD14600F1040A91
:10195000BAF1070F02D24FF0000A01E0A0F1030A2A
:10196000D4464FF0010A0AFA09FAAAF1010A0AEA72
:10197000020A0AFA0CFA4FF0010B0BFA0CFBABF15E
:10198000010B0BEA030B4AEA0B042146404601F027
:1019900019FFBDE8F09F000000BF00F00702064BF2
:1019A00019684FF6FF031940044B0B4343EA022129
:1019B000014B196000BF70470CED00E00000FA0514
:1019C00070B504460D4604F1280101EB45114A6942
:1019D0002946D4F85C0403F099FA70BD70B504464A
:1019E0000D4604F50A7101EB45114A692946D4F800
:1019F0005C0403F0F8FA70BD70B504460D4600268D
:101A000005F08000802806D105F07F0104F1280050
:101A100000EB411603E004F50A7000EB45160020C8
:101A2000B07005F07F003070C5F3C010707000BF5B
:101A300094F82804012801D1022070BD012084F807
:101A4000280400BF3146206804F033F800BF0020AE
:101A500084F8280400BF00BFEFE72DE9F0470446F3
:101A60000D46174698464FF00009002605F0800005
:101A7000802806D105F07F0104F1280000EB411613
:101A800005E005F07F0104F50A7000EB411605F052
:101A90007F00307005F08000C0097070376186F8F3
:101AA000038000BF94F82804012802D10220BDE879
:101AB000F087012084F8280400BF3146206803F035
:101AC00020FE00BF002084F8280400BF4846EEE74F
:101AD0002DE9F04105460E4617469846002406F0CB
:101AE0007F0105F50A7000EB41146761C4F81880A6
:101AF0000020E061607006F07F00207006F07F003B
:101B000020B92146286804F071F803E021462868CE
:101B100004F06CF80020BDE8F08170B504460D4675
:101B2000002605F08000802806D105F07F0104F131
:101B3000280000EB411603E004F50A7000EB45169F
:101B40000120B07005F07F003070C5F3C0107070D8
:101B500000BF94F82804012801D1022070BD0120A3
:101B600084F8280400BF3146206803F0FCFF05F02C
:101B70007F0020B904F22C41206803F097FF00BFDA
:101B8000002084F8280400BF00BFE7E72DE9F041FA
:101B900005460E4617469846002406F07F0105F1DB
:101BA000280000EB41146761C4F818800020E06150
:101BB0000120607006F07F00207006F07F0020B9E1
:101BC0002146286804F012F803E02146286804F052
:101BD0000DF80020BDE8F08110B50446206804F03F
:101BE000A7F900F40040B0F5004F02D1204602F002
:101BF0001BF8206804F09CF900F48060B0F5806F59
:101C00000ED12068B0F8440020F480602168A1F86B
:101C10004400204600F094F80021204600F0B3F87C
:101C2000206804F085F900F48040B0F5804F07D1BA
:101C30002068B0F8440020F480402168A1F84400F6
:101C4000206804F075F900F40050B0F5005F07D18A
:101C50002068B0F8440020F400502168A1F8440046
:101C6000206804F065F900F48050B0F5805F1AD167
:101C70002068B0F8400020F004002168A1F840007E
:101C80002068B0F8400020F008002168A1F840006A
:101C9000204600F06AF82068B0F8440020F4805034
:101CA0002168A1F84400206804F042F900F40060C3
:101CB000B0F5006F20D12068B0F8400040F0080077
:101CC0002168A1F840002068B0F8440020F40060CA
:101CD0002168A1F844002068B0F8400040F00400FA
:101CE0002168A1F84000206804F022F9C0F3003018
:101CF00010B9204600F06CF8206804F019F900F4DF
:101D00000070B0F5007F0AD12068B0F8440020F4DC
:101D100000702168A1F84400204600F02DF82068EA
:101D200004F006F900F48070B0F5807F07D12068D8
:101D3000B0F8440020F480702168A1F8440010BD80
:101D400070B504460125A068022801D100BF01E05A
:101D5000012500BF00BF2946D4F85C0403F03AFA1D
:101D6000D4F85C0403F0FCF970BD10B50446D4F857
:101D70005C0403F017FA10BD10B50446D4F85C04F7
:101D800003F017FA10BD70B504460D4600BF94F875
:101D90002804012801D1022070BD012084F8280404
:101DA00000BF84F824502946206804F0DAF800BF08
:101DB000002084F8280400BF00BFEDE710B50446FA
:101DC00004F22C41D4F85C0403F02AFA10BD0000A0
:101DD00010B50446D4F85C0403F07BFAA06928B17E
:101DE0000348006840F006000149086010BD00008B
:101DF00010ED00E0F8B5044600260025207800F03C
:101E0000010000286BD000274348C06900F08050D3
:101E100070B900BF4048C06940F080503E49C86179
:101E20000846C06900F08050009000BF00BF012745
:101E30003A48006800F48070B0B93848006840F44F
:101E4000807036490860FFF7CDFC064606E0FFF7D4
:101E5000C9FC801B642801D90320F8BD2F48006805
:101E600000F480700028F2D02B48006A00F440751E
:101E70002DB3A08800F44070A84220D02648006A04
:101E800020F440750120264908600020086022489F
:101E9000056205F0010090B1FFF7A4FC064608E0DA
:101EA000FFF7A0FC801B41F28831884201D9032052
:101EB000D3E71948006A00F002000028F0D0164865
:101EC000006A20F440706168084313490862012FDA
:101ED00004D10846C06920F08050C86100BF207856
:101EE00000F00200022807D10B48406820F440406F
:101EF000A168084308494860207800F010001028C5
:101F000007D10548406820F4800061690843024910
:101F100048600020A1E7000000100240007000406F
:101F20004004424270B504460D46002662480068EF
:101F300000F00700A8420ED25F48006820F00700BA
:101F400028435D4908600846006800F00700A84281
:101F500001D0012070BD207800F00200022807D1D6
:101F60005648406820F0F000A16808435349486093
:101F7000207800F0010000285DD06068012806D1BB
:101F80004E48006800F4003090B90120E2E7606834
:101F9000022806D14948006800F0007040B90120CD
:101FA000D8E74648006800F0020008B90120D1E7F0
:101FB0004248406820F00300616808433F49486098
:101FC000FFF710FC06466068012810D108E0FFF713
:101FD00009FC801B41F28831884201D90320B9E70E
:101FE0003648406800F00C000428F0D123E0606817
:101FF000022810D108E0FFF7F5FB801B41F2883181
:10200000884201D90320A5E72C48406800F00C0065
:102010000828F0D10FE008E0FFF7E4FB801B41F255
:102020008831884201D9032094E72448406800F0B1
:102030000C000028F0D12048006800F00700A842FA
:102040000ED91D48006820F0070028431A4908608F
:102050000846006800F00700A84201D0012079E797
:10206000207800F00400042807D11448406820F4C8
:10207000E060E168084311494860207800F00800FA
:10208000082808D10D48406820F46050216940EAD2
:10209000C1000A49486000F03DF808494968C1F3A9
:1020A0000311074A515CC840064908600020FFF749
:1020B000BBFB00204EE70000002002400010024061
:1020C000906300080000002001480068704700008D
:1020D0000000002000B5FFF7F7FF04494968C1F38D
:1020E0000221034A515CC84000BD000000100240BC
:1020F000A063000800B5FFF7E7FF04494968C1F392
:10210000C221034A515CC84000BD000000100240DB
:10211000A0630008F0B585B00FF2700C9CE8E010E9
:1021200001A8A0E8E0101DA52D680095002100245D
:102130000022002300201A4D696801F00C05FDB152
:10214000042D02D0082D1AD101E016481AE001AD85
:10215000C1F38346AB5D01F480355DB1104D6D6810
:10216000C5F340451DF805400E4DB5FBF4F505FBE4
:1021700003F202E00C4D03FB05F2104602E000BF43
:10218000084800BF00BF05B0F0BD00000203040511
:10219000060708090A0B0C0D0E0F101001020000B3
:1021A0000010024000127A0000093D00F8B5044614
:1021B0000025207800F00100002878D0F848406819
:1021C00000F00C0004280CD0F548406800F00C002A
:1021D000082811D1F248406800F48030B0F5803F03
:1021E0000AD1EF48006800F4003000285FD0606832
:1021F00000285CD10120F8BD00BF6068B0F5803FC9
:1022000006D1E748006840F48030E549086028E0DE
:10221000606858B9E248006820F48030E0490860FE
:102220000846006820F4802008601AE06068B0F575
:10223000A02F0BD1DA48006840F48020D84908600C
:102240000846006840F4803008600AE0D44800681E
:1022500020F48030D24908600846006820F48020CD
:10226000086000BF606888B1FFF7BCFA054606E069
:10227000FFF7B8FA401B642801D90320BBE7C84820
:10228000006800F400300028F2D010E0FFF7AAFA4E
:10229000054606E0FFF7A6FA401B642801D9032093
:1022A000A9E7BF48006800F400300028F2D1207888
:1022B00000F00200022857D1B948406800F00C0035
:1022C00050B1B748406800F00C00082818D1B44855
:1022D000406800F4803098B9B148006800F002000E
:1022E00020B12069012801D0012084E7AC480068B2
:1022F00020F0F800616940EAC100A949086033E0B4
:102300002069E8B10120A7490860FFF76BFA05468C
:1023100006E0FFF767FA401B022801D903206AE7AD
:102320009F48006800F002000028F2D09C48006836
:1023300020F0F800616940EAC1009949086013E0A3
:10234000002098490860FFF74DFA054606E0FFF7C0
:1023500049FA401B022801D903204CE79048006845
:1023600000F002000028F2D1207800F008000828D0
:102370002DD1A069B8B101208B490860FFF732FA6E
:10238000054606E0FFF72EFA401B022801D903207C
:1023900031E78348406A00F002000028F2D00120B3
:1023A00001F066FE13E000207F490860FFF71AFA8B
:1023B000054606E0FFF716FA401B022801D9032064
:1023C00019E77748406A00F002000028F2D120782F
:1023D00000F00400042873D100267148C06900F0A1
:1023E000805070B900BF6E48C06940F080506C49A1
:1023F000C8610846C06900F08050009000BF00BF6F
:1024000001266A48006800F48070B0B96748006827
:1024100040F4807065490860FFF7E4F9054606E07E
:10242000FFF7E0F9401B642801D90320E3E65F4889
:10243000006800F480700028F2D000BFE068012836
:1024400006D15748006A40F001005549086227E06C
:10245000E06858B95248006A20F00100504908620B
:102460000846006A20F00400086219E0E0680528C8
:102470000BD14B48006A40F0040049490862084605
:10248000006A40F0010008620AE04548006A20F056
:102490000100434908620846006A20F0040008620F
:1024A00000BFE068A0B1FFF79DF9054609E0FFF71E
:1024B00099F9401B41F28831884202D903209AE6FB
:1024C00022E03748006A00F002000028EFD012E056
:1024D000FFF788F9054608E0FFF784F9401B41F251
:1024E0008831884201D9032085E62D48006A00F032
:1024F00002000028F0D1012E05D12948C06920F042
:1025000080502749C86100BFE069C8B324484068CB
:1025100000F00C00082860D0E069022848D10020B3
:1025200020490866FFF75EF9054606E0FFF75AF90D
:10253000401B022801D903205DE61948006800F01D
:1025400000700028F2D1206AB0F5803F07D114480E
:10255000406820F40030A168084311494860D4E97C
:10256000080108430E49496821F4741108430C49D5
:10257000486001200B490866FFF734F9054607E07B
:102580002DE0FFF72FF9401B022801D9032032E686
:102590000348006800F000700028F2D01FE000003F
:1025A000001002400000424280044242007000409D
:1025B00000200C490866FFF715F9054606E0FFF70D
:1025C00011F9401B022801D9032014E606480068CF
:1025D00000F000700028F2D101E001200BE600209D
:1025E00009E600000000424200100240042808D121
:1025F0004FF0E021096941F004014FF0E022116140
:1026000007E04FF0E021096921F004014FF0E022DA
:1026100011617047704770B504462546681EB0F1D9
:10262000807F01D301200FE0681E4FF0E021486158
:102630000F214FF0FF3001F0C5F800204FF0E021EE
:10264000886107200861002070BD10B5FFF7E2FF28
:1026500010BD70477047024600BF92F83C00012849
:1026600001D102207047012082F83C0000BF022007
:1026700082F83D001068406820F0700013685860D0
:10268000106840680B6818431368586010688068C9
:1026900020F0800013689860106880684B681843C9
:1026A00013689860012082F83D0000BF002082F886
:1026B0003C0000BF00BFD5E710B504460CB90120AF
:1026C00010BD94F83D0028B9002084F83C00204655
:1026D00000F00CF8022084F83D00211D206801F074
:1026E00037FF012084F83D000020E9E738B50446B3
:1026F0002068B0F1804F16D100BF2648C06940F075
:1027000001002449C8610846C06900F0010000903A
:1027100000BF00BF002201211C20FFF7FEF81C2093
:10272000FFF7EEF834E01C492068884216D100BF5C
:102730001848C06940F002001649C8610846C069DF
:1027400000F00200009000BF00BF002211461D20D3
:10275000FFF7E3F81D20FFF7D3F819E00F492068D1
:10276000884215D100BF0B48C06940F004000949F8
:10277000C8610846C06900F00400009000BF00BFB7
:10278000002205211E20FFF7C8F81E20FFF7B8F829
:1027900038BD000000100240000400400008004066
:1027A00001460868C06840F001000A68D060086807
:1027B000006840F001000A68106000207047014680
:1027C0000868C06820F001000A68D06000BF08688F
:1027D000006A41F21112104050B90868006A921064
:1027E000104028B90868006820F001000A681060ED
:1027F00000BF002070472DE9F04104460D46002639
:1028000000BF94F83C00012802D10220BDE8F0810D
:10281000012084F83C0000BF022084F83D002068BD
:10282000866826F0770626F47F462068866028684A
:1028300050283BD00CDC202860D004DC002853D08A
:10284000102865D155E030285DD0402860D141E0A6
:10285000602835D070280DD0B0F5805F03D0B0F57A
:10286000005F55D115E02068806820F007002168DE
:1028700088604EE0D5E902136A68206801F0B4FE72
:102880002068866826F0770646F07706206886601E
:102890003FE0D5E902136A68206801F0A5FE2068D0
:1028A000806840F480402168886032E0EA686968A6
:1028B000206801F0AFFE5021206801F0A1FE28E061
:1028C000EA686968206801F0BAFE6021206801F0BA
:1028D00097FE1EE0EA686968206801F09BFE4021CF
:1028E000206801F08DFE14E00021206801F088FED0
:1028F0000FE01021206801F083FE0AE0202120680B
:1029000001F07EFE05E03021206801F079FE00E054
:1029100000BF00BF012084F83D0000BF002084F804
:102920003C0000BF00BF71E7704710B50446206847
:102930000069C0F34000D8B12068C068C0F340000F
:10294000B0B16FF002002168086101202077206893
:10295000806900F0030018B12046FFF7E5FF05E0AD
:10296000204600F0ADF8204600F0ABF800202077BC
:1029700020680069C0F38000D8B12068C068C0F347
:102980008000B0B16FF00400216808610220207758
:102990002068806900F4407018B12046FFF7C4FF3A
:1029A00005E0204600F08CF8204600F08AF8002070
:1029B000207720680069C0F3C000D8B12068C068E3
:1029C000C0F3C000B0B16FF00800216808610420B6
:1029D00020772068C06900F0030018B12046FFF797
:1029E000A3FF05E0204600F06BF8204600F069F8F0
:1029F0000020207720680069C0F30010D8B120685B
:102A0000C068C0F30010B0B16FF010002168086119
:102A1000082020772068C06900F4407018B1204673
:102A2000FFF782FF05E0204600F04AF8204600F05C
:102A300048F8002020772068006900F0010058B1B4
:102A40002068C06800F0010030B16FF0010021681B
:102A50000861204600F036F820680069C0F3C01015
:102A600058B12068C068C0F3C01030B16FF080006A
:102A7000216808612046FFF7ECFD20680069C0F37B
:102A8000801058B12068C068C0F3801030B16FF07A
:102A9000400021680861204600F06AF8206800695B
:102AA000C0F3401058B12068C068C0F3401030B186
:102AB0006FF02000216808612046FFF7CBFD10BDB4
:102AC0007047704710B5044620492068096888425D
:102AD0000DD11F48FEF7CBF81E4988811E48FEF72E
:102AE000C6F81C49088000201C4908702DE01C49CC
:102AF00020680968884202D101F06EFC25E019497E
:102B000020680968884220D117480088401C00B21C
:102B1000154908801548808BB1F90010884214DCF3
:102B20001048FFF74CFE0948FFF749FE01200B490A
:102B30000870084800F02EFC4FF0FF300A4908806A
:102B40000748FFF72DFE01F047FC10BD600900208B
:102B5000A80B002068000020880B00200700002040
:102B6000A0090020E00900200A0000204400002005
:102B7000704770B50446002520684069C0F3C01551
:102B800094F8390021280ED16DB12068406920F0F9
:102B9000800021684861206B10B1206BFEF708FBB4
:102BA000204601F000FE20684069C0F3801594F8CB
:102BB0003A0022280ED16DB12068406920F0400013
:102BC00021684861606B10B1606BFEF7F1FA204636
:102BD00001F0C9FD002070BD704700002DE9F047ED
:102BE0000446206805682068C668206847694FF079
:102BF0000008C14605F00F08B8F1000F0AD105F032
:102C0000200038B106F0200020B1204601F0D5FDAB
:102C1000BDE8F087B8F1000F6DD007F0010018B9DA
:102C200006F49070002866D005F0010030B106F47B
:102C3000807018B1E06B40F00100E06305F0040023
:102C400030B107F0010018B1E06B40F00200E06322
:102C500005F0020030B107F0010018B1E06B40F060
:102C60000400E06305F0080030B107F0010018B17E
:102C7000E06B40F00800E063E06B68B305F0200013
:102C800028B106F0200010B1204601F096FD206822
:102C90004069C0F38019E06B00F0080010B9B9F189
:102CA000000F22D0204601F05EFD2068406900F050
:102CB0004000B0B12068406920F0400021684861C0
:102CC000606B50B11748616B4863606BFEF78EFA1A
:102CD00010B1606B416B88470CE02046FFF77CFF2A
:102CE00008E02046FFF778FF04E02046FFF774FF76
:102CF0000020E0638CE705F0800030B106F0800032
:102D000018B1204601F090FE82E705F0400030B196
:102D100006F0400018B1204601F035FD78E700BF0D
:102D200076E700006B46000810B504460CB9012098
:102D300010BDA06900B100E000BF94F8390028B9C7
:102D4000002084F83800204600F028F8242084F879
:102D500039002068C06820F400502168C86020460F
:102D600001F07EFD2068006920F490402168086130
:102D70002068406920F02A00216848612068C06806
:102D800040F400502168C8600020E063202084F8EF
:102D9000390084F83A000020CAE7000010B586B078
:102DA00004466C49206888422AD100BF6A4880697D
:102DB00040F48040684988610846806900F480409A
:102DC000019000BF00BF481502900220039003202D
:102DD000059002A96148FEF753FB4FF48060029012
:102DE00000200390049002A95C48FEF749FB0022F2
:102DF00005212520FEF791FD2520FEF781FDA6E0A7
:102E000057492068884274D100BF5348C06940F4D4
:102E100000305149C8610846C06900F40030019093
:102E200000BF00BF04200290022003900320059001
:102E300002A94A48FEF724FB0820029000200390D4
:102E4000049002A94548FEF71BFB46484649086026
:102E5000102048600021444881608021C160002129
:102E60000161416181614FF44051C16100680068B6
:102E700020F004003C49096808603B48FEF78AFAE4
:102E800018B1F52139A003F096F800BF3648206349
:102E9000446200BF334814383B4908600020486052
:102EA0000021394881608021C160002101614161B8
:102EB0008161C1610068006820F00400324909683E
:102EC00008603148FEF766FA20B14FF4837127A0FD
:102ED00003F071F800BF2C486063446200BF002219
:102EE00004212620FEF719FD2620FEF709FD2EE01D
:102EF000FFE726492068884229D100BF1648C069EB
:102F000040F480201449C8610846C06900F480205C
:102F1000019000BF00BF081502900220039003201B
:102F2000059002A91A48FEF7ABFA4FF40060029030
:102F300000200390049002A91548FEF7A1FA002290
:102F400004212720FEF7E9FC2720FEF7D9FC06B074
:102F500010BD000000380140001002400008014090
:102F60000044004080000240240B00202E2E2F53EE
:102F700072632F73746D3332663178785F68616C79
:102F80005F6D73702E630000E00A0020004800406F
:102F9000000C0140F7B50446154694F83A00202885
:102FA00044D1019800B10DB90120FEBD00BF94F8D5
:102FB0003800012801D10220F7E7012084F8380009
:102FC00000BF0198A062A5850020E063222084F85C
:102FD0003A001748616B88621648616BC8621648F0
:102FE000616B08630020616B486301AE326823683F
:102FF000191D2B46606BFEF717FA00BF002084F8FE
:10300000380000BF2068C06840F480702168C86044
:103010002068406940F001002168486120684069EB
:1030200040F04000216848610020BEE70220BCE774
:10303000CF460008154700087F46000870477047D4
:103040002DE9F84304460D4616461F464FF0000989
:1030500094F8390020285CD105B116B90120BDE8EB
:10306000F88300BF94F83800012801D10220F6E768
:10307000012084F8380000BF0020E063212084F89C
:103080003900FEF7AFFB8146A684E6842BE0E08C96
:10309000401EE084A068B0F5805F16D14B46002248
:1030A00080212046009701F0F3FC08B10320D6E709
:1030B000A846B8F80000C0F30800216848602069FD
:1030C00008B9AD1C0FE06D1C0DE04B4600228021BD
:1030D0002046009701F0DCFC08B10320BFE715F89B
:1030E000010B21684860E08C0028D0D14B460022BB
:1030F00040212046009701F0CBFC08B10320AEE749
:10310000202084F8390000BF002084F8380000BF78
:10311000A5E70220A3E70000F7B50446154694F89A
:10312000390020283DD1019800B10DB90120FEBD24
:1031300000BF94F83800012801D10220F7E70120F0
:1031400084F8380000BF01982062A584E58400203F
:10315000E063212084F839001348216B886213480A
:10316000216BC8621248216B08630020216B486301
:1031700001AE23681A1D31682B46206BFEF754F907
:103180006FF040002168086000BF002084F838001C
:1031900000BF2068406940F080002168486100203D
:1031A000C5E70220C3E7000023470008594700088D
:1031B0007F4600087047704700BFFEE710B5FEF776
:1031C0001FFB01F021F900F001F900F0EDF800F02B
:1031D000A7FA002240212548FEF7FEFA00224FF40C
:1031E00080712348FEF7F8FA22480068C06840F072
:1031F000400020490968C8601E480068C06820F087
:1032000080001C490968C8601A480068C06840F01E
:10321000100018490968C8606FF040001549096836
:1032200008606FF080001349096808604820FDF7C6
:103230007DFE00211048FDF7AFFB00210F48FDF790
:103240009BFC01210E48FDF797FC0020FDF772FD65
:103250000020FDF73DFD012211030548FEF7BCFAF1
:10326000012204210748FEF7B7FA10BD000C014007
:1032700000100140600A0020680B0020880B00202D
:10328000A80B002000140140012101700021234AF5
:1032900011604FF07E51224A11600021214A1160D5
:1032A0004FF07E51204A11602049214A1160214986
:1032B000214A11602149224A11602249224A1160A3
:1032C0002249234A116023495160234991602349CF
:1032D000D1602349116123495161234991612349F7
:1032E000D16100211162224951622249224A1160B2
:1032F00022495160224991602249D1602049A83178
:103300001161214951614FF07E5191611F49D16195
:103310004FF07E5111621E49516270472400002017
:10332000280000202C00002030000020DD088BBB8E
:103330003400002040FC7F3F38000020F25858BA8B
:103340003C000020E5F27F3F400000209B0022BAB5
:1033500010090020950070B8F05CCFB6F3E325B5F6
:103360005CB684B3FA56D4B159DB93B07FEE19B092
:103370000F300CB0AC3A6B3F380900202DC87D3FB0
:10338000992A803FB537803FEE7C7F3FEB1E813F1F
:10339000F54A813F00210180816041608181416166
:1033A000016181617047000008B500BF06484069AF
:1033B00040F00100044948610846406900F00100FE
:1033C000009000BF00BF08BD0010024000B585B0EE
:1033D00000BF5348806940F0200051498861084689
:1033E000806900F02000009000BF00BF00BF0846C9
:1033F000806940F0100088610846806900F0100084
:10340000009000BF00BF00BF0846806940F0040084
:1034100088610846806900F00400009000BF00BF8A
:1034200000BF0846806940F008008861084680694E
:1034300000F00800009000BF00BF002242F6BF511C
:103440003848FEF7C9F9012240F201113648FEF76B
:10345000C3F9002248F2B2013348FEF7BDF9002259
:103460004FF2FF113148FEF7B7F9012251022D4802
:10347000FEF7B2F9012211032A48FEF7ADF9012245
:1034800004212B48FEF7A8F943F6BF7001900120F4
:1034900002900320049001A92248FDF7F1FF48F2B1
:1034A000B3100190012002900320049001A91E484E
:1034B000FDF7E6FF402001900020029001200390DC
:1034C00001A91948FDF7DCFF4FF2FF100190012020
:1034D00002900320049001A91448FDF7D1FF402079
:1034E0000190002002900120039001A90D48FDF7F2
:1034F000C7FF4FF4805001900120029002200490F9
:1035000001A90848FDF7BCFF0420019001200290AA
:103510000220049001A90648FDF7B2FF05B000BDE6
:10352000001002400010014000080140000C014062
:103530000014014010B586B004464FF08040174992
:10354000086041F61F404860002114488160601EF9
:103550001249C860002111480161FFF7ADF818B1A8
:10356000CF210FA002F027FD4FF48050029002A956
:103570000A48FFF740F918B1D52109A002F01BFD58
:1035800000200090019069460448FFF764F818B1E4
:10359000DC2103A002F00FFD06B010BD6009002081
:1035A0002E2E5C447269766572735C557365725F2A
:1035B0004472697665725C5372635C6861726477A9
:1035C0006172652E630000002DE9F04786B08246E7
:1035D0001F482049086047F27F00486000211D48CD
:1035E00081605046FDF72EF8804600221A4BFCF70A
:1035F0003AFF06460022194BFCF72FFF0446FDF761
:103600005BF81449C860002112480161FFF754F8C3
:1036100018B1EF2112A002F0CEFC4FF480500290BE
:1036200002A90C48FFF7E7F818B1F5210CA002F049
:10363000C2FC00200090019069460648FFF70BF895
:1036400018B1FC2106A002F0B6FC06B0BDE8F08778
:1036500000040040A0090020000004400000F03FEA
:103660002E2E5C447269766572735C557365725F69
:103670004472697665725C5372635C6861726477E8
:103680006172652E6300000000B587B018481949C3
:10369000086041F61F40486000211648816040F2F2
:1036A000E731C16000210161FFF706F820B140F267
:1036B0000D1111A002F07FFC4FF48050039003A97C
:1036C0000C48FFF798F820B140F213110AA002F05D
:1036D00072FC00200190029001A90648FEF7BBFF92
:1036E00020B14FF48D7104A002F065FC07B000BD5D
:1036F00000080040E00900202E2E5C4472697665C7
:1037000072735C557365725F4472697665725C535F
:1037100072635C68617264776172652E6300000099
:1037200010B50C480C4908604FF4E13048600021A6
:1037300009488160C16001610C2141610021816102
:10374000C161FFF7F1FA20B140F24D1103A002F080
:1037500032FC10BD00440040600A00202E2E5C4464
:103760007269766572735C557365725F44726976CF
:1037700065725C5372635C68617264776172652E16
:103780006300000000BFFEE72DE9F04107460C464C
:103790004FF07E56002506E031463846FCF74CFDDA
:1037A0000646681CC5B2A542F6DB3046BDE8F0818E
:1037B0007047000002480068C0F302207047000014
:1037C0000CED00E010B5002807DA0A07140E054AD0
:1037D00000F00F031B1FD45403E00A07130E024A24
:1037E000135410BD18ED00E000E400E02DE9FF4F98
:1037F00083B00C4615461E46002E3BD105EB450016
:10380000C01CC1B22B48FFF7BFFF0290B4F1000B00
:1038100001DB594601E0CBF100010846FCF704FF4B
:1038200001900299FCF708FD8146DFF88CA009277A
:1038300006E022495046FCF7FFFC8246781EC7B2DC
:1038400049465046FCF780FFF3D3032000FB157078
:10385000401EC1B21948FFF797FF83462046FCF788
:10386000E3FE59460290FCF7E7FC8046384600F03C
:103870002DFD13E0032000FB1560401EC1B20F4870
:10388000FFF782FF07462046FCF7CEFE8146394609
:10389000FCF7D2FC8046304600F018FD4046FCF7AD
:1038A000DEFE07463946039800F012F907B0BDE87E
:1038B000F08F0000CDCCCC3D77CCAB300000204168
:1038C00010B53F48B0F90E003D49B1F910108842DB
:1038D0003ADC3C48007801280DD13949B1F916008D
:1038E000002801DB014600E04142354A528A11447A
:1038F00009B2334A51823248B0F912003049B1F965
:103900001010884202DDFDF7B1FB08E02E4C237851
:103910002B4C227EB4F912106078FFF767FF28491C
:10392000B1F91600002801DB014600E04142244ABB
:10393000B2F912201144224AB2F9102091423DDD21
:1039400001202249087739E01E48007801280DD16E
:103950001B49B1F91600002801DB014600E0414295
:10396000174A528A511A09B2154A51821448B0F9BD
:1039700012001349B1F91010884202DAFDF776FB04
:1039800008E0114C23780E4C227EB4F912106078B6
:10399000FFF72CFF0A49B1F91600002801DB0146A8
:1039A00000E04142064AB2F91220511A044AB2F923
:1039B0001020914202DA01200449087710BD00006E
:1039C000440000200C0000200409002068000020B2
:1039D00010B53C48B0F908003A49B1F90A108842DC
:1039E00037DC3948007801280DD13649B1F9140087
:1039F000002801DB014600E04142324A928911442D
:103A000009B2304A91812F48B0F90C002D49B1F923
:103A10000A10884202DDFDF729FB05E02948B0F9CC
:103A20000C10012000F054F82649B1F914000028C8
:103A300001DB014600E04142224AB2F90C20114468
:103A4000204AB2F90A2091423ADD01201F49087745
:103A500036E01D48007801280DD11A49B1F914004B
:103A6000002801DB014600E04142164A9289511AC2
:103A700009B2144A91811348B0F90C001149B1F907
:103A80000A10884202DAFDF7F1FA05E00D48B0F9B4
:103A90000C10012000F01CF80A49B1F914000028AC
:103AA00001DB014600E04142064AB2F90C20511AFE
:103AB000044AB2F90A20914202DA01200349087748
:103AC00010BD0000440000200C0000206800002011
:103AD0002DE9F34F89B08A464548007A08901AF5D7
:103AE000166F34DDBAF5166F31DA002040490872DE
:103AF0000021099800F09AFB5046FCF795FD3D49DE
:103B00000290FCF7CBFB03903B4801680398FCF75D
:103B100093FB0490394801680498FCF735FB059045
:103B2000FCF7E3FD0022364BCDE90601FCF798FCDB
:103B300080460022334BFCF708FD06460022324B3C
:103B4000FCF791FC0446FCF7E3FD834635E00120D9
:103B5000274908720121099800F068FB5046FCF7DC
:103B600063FD24490190FCF799FB814622480168D6
:103B70004846FCF761FB0290204801680298FCF778
:103B800003FB22490390FCF789FB8046FCF7ADFD5F
:103B900000221B4BCDE90401FCF762FC0446002225
:103BA000184BFCF7D2FC0022174BCDE90601FCF7BD
:103BB0005AFC0646FCF7ACFD83465846FCF768FD08
:103BC00084B2224601211248FCF78DFF0848017A91
:103BD0000898814209D00F48FEF7F1FD4FF4C870F4
:103BE000FDF73FFC0B48FEF7DBFD0BB0BDE8F08FA7
:103BF0000409002000007A4428000020240000204E
:103C00000000044000001440E0FFEF40000030419D
:103C1000680B0020A009002010B5FDF765F9002110
:103C20000120FFF755FF10BD2DE9FC41054600249A
:103C3000002700260020019000900CE2BDF804004F
:103C400000F00F06002E7DD1BDF8040000F010003A
:103C500088BB2868008848F60F71084029680880EA
:103C600005F128042868B0F85010207801EBC00056
:103C7000801C296801F5806131F81000C0F309004B
:103C8000E061E16960690844606100212846FDF750
:103C900097FE95F824000028CFD0A0690028CCD149
:103CA00095F8240040F080002968A1F84C0000201D
:103CB00085F82400CFE1FFE705F50A74286800883D
:103CC0000090BDF8000000F4006018B32868B0F858
:103CD0005010207801EBC000801D296801F580613B
:103CE00031F81000C0F30900E061A18B8BB2A2880B
:103CF00005F22C41286802F020F928680088C0F3FA
:103D00000E0048F68F710840296808802846FEF7A3
:103D100055F8A0E1BDF8000000F4004000288CD068
:103D200028680088C0F30E0048F68F7108402968A3
:103D300008802868B0F85010207801EBC000801D82
:103D4000296800E055E001F5806131F81000C0F30A
:103D50000900E061E06960B1B4F81CC01FFA8CF39F
:103D6000A2886169286802F0E8F8E169606908449E
:103D7000606100212846FDF731FE2A6802F5806265
:103D80002868B0F85000801D02EB400122693E2AED
:103D900010D92269C2F34F10227C02F01F020AB927
:103DA000421E90B24FF6FF7202EA802242F40042B5
:103DB0000A600DE02269C2F34F00227C02F001028A
:103DC0000AB1421C90B24FF6FF7202EA80220A60EA
:103DD000296809884BF68F7201EA020080F480504E
:103DE00080F4005040F4004141F080012A681180C5
:103DF00031E17100286830F811000090BDF8000032
:103E000000F4004000287CD07100286830F81100D0
:103E1000C0F30E0048F68F7108407200296821F83F
:103E2000120005F50A7000EB4614A07AA8B92868BC
:103E3000B0F85010207801EBC000801D296801F512
:103E4000806131F81000C0F30907EFB3A2886169FF
:103E50003B46286802F071F844E021784900286860
:103E600030F8110000F48040A8B12868B0F8501074
:103E7000207801EBC000801C296801F5806131F8D1
:103E80001000C0F30907DFB1E28861693B4628688A
:103E900002F053F814E02868B0F85010207801EBD5
:103EA000C000801D296801F5806131F81000C0F361
:103EB00009072FB1228961693B46286802F03DF865
:103EC00021784900286800E00CE030F8110048F63D
:103ED0008F71084048F2C0010843227852002968D7
:103EE00021F81200E0693844E0616069384460619B
:103EF000A06910B12069B84204D921782846FDF79D
:103F00006DFD05E021782846D4E90523FDF7E0FDA5
:103F1000BDF8000000F0800000287CD005F12800EA
:103F200000EB46147100286830F8110048F60F7154
:103F300008407200296821F81200A07AD0B92868D8
:103F4000B0F85010207801EBC000801C296801F502
:103F5000806131F81000C0F30900E061E069E8B366
:103F6000B4F81CC01FFA8CF3A2886169286801F0BC
:103F7000FFFF4EE021784900286830F8110000F07A
:103F80004000D0B12868B0F85010207801EBC00094
:103F9000801C296801F5806131F81000C0F3090028
:103FA000E061E06928B3B4F81CC01FFA8CF3E28822
:103FB0006169286801F0DCFF1BE02868B0F8501048
:103FC000207801EBC000801D296801F5806131F87F
:103FD0001000C0F30900E061E06900E019E040B1C1
:103FE000B4F81CC01FFA8CF322896169286801F0BB
:103FF000BFFF21784900286830F8110048F68F711A
:1040000008404CF28001084322785200296821F8C8
:104010001200286800E01EE0B0F85010207801EB94
:10402000C000801C296801F5806131F81000C0F3E0
:104030000900E061E169606908446061A06920B934
:1040400021782846FDF7BCFC05E021782846D4E914
:104050000523FDF79BFD2868B0F84400019000F4AB
:10406000004000287FF4EAADBDE8FC817047000005
:1040700008B508490968C9084FF47A72B1FBF2F132
:104080004143009100BF00BF00994A1E00920029E1
:10409000F9D108BD0000002070B505460E46144653
:1040A0005F48007808B1002070BD032D01D0012DBC
:1040B00074D1E07909281CDDE0782179884218DD87
:1040C000012D02D15748FEF77AFB5748FEF777FBE0
:1040D000E078401EE0706179E07800F0EAF8E0787E
:1040E00060716179642201FB02F0FDF7BAF90120E9
:1040F000DAE73088B0F57D4F03DC3088B0F5407FDB
:1041000020DA6079217988421ADD012D02D14548F3
:10411000FEF755FB4448FEF752FB61794A1ED0B2C8
:1041200000F0C7F86079401E6071E079401CE071D2
:104130006179642201FB02F0FDF793F90120B3E7F6
:104140000020B1E73088B0F5064F25DA3088B0F5A9
:10415000F64F21DD6079E17888421BDA012D02D12A
:104160003048FEF72CFB3048FEF729FB61794A1CEA
:10417000D0B200F09EF86079401C6071E079401C7C
:10418000E0716179642201FB02F0FDF76AF9012018
:104190008AE703E0002087E7002085E7042D03D0AD
:1041A000022D01D0052D39D1B089B0F57D4F03DC4A
:1041B000B089B0F5407F13DA022D02D11948FEF71D
:1041C000FEFA1948FEF7FBFA0121284600F02EF806
:1041D0006179642201FB02F0FDF743F9012063E7F6
:1041E000B089B0F5064F17DAB089B0F5F64F13DD98
:1041F000022D02D10B48FEF7E2FA0B48FEF7DFFA78
:104200000021284600F012F86179642201FB02F0D7
:10421000FDF727F9012047E7002045E7002043E7A5
:1042200004090020A00900206009002070B50446A0
:104230000D46012C03D0032C01D0052C0BD12DB938
:10424000002208210D48FDF7C7FA04E001220821E9
:104250000A48FDF7C1FA022C01D0042C0CD135B963
:1042600000224FF400510548FDF7B6FA04E00122A0
:1042700051030248FDF7B0FA70BD0000000C014088
:1042800010B50446012C01D0032C05D100221021C9
:104290000648FDF7A1FA08E0022C01D0042C04D155
:1042A000012210210148FDF797FA10BD000C0140D2
:1042B000704770B505460C46284600F007F86420A4
:1042C000FDF7CFF82046FCF7BFFD70BD10B50446E2
:1042D0000B2C43D2DFE804F042060C12181E242AED
:1042E00030363C00012211461E48FDF775FA36E0D3
:1042F000012202211B48FDF76FFA30E00122042160
:104300001848FDF769FA2AE0012208211548FDF74F
:1043100063FA24E0012210211248FDF75DFA1EE045
:10432000012220210F48FDF757FA18E0012211461B
:104330000D48FDF751FA12E0012202210A48FDF76B
:104340004BFA0CE0012204210748FDF745FA06E08C
:10435000012211030448FDF73FFA00E000BF00BF4F
:1043600010BD000000100140000C014010B50446D3
:10437000A078112806D10020207001212046FCF7EA
:104380000DFD08E0A078132805D101202070002140
:104390002046FCF703FD10BD70B50446A088FFF76A
:1043A00013F90A48FEF70BFAE08842F2107191FB0C
:1043B000F0F085B22846FFF7BDF80548FEF7FFF993
:1043C000FFF762F90348FEF7FAF970BDA009002073
:1043D00060090020E009002010B5022001F026FE4F
:1043E00000200549096848622620FDF77BFA02484B
:1043F000FEF7D6F910BD00006009002010B5FDF7EA
:10440000F7F9FEF722F910BD10B596B001200C9017
:1044100000040D9000200E900120109002201390B7
:10442000C10314914FF4E01115910CA8FDF7BEFEE5
:1044300018B145211AA001F0BEFD0F2007900220FF
:104440000890002009904FF480600A9000200B90A3
:10445000022107A8FDF766FD18B1532110A001F055
:10446000AAFD102001900020069001A8FDF7C2FCD3
:1044700018B15A210AA001F09EFDFDF725FE4FF468
:104480007A71B0FBF1F42046FEF7C5F80420FEF780
:10449000ADF800221146501EFDF73FFA16B010BDD0
:1044A0002E2E5C447269766572735C557365725F1B
:1044B0004472697665725C5372635C68617264779A
:1044C0006172652E630000001148006840F0010031
:1044D0000F490860084640680E4908400C4948608A
:1044E000084600680C490840094908600846006809
:1044F00020F4802008600846406820F4FE004860F0
:104500004FF41F008860C80304490860704700002A
:10451000001002400000FFF8FFFFF6FE08ED00E08B
:1045200010B50248FEF701FA10BD00006009002036
:1045300010B50248FEF7F9F910BD0000A0090020EF
:1045400010B50248FEF7F1F910BD0000E0090020A7
:10455000002202681F4B98420ED01F4B98420BD08E
:10456000B0F1804F08D01D4B984205D01C4B9842AB
:1045700002D01C4B984203D122F070024B681A43C0
:10458000144B98420ED0144B98420BD0B0F1804F90
:1045900008D0124B984205D0114B984202D0114BD3
:1045A000984203D122F44072CB681A4322F0800271
:1045B0004B691A4302608B68C3620B688362054BC8
:1045C000984202D0044B984201D10B690363012346
:1045D00043617047002C014000340140000400405A
:1045E00000080040000C004030B50C4600218168F6
:1045F00021F47F4142EA032525432943816030BDF0
:104600000A460021816821F0700142F00703194336
:104610008160704730B50B46144600210022026AC3
:10462000056A25F001050562816921F0F00141EA82
:10463000041122F00A021A438161026230BD30B5D2
:104640000B46144600210022056A25F0100505627C
:104650008169026A21F4704141EA043122F0A0022A
:1046600042EA03128161026230BD70B505466C6A90
:104670000020E085E0842046FEF7AEFA70BD70B5FC
:1046800006460025746A20684069C0F3C01594F896
:104690003900212805D125B10020E084204600F012
:1046A00082F820684069C0F3801594F83A00222807
:1046B00005D125B10020E085204600F054F8E06BDC
:1046C00040F01000E0632046FEF786FA70BD70B53A
:1046D00005466C6A2868006800F02000B0B9002028
:1046E000E0852068C06820F480702168C860206878
:1046F000406920F00100216848612068406920F08D
:10470000400021684861202084F83A002046FEF7E6
:1047100095FC70BD70B50446656A2846FEF78FFCAF
:1047200070BD70B505466C6A2868006800F020000E
:1047300070B90020E0842068406920F08000216882
:1047400048612068C06840F040002168C86002E00D
:104750002046FEF72FFD70BD70B50446656A2846F9
:10476000FEF729FD70BD0168C96821F490710268E7
:10477000D1600168496921F001010268516120217D
:1047800080F83A10704710B504462068C06820F0E1
:1047900040002168C860202084F839002046FEF7D8
:1047A00009FD002010BD0168C96821F0C001026840
:1047B000D160202180F83910704770B5044694F814
:1047C0003A0022284AD1A068B0F5805F13D1A56ACB
:1047D000206940B920684068C0F308002880A06ABA
:1047E000801CA06219E020684068C0B22880A06ADE
:1047F000401CA06211E0206938B920684068C1B24D
:10480000A26A501CA062117007E02068406800F0A6
:104810007F01A26A501CA0621170E08D401E80B220
:10482000E085C8B92068C06820F020002168C86011
:104830002068C06820F480702168C86020684069E2
:1048400020F0010021684861202084F83A002046C9
:10485000FEF7F4FB002070BD0020FCE70220FAE721
:104860002DE9F041044600252068006920F44050FD
:10487000E1680843216808612169A068084361690B
:10488000084305432068C06841F20C61884328430F
:104890002168C8602068406920F44070A16908431D
:1048A000216848615F49206888425CD1FDF722FC9D
:1048B00000EBC00101EB001061688900B0FBF1F66C
:1048C000FDF718FC00EBC00101EB001061688900E6
:1048D000B0FBF1F06421B0FBF1F000EBC00101EBA3
:1048E0000010A6EB8000322101EB00106421B0FB28
:1048F000F1F000F0F006FDF7FDFB00EBC00101EB6D
:10490000001061688900B0FBF1F06421B0FBF1F0A8
:1049100006EB0016FDF7EEFB00EBC00101EB00100B
:1049200061688900B0FBF1F7FDF7E4FB00EBC00123
:1049300001EB001061688900B0FBF1F06421B0FB6D
:10494000F1F000EBC00101EB0010A7EB8000322179
:1049500001EB00106421B0FBF1F000F00F003044D7
:10496000216888605BE0FDF7B5FB00EBC00101EB5F
:10497000001061688900B0FBF1F6FDF7ABFB00EBBE
:10498000C00101EB001061688900B0FBF1F0642107
:10499000B0FBF1F000EBC00101EB0010A6EB8000D2
:1049A000322101EB00106421B0FBF1F000F0F006C1
:1049B000FDF790FB00EBC00101EB0010616889007E
:1049C000B0FBF1F06421B0FBF1F006EB0016FDF74F
:1049D00081FB00EBC00101EB001061688900B0FBB6
:1049E000F1F7FDF777FB00EBC00101EB0010616808
:1049F0008900B0FBF1F06421B0FBF1F000EBC001E5
:104A000001EB0010A7EB8000322101EB00106421C4
:104A1000B0FBF1F000F00F00304421688860BDE881
:104A2000F081000000380140014691F8390021284A
:104A30002CD18868B0F5805F0FD10A6A1088C0F366
:104A400008000B685860086918B9086A801C086279
:104A500009E0086A401C086205E00B6A581C0862FD
:104A600018780B685860C88C401E80B2C88458B94A
:104A70000868C06820F080000B68D8600868C068CB
:104A800040F040000B68D860002070470220FCE72F
:104A90002DE9F04104460D4617469846069E21E052
:104AA000701CF8B12EB1FCF79DFEA0EB0800B042DF
:104AB00018D92068C06820F4D0702168C8602068C8
:104AC000406920F0010021684861202084F8390005
:104AD00084F83A0000BF002084F8380000BF0320AB
:104AE000BDE8F081206800682840A84201D101207B
:104AF00000E00020B842D3D00020F1E710B5024812
:104B0000FEF76CF810BD0000200A002038B5002523
:104B100000242E4800680068C0F380152B48006808
:104B2000C06800F04004DDB1D4B16FF04000274907
:104B300009680860254890F83900232804D122200C
:104B4000224981F8390003E02020204981F839000A
:104B500001201F490870002201021E48FCF73CFE9C
:104B60001A4800680068C0F3001518480068C0685B
:104B700000F010044DB344B300BF00200090134870
:104B8000006800680090114800684068009000BF0D
:104B900000BF0E480068C06820F020000B4909687B
:104BA000C8600A4890F83A00232804D12120074918
:104BB00081F83A0003E02020044981F83A000348D4
:104BC000FDF7D7FF01200449087038BD600A0020B6
:104BD00009000020001001400800002010B5024824
:104BE000FDF7FCFF10BD0000A00A002070B50446D0
:104BF0000D46D4F81402294642682046904700200A
:104C000070BD70B504460D4694F8FC01022802D030
:104C1000032811D100E000BF688801280BD10020D3
:104C2000C4F80402D4F8140229468268204690474A
:104C3000204600F04AF804E02946204600F01BF820
:104C400000BF00BF70BD70B506460C4615462B462A
:104C500022460021304600F052FA002070BD70B5A7
:104C600006460C4615462B4622460021304600F0EB
:104C70003AFB002070BD70B504460D4680212046E9
:104C800000F005FB0021204600F001FB70BD10B5CF
:104C900004460520C4F8F40100231A4619462046AC
:104CA00000F02DFA002010BD70B504460E461546E2
:104CB0000220C4F8F401A561E5612B4632460021CB
:104CC000204600F010FB002070BD10B50446042003
:104CD000C4F8F40100231A461946204600F003FBED
:104CE000002010BD70B504460D46E888012804D0A8
:104CF00029462046FFF7BFFF1BE094F8FC0102287D
:104D000002D003280FD108E00020A060012204F1A6
:104D100008012046FFF7C8FF0AE00122211D2046B6
:104D2000FFF7C2FF04E029462046FFF7A4FF00BFBB
:104D300000BF70BDF8B504460E4670880012082802
:104D400072D2DFE800F082040C2082826372207C41
:104D5000D4F810120A686946904705467AE0207C2C
:104D600040B9D4F81402816A684688470546022192
:104D7000697007E0D4F81402C16A6846884705469E
:104D80000221697066E0B078062834D2DFE800F0CE
:104D9000030B131B232B207CD4F810124A6869469E
:104DA0009047054630E0207CD4F810128A686946A6
:104DB0009047054628E0207CD4F81012CA6869465E
:104DC0009047054620E0207CD4F810120A69694615
:104DD0009047054618E0207CD4F810124A696946CD
:104DE0009047054610E0207CD4F810128A69694685
:104DF0009047054608E0B178D4F814026A46836B00
:104E000020469847054600BF00BF23E0207C30B90C
:104E1000D4F81402416B6846884705461AE03146CB
:104E20002046FFF728FFF8BD0FE0207C40B9D4F8FA
:104E30001402016B6846884705460721697009E03E
:104E400031462046FFF717FFEDE731462046FFF7D2
:104E500012FFE8E700BFBDF8000088B1F08878B124
:104E6000F088BDF80010884202DDBDF8000000E0C7
:104E7000F0880090BDF8002029462046FFF714FF77
:104E800000BFD0E770B504460D4694F8FC01022837
:104E900002D0032811D100E000BF0120E060D4F867
:104EA000040218B1E06840F00200E060022204F160
:104EB0000C012046FFF7F8FE04E029462046FFF7E4
:104EC000DAFE00BF00BF70BD2DE9F04104460D467B
:104ED000002600272946D4F82002FCF78DFD06465F
:104EE00036B1012E06D0022E06D0032E08D105E0E1
:104EF000002707E0022705E0012703E0022701E081
:104F0000022700BF00BF3846BDE8F0812DE9F0411F
:104F100004460E461746002E54D104F11405D4F869
:104F2000F401022843D1D5E90201884210D9D5E91C
:104F30000201401AA860288982B239462046FFF74C
:104F40008EFE00231A461946204600F0D8F82EE0BF
:104F5000E9686868B0FBF1F201FB1200B8B9E968D2
:104F60006868884213D36868D4F8F81188420ED272
:104F7000002211462046FFF772FE0020C4F8F80117
:104F800000231A461946204600F0B9F80FE0D4F87D
:104F90001402C06840B194F8FC01032804D1D4F88D
:104FA0001402C168204688472046FFF770FE94F837
:104FB0000002012814D1204600F0DAF9002084F81C
:104FC00000020DE0D4F81402406948B194F8FC01E5
:104FD000032805D1D4F8140231464269204690478F
:104FE0000020BDE8F0812DE9F04105460E46174648
:104FF0005EBB05F58274D5F8F401032833D1D4E9FA
:105000000201884210D9D4E90201401AA060D4E913
:105010000201884201D2A06800E0E06882B239460D
:105020002846FFF710FE1EE0D5F81402006940B1D3
:1050300095F8FC01032804D1D5F81402016928462B
:1050400088472846FFF741FE0DE0D5F81402806935
:1050500048B195F8FC01032805D1D5F81402314672
:105060008269284690470020BDE8F08110B50246CD
:10507000D2F8203201F08000802807D101F07F04AF
:1050800003F1280000EB4410807810BD01F07F048C
:1050900003F50A7000EB44108078F6E72DE9F0473D
:1050A00004460F4615461E464FF00008C1462B46E3
:1050B00032463946D4F82002FCF7CFFC8046B8F1DE
:1050C000000F09D0B8F1010F09D0B8F1020F09D0D3
:1050D000B8F1030F0CD108E04FF000090BE04FF0DE
:1050E000020908E04FF0010905E04FF0020902E073
:1050F0004FF0020900BF00BF4846BDE8F0872DE928
:10510000F04704460D4616461F464FF00008C146BC
:105110003B4632462946D4F82002FCF7D9FC8046AB
:10512000B8F1000F09D0B8F1010F09D0B8F1020FA2
:1051300009D0B8F1030F0CD108E04FF000090BE0E3
:105140004FF0020908E04FF0010905E04FF00209B5
:1051500002E04FF0020900BF00BF4846BDE8F087FB
:1051600010B504464023002211462046FFF796FF63
:1051700040214FF4887001514023002280212046B5
:10518000FFF78CFF40212162012084F8FC01D4F854
:10519000180228B12179D4F81402426820469047B9
:1051A000002010BD014691F8FD0181F8FC010020AE
:1051B000704710B5044694F8FC01032808D1D4F8D0
:1051C0001402C06920B1D4F81402C169204688478E
:1051D000002010BD02461174002070472DE9F041F7
:1051E00004460D46002600272946D4F82002FCF785
:1051F000CAFD064636B1012E06D0022E06D0032E79
:1052000008D105E0002707E0022705E0012703E0B9
:10521000022701E0022700BF00BF3846BDE8F08149
:1052200070B504460D46294604F5027000F08CF86E
:105230000120C4F8F40140F20E20005BC4F8F8012C
:1052400094F8080200F01F0020B1012808D00228BD
:1052500012D10BE004F50271204600F049F913E089
:1052600004F50271204600F027FA0DE004F5027102
:10527000204600F076F907E094F8080200F080017B
:10528000204600F004F800BF00BF002070BD2DE9EB
:10529000F04104460D46002600272946D4F8200296
:1052A000FCF73BFC064636B1012E06D0022E06D096
:1052B000032E08D105E0002707E0022705E00127BB
:1052C00003E0022701E0022700BF00BF3846BDE827
:1052D000F081014691F8FC0181F8FD01042081F87C
:1052E000FC01002070472DE9F04704460D461646A4
:1052F0001F464FF00008C1463B4632462946D4F8C7
:105300002002FCF743FC8046B8F1000F09D0B8F149
:10531000010F09D0B8F1020F09D0B8F1030F0CD179
:1053200008E04FF000090BE04FF0020908E04FF0F1
:10533000010905E04FF0020902E04FF0020900BF49
:1053400000BF4846BDE8F0870A7802704A7842708C
:105350008B78CA7803EB022242800B794A7903EBFF
:10536000022282808B79CA7903EB0222C2807047C5
:1053700001460020704770B504460D46A888F8B96C
:10538000E888E8B9A87800F07F0694F8FC010328C3
:1053900004D129462046FFF76EFC15E084F8FE6133
:1053A00031462046FFF71AFF2046FFF78EFC1EB15C
:1053B000022084F8FC0107E0012084F8FC0103E0EE
:1053C00029462046FFF757FC70BD70B504460D46D0
:1053D0000226D4F8140238B1D4F81402294602681F
:1053E0002046904700B90026304670BD70B504468F
:1053F0000D46A8783449087008460078012804DD75
:1054000029462046FFF737FC5BE094F8FC010228B0
:1054100002D003284FD11CE02B480078A8B12A48BD
:1054200000786060032084F8FC012748017820465A
:10543000FFF7CBFF022804D129462046FFF71BFCCB
:1054400070BD2046FFF741FC02E02046FFF73DFC1F
:1054500036E01D48007870B9022084F8FC011A4833
:1054600000786060184801782046FFF7BFFB2046AF
:10547000FFF72BFC1EE0144909786068884216D0BB
:1054800021792046FFF7B2FB0F48007860600E4894
:1054900001782046FFF799FF022804D129462046CB
:1054A000FFF7E9FBCCE72046FFF70FFC02E02046C0
:1054B000FFF70BFC04E029462046FFF7DCFB00BFAA
:1054C00000BF00BFBCE700000400002070B5044628
:1054D0000D46688801280AD1C4F80402D4F81402E1
:1054E00029468268204690472046FFF7EEFB70BDB4
:1054F00070B505460C46002660780A2829D2DFE8F8
:1055000000F01923281E280A0528140F21462846D2
:10551000FFF710FC22E021462846FFF72CFF1DE094
:1055200021462846FFF762FF18E021462846FFF78C
:10553000D9FB13E021462846FFF7A4FC0EE02146E4
:105540002846FFF7C3FF09E021462846FFF759FB2D
:1055500004E021462846FFF78EFB00BF00BF30461F
:1055600070BD2DE9F04105460E464FF00008347934
:10557000307800F06000202808D1D5F814023146B8
:105580008268284690470020BDE8F08170780028A6
:1055900055D001282AD003287AD195F8FC01022899
:1055A00002D003281BD107E02CB1802C03D0214668
:1055B0002846FFF76CFE17E0708830B92CB1802CBC
:1055C00003D021462846FFF762FED5F81402314683
:1055D0008268284690472846FFF777FB04E031466B
:1055E0002846FFF748FB00BF00BF62E095F8FC01CA
:1055F000022802D003281BD107E02CB1802C03D055
:1056000021462846FFF743FE17E0708878B904F07A
:105610007F0048B121462846FFF756FCD5F8140212
:1056200031468268284690472846FFF74EFB04E043
:1056300031462846FFF71FFB00BF00BF39E095F851
:10564000FC01022802D003282BD107E004F07F00E0
:1056500018B121462846FFF71AFE27E004F0800023
:10566000802806D104F07F0105F1140000EB011041
:1056700005E004F07F0105F5827000EB011007469C
:1056800021462846FFF7F2FC18B10120386002E0FD
:105690000EE000203860022239462846FFF704FB5E
:1056A00004E031462846FFF7E6FA00BF00BF00E0FD
:1056B00000BF00BF404667E770B504460D460026B0
:1056C00094F8FC01032814D1287901280CDCD4F8C3
:1056D00014022946826820469047E88840B93EB9BE
:1056E0002046FFF7F2FA03E029462046FFF7C3FA07
:1056F00004E029462046FFF7BEFA00BF00BF0020A5
:1057000070BD10B50246C87830B101282CD00228EF
:1057100010D0032836D119E00878400032F8100084
:1057200048F68F13184040F400700B785B0022F8A5
:10573000130028E00878400032F8100048F68F1374
:1057400018400B785B0022F813001CE0087840003A
:1057500032F8100048F68F13184040F4C0600B7800
:105760005B0022F813000EE00878400032F81000C9
:1057700048F68F13184040F480600B785B0022F8E5
:10578000130000E000BF00BF0878400032F81000AE
:1057900048F68F73184048F2800318430B7818437B
:1057A0005B0022F81300887A00287DD1487898B3EE
:1057B000888840104400B2F85030087803EBC000ED
:1057C00002F5806343F810400878400032F810007A
:1057D00000F0400068B10878400032F8100048F648
:1057E0008F73184048F2C00318430B785B0022F80F
:1057F00013000B785B0032F8133048F6BF7403EAED
:10580000040080F0200040F4004343F080030C7853
:10581000640022F8143047E1FFE788884010440014
:10582000B2F85030087803EBC000001D02F5806329
:1058300043F81040B2F85040087804EBC000801DD7
:105840001C4604EB40030C693E2C10D90C69C4F3D0
:105850004F100C7C04F01F040CB9441EA0B24FF68C
:10586000FF7404EA802444F400441C600DE00C69D9
:10587000C4F34F000C7C04F001040CB1441CA0B232
:105880004FF6FF7404EA80241C600878400032F868
:10589000100000F4804078B10878400032F8100021
:1058A00048F68F73184000E01BE04CF28003184369
:1058B0000B785B0022F813000B785B0032F8133092
:1058C0004BF68F7403EA040080F4805080F400509B
:1058D00040F4004343F080030C78640022F8143055
:1058E000E2E00878400032F8100040F4807048F69A
:1058F0008F73184048F2800318430B785B0022F83E
:105900001300C88840104400B2F85030087803EB08
:10591000C00002F5806343F810400889401044003D
:10592000B2F85030087803EBC000001D02F5806328
:1059300043F810404878F0BB0878400032F8100077
:1059400000F4804068B10878400032F8100048F652
:105950008F7318404CF2800318430B785B0022F8D9
:1059600013000878400032F8100000F0400068B1E1
:105970000878400032F8100048F68F73184048F25B
:10598000C00318430B785B0022F81300087840002E
:1059900032F8100048F68F73184048F2C0031843DD
:1059A0000B785B0022F813000B785B0032F81330A1
:1059B0004BF68F7400E01EE003EA040080F4805090
:1059C00080F4005040F4004343F080030C786400FE
:1059D00022F814300B785B0032F8133048F6BF74AD
:1059E00003EA040040F4004343F080030C786400B1
:1059F00022F8143058E00878400032F8100000F423
:105A0000804068B10878400032F8100048F68F7383
:105A100018404CF2800318430B785B0022F8130007
:105A20000878400032F8100000F0400068B10878B3
:105A3000400032F8100048F68F73184048F2C00357
:105A400018430B785B0022F813000878400032F806
:105A5000100048F68F7318404CF2800318430B78FF
:105A60005B0022F813000B785B0032F8133048F625
:105A7000BF7403EA040040F4004343F080030C7851
:105A8000640022F814300B785B0032F813304BF6C8
:105A90008F7403EA040040F4004343F080030C7861
:105AA000640022F8143000BF002010BD0246002020
:105AB000704710B50246487848B30878400032F87D
:105AC000100000F0400068B10878400032F8100083
:105AD00048F68F73184048F2C00318430B785B00F8
